{
  "contractName": "AirDropModule",
  "abi": [
    {
      "inputs": [
        {
          "internalType": "address",
          "name": "cOwner",
          "type": "address"
        },
        {
          "internalType": "address",
          "name": "baseContract",
          "type": "address"
        }
      ],
      "stateMutability": "nonpayable",
      "type": "constructor"
    },
    {
      "anonymous": false,
      "inputs": [
        {
          "indexed": true,
          "internalType": "address",
          "name": "previousOwner",
          "type": "address"
        },
        {
          "indexed": true,
          "internalType": "address",
          "name": "newOwner",
          "type": "address"
        }
      ],
      "name": "OwnershipTransferred",
      "type": "event"
    },
    {
      "anonymous": false,
      "inputs": [
        {
          "indexed": false,
          "internalType": "uint256",
          "name": "numberOfParticipants",
          "type": "uint256"
        },
        {
          "indexed": false,
          "internalType": "uint256",
          "name": "totalTokenAmount",
          "type": "uint256"
        }
      ],
      "name": "ParticipantsAdded",
      "type": "event"
    },
    {
      "anonymous": false,
      "inputs": [
        {
          "indexed": true,
          "internalType": "address",
          "name": "participant",
          "type": "address"
        },
        {
          "indexed": false,
          "internalType": "uint256",
          "name": "amount",
          "type": "uint256"
        }
      ],
      "name": "TokensClaimed",
      "type": "event"
    },
    {
      "inputs": [],
      "name": "moduleName",
      "outputs": [
        {
          "internalType": "string",
          "name": "",
          "type": "string"
        }
      ],
      "stateMutability": "view",
      "type": "function"
    },
    {
      "inputs": [],
      "name": "moduleVersion",
      "outputs": [
        {
          "internalType": "string",
          "name": "",
          "type": "string"
        }
      ],
      "stateMutability": "view",
      "type": "function"
    },
    {
      "inputs": [],
      "name": "owner",
      "outputs": [
        {
          "internalType": "address",
          "name": "",
          "type": "address"
        }
      ],
      "stateMutability": "view",
      "type": "function"
    },
    {
      "inputs": [],
      "name": "previousOwner",
      "outputs": [
        {
          "internalType": "address",
          "name": "",
          "type": "address"
        }
      ],
      "stateMutability": "view",
      "type": "function"
    },
    {
      "inputs": [],
      "name": "renounceOwnership",
      "outputs": [],
      "stateMutability": "nonpayable",
      "type": "function"
    },
    {
      "inputs": [
        {
          "internalType": "address",
          "name": "newOwner",
          "type": "address"
        }
      ],
      "name": "transferOwnership",
      "outputs": [],
      "stateMutability": "nonpayable",
      "type": "function"
    },
    {
      "inputs": [
        {
          "internalType": "address[]",
          "name": "participants",
          "type": "address[]"
        },
        {
          "internalType": "uint256",
          "name": "tokenAmount",
          "type": "uint256"
        }
      ],
      "name": "addParticipants",
      "outputs": [],
      "stateMutability": "nonpayable",
      "type": "function"
    },
    {
      "inputs": [
        {
          "internalType": "address[]",
          "name": "participants",
          "type": "address[]"
        },
        {
          "internalType": "uint256[]",
          "name": "tokenAmounts",
          "type": "uint256[]"
        }
      ],
      "name": "addUniqueParticipants",
      "outputs": [],
      "stateMutability": "nonpayable",
      "type": "function"
    },
    {
      "inputs": [
        {
          "internalType": "address",
          "name": "a",
          "type": "address"
        }
      ],
      "name": "balanceInAirDropPool",
      "outputs": [
        {
          "internalType": "uint256",
          "name": "",
          "type": "uint256"
        }
      ],
      "stateMutability": "view",
      "type": "function"
    },
    {
      "inputs": [
        {
          "internalType": "uint256",
          "name": "amount",
          "type": "uint256"
        }
      ],
      "name": "claim",
      "outputs": [],
      "stateMutability": "nonpayable",
      "type": "function"
    },
    {
      "inputs": [],
      "name": "ping",
      "outputs": [
        {
          "internalType": "string",
          "name": "",
          "type": "string"
        }
      ],
      "stateMutability": "view",
      "type": "function"
    }
  ],
  "bytecode": "0x60806040523480156200001157600080fd5b5060405162001f4938038062001f4983398181016040528101906200003791906200045e565b81816040518060400160405280600781526020017f41697244726f70000000000000000000000000000000000000000000000000008152506040518060400160405280600581526020017f302e302e3100000000000000000000000000000000000000000000000000000081525083620000b7816200024b60201b60201c565b5082600260006101000a81548173ffffffffffffffffffffffffffffffffffffffff021916908373ffffffffffffffffffffffffffffffffffffffff1602179055508373ffffffffffffffffffffffffffffffffffffffff16600260009054906101000a900473ffffffffffffffffffffffffffffffffffffffff1673ffffffffffffffffffffffffffffffffffffffff16638da5cb5b6040518163ffffffff1660e01b815260040160206040518083038186803b1580156200017957600080fd5b505afa1580156200018e573d6000803e3d6000fd5b505050506040513d601f19601f82011682018060405250810190620001b4919062000432565b73ffffffffffffffffffffffffffffffffffffffff16146200020d576040517f08c379a00000000000000000000000000000000000000000000000000000000081526004016200020490620004c6565b60405180910390fd5b8160039080519060200190620002259291906200036b565b5080600490805190602001906200023e9291906200036b565b50505050505050620005fb565b60008054906101000a900473ffffffffffffffffffffffffffffffffffffffff16600160006101000a81548173ffffffffffffffffffffffffffffffffffffffff021916908373ffffffffffffffffffffffffffffffffffffffff160217905550806000806101000a81548173ffffffffffffffffffffffffffffffffffffffff021916908373ffffffffffffffffffffffffffffffffffffffff1602179055508073ffffffffffffffffffffffffffffffffffffffff16600160009054906101000a900473ffffffffffffffffffffffffffffffffffffffff1673ffffffffffffffffffffffffffffffffffffffff167f8be0079c531659141344cd1fd0a4f28419497f9722a3daafe3b4186f6b6457e060405160405180910390a350565b82805462000379906200052d565b90600052602060002090601f0160209004810192826200039d5760008555620003e9565b82601f10620003b857805160ff1916838001178555620003e9565b82800160010185558215620003e9579182015b82811115620003e8578251825591602001919060010190620003cb565b5b509050620003f89190620003fc565b5090565b5b8082111562000417576000816000905550600101620003fd565b5090565b6000815190506200042c81620005e1565b92915050565b6000602082840312156200044557600080fd5b600062000455848285016200041b565b91505092915050565b600080604083850312156200047257600080fd5b600062000482858286016200041b565b925050602062000495858286016200041b565b9150509250929050565b6000620004ae603b83620004e8565b9150620004bb8262000592565b604082019050919050565b60006020820190508181036000830152620004e1816200049f565b9050919050565b600082825260208201905092915050565b600062000506826200050d565b9050919050565b600073ffffffffffffffffffffffffffffffffffffffff82169050919050565b600060028204905060018216806200054657607f821691505b602082108114156200055d576200055c62000563565b5b50919050565b7f4e487b7100000000000000000000000000000000000000000000000000000000600052602260045260246000fd5b7f546865206d6f64756c65206465706c6f796572206d757374206265207468652060008201527f6f776e6572206f6620746865206261736520636f6e7472616374210000000000602082015250565b620005ec81620004f9565b8114620005f857600080fd5b50565b61193e806200060b6000396000f3fe608060405234801561001057600080fd5b50600436106100a95760003560e01c8063715018a611610071578063715018a614610152578063827e377f1461015c5780638da5cb5b1461017857806393f0899a14610196578063baa3b4d7146101b4578063f2fde38b146101d2576100a9565b8063379607f5146100ae5780634e507b03146100ca57806354a31e5c146100fa5780635c36b18614610116578063674f220f14610134575b600080fd5b6100c860048036038101906100c391906111a4565b6101ee565b005b6100e460048036038101906100df9190611051565b610531565b6040516100f191906113f6565b60405180910390f35b610114600480360381019061010f919061107a565b61057a565b005b61011e61077a565b60405161012b9190611354565b60405180910390f35b61013c610887565b60405161014991906112d9565b60405180910390f35b61015a6108b1565b005b610176600480360381019061017191906110e6565b610939565b005b610180610abc565b60405161018d91906112d9565b60405180910390f35b61019e610ae5565b6040516101ab9190611354565b60405180910390f35b6101bc610b77565b6040516101c99190611354565b60405180910390f35b6101ec60048036038101906101e79190611051565b610c09565b005b80600560006101fb610d01565b73ffffffffffffffffffffffffffffffffffffffff1673ffffffffffffffffffffffffffffffffffffffff168152602001908152602001600020541015610277576040517f08c379a000000000000000000000000000000000000000000000000000000000815260040161026e906113b6565b60405180910390fd5b80610280610d09565b73ffffffffffffffffffffffffffffffffffffffff166370a08231306040518263ffffffff1660e01b81526004016102b891906112d9565b60206040518083038186803b1580156102d057600080fd5b505afa1580156102e4573d6000803e3d6000fd5b505050506040513d601f19601f8201168201806040525081019061030891906111cd565b1015610349576040517f08c379a000000000000000000000000000000000000000000000000000000000815260040161034090611376565b60405180910390fd5b610351610d09565b73ffffffffffffffffffffffffffffffffffffffff1663095ea7b330836040518363ffffffff1660e01b815260040161038b92919061132b565b602060405180830381600087803b1580156103a557600080fd5b505af11580156103b9573d6000803e3d6000fd5b505050506040513d601f19601f820116820180604052508101906103dd919061113a565b506103e6610d09565b73ffffffffffffffffffffffffffffffffffffffff166323b872dd3061040a610d01565b846040518463ffffffff1660e01b8152600401610429939291906112f4565b602060405180830381600087803b15801561044357600080fd5b505af1158015610457573d6000803e3d6000fd5b505050506040513d601f19601f8201168201806040525081019061047b919061113a565b508060056000610489610d01565b73ffffffffffffffffffffffffffffffffffffffff1673ffffffffffffffffffffffffffffffffffffffff16815260200190815260200160002060008282546104d291906115b4565b925050819055506104e1610d01565b73ffffffffffffffffffffffffffffffffffffffff167f896e034966eaaf1adc54acc0f257056febbd300c9e47182cf761982cf1f5e4308260405161052691906113f6565b60405180910390a250565b6000600560008373ffffffffffffffffffffffffffffffffffffffff1673ffffffffffffffffffffffffffffffffffffffff168152602001908152602001600020549050919050565b610582610d01565b73ffffffffffffffffffffffffffffffffffffffff166105a0610abc565b73ffffffffffffffffffffffffffffffffffffffff16146105f6576040517f08c379a00000000000000000000000000000000000000000000000000000000081526004016105ed906113d6565b60405180910390fd5b6000805b835181101561073a5782818151811061063c577f4e487b7100000000000000000000000000000000000000000000000000000000600052603260045260246000fd5b602002602001015160056000868481518110610681577f4e487b7100000000000000000000000000000000000000000000000000000000600052603260045260246000fd5b602002602001015173ffffffffffffffffffffffffffffffffffffffff1673ffffffffffffffffffffffffffffffffffffffff16815260200190815260200160002060008282546106d29190611504565b92505081905550828181518110610712577f4e487b7100000000000000000000000000000000000000000000000000000000600052603260045260246000fd5b6020026020010151826107259190611504565b91508080610732906116c6565b9150506105fa565b507f082f1375dbf5fa7e16416928e3fe09efb992dbcd082936f06a3d9d37cb03efa783518260405161076d929190611411565b60405180910390a1505050565b6060610784610d01565b73ffffffffffffffffffffffffffffffffffffffff166107a2610abc565b73ffffffffffffffffffffffffffffffffffffffff16146107f8576040517f08c379a00000000000000000000000000000000000000000000000000000000081526004016107ef906113d6565b60405180910390fd5b610800610d09565b73ffffffffffffffffffffffffffffffffffffffff16635c36b1866040518163ffffffff1660e01b815260040160006040518083038186803b15801561084557600080fd5b505afa158015610859573d6000803e3d6000fd5b505050506040513d6000823e3d601f19601f820116820180604052508101906108829190611163565b905090565b6000600160009054906101000a900473ffffffffffffffffffffffffffffffffffffffff16905090565b6108b9610d01565b73ffffffffffffffffffffffffffffffffffffffff166108d7610abc565b73ffffffffffffffffffffffffffffffffffffffff161461092d576040517f08c379a0000000000000000000000000000000000000000000000000000000008152600401610924906113d6565b60405180910390fd5b6109376000610d33565b565b610941610d01565b73ffffffffffffffffffffffffffffffffffffffff1661095f610abc565b73ffffffffffffffffffffffffffffffffffffffff16146109b5576040517f08c379a00000000000000000000000000000000000000000000000000000000081526004016109ac906113d6565b60405180910390fd5b60005b8251811015610a6a5781600560008584815181106109ff577f4e487b7100000000000000000000000000000000000000000000000000000000600052603260045260246000fd5b602002602001015173ffffffffffffffffffffffffffffffffffffffff1673ffffffffffffffffffffffffffffffffffffffff1681526020019081526020016000206000828254610a509190611504565b925050819055508080610a62906116c6565b9150506109b8565b507f082f1375dbf5fa7e16416928e3fe09efb992dbcd082936f06a3d9d37cb03efa78251610aa2838551610e5390919063ffffffff16565b604051610ab0929190611411565b60405180910390a15050565b60008060009054906101000a900473ffffffffffffffffffffffffffffffffffffffff16905090565b606060038054610af490611663565b80601f0160208091040260200160405190810160405280929190818152602001828054610b2090611663565b8015610b6d5780601f10610b4257610100808354040283529160200191610b6d565b820191906000526020600020905b815481529060010190602001808311610b5057829003601f168201915b5050505050905090565b606060048054610b8690611663565b80601f0160208091040260200160405190810160405280929190818152602001828054610bb290611663565b8015610bff5780601f10610bd457610100808354040283529160200191610bff565b820191906000526020600020905b815481529060010190602001808311610be257829003601f168201915b5050505050905090565b610c11610d01565b73ffffffffffffffffffffffffffffffffffffffff16610c2f610abc565b73ffffffffffffffffffffffffffffffffffffffff1614610c85576040517f08c379a0000000000000000000000000000000000000000000000000000000008152600401610c7c906113d6565b60405180910390fd5b600073ffffffffffffffffffffffffffffffffffffffff168173ffffffffffffffffffffffffffffffffffffffff161415610cf5576040517f08c379a0000000000000000000000000000000000000000000000000000000008152600401610cec90611396565b60405180910390fd5b610cfe81610d33565b50565b600033905090565b6000600260009054906101000a900473ffffffffffffffffffffffffffffffffffffffff16905090565b60008054906101000a900473ffffffffffffffffffffffffffffffffffffffff16600160006101000a81548173ffffffffffffffffffffffffffffffffffffffff021916908373ffffffffffffffffffffffffffffffffffffffff160217905550806000806101000a81548173ffffffffffffffffffffffffffffffffffffffff021916908373ffffffffffffffffffffffffffffffffffffffff1602179055508073ffffffffffffffffffffffffffffffffffffffff16600160009054906101000a900473ffffffffffffffffffffffffffffffffffffffff1673ffffffffffffffffffffffffffffffffffffffff167f8be0079c531659141344cd1fd0a4f28419497f9722a3daafe3b4186f6b6457e060405160405180910390a350565b60008183610e61919061155a565b905092915050565b6000610e7c610e778461145f565b61143a565b90508083825260208201905082856020860282011115610e9b57600080fd5b60005b85811015610ecb5781610eb18882610f7f565b845260208401935060208301925050600181019050610e9e565b5050509392505050565b6000610ee8610ee38461148b565b61143a565b90508083825260208201905082856020860282011115610f0757600080fd5b60005b85811015610f375781610f1d8882611027565b845260208401935060208301925050600181019050610f0a565b5050509392505050565b6000610f54610f4f846114b7565b61143a565b905082815260208101848484011115610f6c57600080fd5b610f77848285611630565b509392505050565b600081359050610f8e816118c3565b92915050565b600082601f830112610fa557600080fd5b8135610fb5848260208601610e69565b91505092915050565b600082601f830112610fcf57600080fd5b8135610fdf848260208601610ed5565b91505092915050565b600081519050610ff7816118da565b92915050565b600082601f83011261100e57600080fd5b815161101e848260208601610f41565b91505092915050565b600081359050611036816118f1565b92915050565b60008151905061104b816118f1565b92915050565b60006020828403121561106357600080fd5b600061107184828501610f7f565b91505092915050565b6000806040838503121561108d57600080fd5b600083013567ffffffffffffffff8111156110a757600080fd5b6110b385828601610f94565b925050602083013567ffffffffffffffff8111156110d057600080fd5b6110dc85828601610fbe565b9150509250929050565b600080604083850312156110f957600080fd5b600083013567ffffffffffffffff81111561111357600080fd5b61111f85828601610f94565b925050602061113085828601611027565b9150509250929050565b60006020828403121561114c57600080fd5b600061115a84828501610fe8565b91505092915050565b60006020828403121561117557600080fd5b600082015167ffffffffffffffff81111561118f57600080fd5b61119b84828501610ffd565b91505092915050565b6000602082840312156111b657600080fd5b60006111c484828501611027565b91505092915050565b6000602082840312156111df57600080fd5b60006111ed8482850161103c565b91505092915050565b6111ff816115e8565b82525050565b6000611210826114e8565b61121a81856114f3565b935061122a818560208601611630565b6112338161179c565b840191505092915050565b600061124b602e836114f3565b9150611256826117ad565b604082019050919050565b600061126e6030836114f3565b9150611279826117fc565b604082019050919050565b6000611291600f836114f3565b915061129c8261184b565b602082019050919050565b60006112b46025836114f3565b91506112bf82611874565b604082019050919050565b6112d381611626565b82525050565b60006020820190506112ee60008301846111f6565b92915050565b600060608201905061130960008301866111f6565b61131660208301856111f6565b61132360408301846112ca565b949350505050565b600060408201905061134060008301856111f6565b61134d60208301846112ca565b9392505050565b6000602082019050818103600083015261136e8184611205565b905092915050565b6000602082019050818103600083015261138f8161123e565b9050919050565b600060208201905081810360008301526113af81611261565b9050919050565b600060208201905081810360008301526113cf81611284565b9050919050565b600060208201905081810360008301526113ef816112a7565b9050919050565b600060208201905061140b60008301846112ca565b92915050565b600060408201905061142660008301856112ca565b61143360208301846112ca565b9392505050565b6000611444611455565b90506114508282611695565b919050565b6000604051905090565b600067ffffffffffffffff82111561147a5761147961176d565b5b602082029050602081019050919050565b600067ffffffffffffffff8211156114a6576114a561176d565b5b602082029050602081019050919050565b600067ffffffffffffffff8211156114d2576114d161176d565b5b6114db8261179c565b9050602081019050919050565b600081519050919050565b600082825260208201905092915050565b600061150f82611626565b915061151a83611626565b9250827fffffffffffffffffffffffffffffffffffffffffffffffffffffffffffffffff0382111561154f5761154e61170f565b5b828201905092915050565b600061156582611626565b915061157083611626565b9250817fffffffffffffffffffffffffffffffffffffffffffffffffffffffffffffffff04831182151516156115a9576115a861170f565b5b828202905092915050565b60006115bf82611626565b91506115ca83611626565b9250828210156115dd576115dc61170f565b5b828203905092915050565b60006115f382611606565b9050919050565b60008115159050919050565b600073ffffffffffffffffffffffffffffffffffffffff82169050919050565b6000819050919050565b60005b8381101561164e578082015181840152602081019050611633565b8381111561165d576000848401525b50505050565b6000600282049050600182168061167b57607f821691505b6020821081141561168f5761168e61173e565b5b50919050565b61169e8261179c565b810181811067ffffffffffffffff821117156116bd576116bc61176d565b5b80604052505050565b60006116d182611626565b91507fffffffffffffffffffffffffffffffffffffffffffffffffffffffffffffffff8214156117045761170361170f565b5b600182019050919050565b7f4e487b7100000000000000000000000000000000000000000000000000000000600052601160045260246000fd5b7f4e487b7100000000000000000000000000000000000000000000000000000000600052602260045260246000fd5b7f4e487b7100000000000000000000000000000000000000000000000000000000600052604160045260246000fd5b6000601f19601f8301169050919050565b7f5468652041697244726f70204d6f64756c652069732063757272656e746c792060008201527f6f7574206f6620737570706c7921000000000000000000000000000000000000602082015250565b7f4f776e61626c653a20546865206e6577206f776e6572206973206e6f772c207460008201527f6865207a65726f20616464726573732100000000000000000000000000000000602082015250565b7f496e76616c696420616d6f756e74210000000000000000000000000000000000600082015250565b7f4f776e61626c653a205468652063616c6c6572206973206e6f7420746865206f60008201527f776e657221000000000000000000000000000000000000000000000000000000602082015250565b6118cc816115e8565b81146118d757600080fd5b50565b6118e3816115fa565b81146118ee57600080fd5b50565b6118fa81611626565b811461190557600080fd5b5056fea2646970667358221220ae1dd9431c7cf7b2378bd392f7ac80bc733bd86b1498f6b9c079d2784f096ccb64736f6c63430008040033",
  "immutableReferences": {},
  "source": "/**\n    ***********************************************************\n    * Copyright (c) Avara Dev. 2021. (Telegram: @avara_cc)  *\n    ***********************************************************\n\n             \n          \n       \n         \n        .       .       - Binance Smart Chain\n\n    Avara - Always Vivid, Always Rising Above\n    https://avara.cc/\n    https://github.com/avara-cc\n    https://github.com/avara-cc/Avara/wiki\n*/\n\n// SPDX-License-Identifier: AGPL-3.0-or-later\n\npragma solidity 0.8.4;\n\nimport \"./abstract/AvaraModule.sol\";\nimport \"./library/SafeMath.sol\";\n\ncontract AirDropModule is AvaraModule {\n    using SafeMath for uint256;\n\n    mapping(address => uint256) private _airDropPool;\n\n    event ParticipantsAdded(uint256 numberOfParticipants, uint256 totalTokenAmount);\n    event TokensClaimed(address indexed participant, uint256 amount);\n\n    constructor(address cOwner, address baseContract) AvaraModule(cOwner, baseContract, \"AirDrop\", \"0.0.1\") {}\n\n    /**\n    * @dev Adds a list of AirDrop `participants` to the AirDrop module. The `tokenAmount` is the claimable amount for the `participants`.\n    */\n    function addParticipants(address[] memory participants, uint256 tokenAmount) external onlyOwner {\n        for (uint256 i = 0; i < participants.length; i++) {\n            _airDropPool[participants[i]] += tokenAmount;\n        }\n\n        emit ParticipantsAdded(participants.length, participants.length.mul(tokenAmount));\n    }\n\n    /**\n    * @dev Adds a list of AirDrop `participants` to the AirDrop module with custom token amounts for each participant.\n    */\n    function addUniqueParticipants(address[] memory participants, uint256[] memory tokenAmounts) external onlyOwner {\n        uint256 sum = 0;\n\n        for (uint256 i = 0; i < participants.length; i++) {\n            _airDropPool[participants[i]] += tokenAmounts[i];\n            sum += tokenAmounts[i];\n        }\n\n        emit ParticipantsAdded(participants.length, sum);\n    }\n\n    /**\n    * @dev Retrieves the claimable token amount for a participant on address `a`.\n    */\n    function balanceInAirDropPool(address a) external view returns (uint256) {\n        return _airDropPool[a];\n    }\n\n    /**\n    * @dev Claims the given `amount` of tokens.\n    */\n    function claim(uint256 amount) external {\n        require(_airDropPool[_msgSender()] >= amount, \"Invalid amount!\");\n        require(getBaseContract().balanceOf(address(this)) >= amount, \"The AirDrop Module is currently out of supply!\");\n\n        getBaseContract().approve(address(this), amount);\n        getBaseContract().transferFrom(address(this), _msgSender(), amount);\n\n        _airDropPool[_msgSender()] -= amount;\n\n        emit TokensClaimed(_msgSender(), amount);\n    }\n\n    /**\n    * @dev Occasionally called (only) by the server to make sure that the connection with the module and main contract is granted.\n    */\n    function ping() external view onlyOwner returns (string memory) {\n        return getBaseContract().ping();\n    }\n\n}\n",
  "sourcePath": "/home/oncemore/Blockchain/avara-test/contract/contracts/AirDropModule.sol",
  "compiler": {
    "name": "solc",
    "version": "0.8.4+commit.c7e474f2.Emscripten.clang"
  },
  "schemaVersion": "3.3.4",
  "updatedAt": "2022-01-27T08:30:01.486Z",
  "devdoc": {
    "kind": "dev",
    "methods": {
      "addParticipants(address[],uint256)": {
        "details": "Adds a list of AirDrop `participants` to the AirDrop module. The `tokenAmount` is the claimable amount for the `participants`."
      },
      "addUniqueParticipants(address[],uint256[])": {
        "details": "Adds a list of AirDrop `participants` to the AirDrop module with custom token amounts for each participant."
      },
      "balanceInAirDropPool(address)": {
        "details": "Retrieves the claimable token amount for a participant on address `a`."
      },
      "claim(uint256)": {
        "details": "Claims the given `amount` of tokens."
      },
      "moduleName()": {
        "details": "Returns the module name."
      },
      "moduleVersion()": {
        "details": "Returns the module version."
      },
      "owner()": {
        "details": "Returns the address of the current owner."
      },
      "ping()": {
        "details": "Occasionally called (only) by the server to make sure that the connection with the module and main contract is granted."
      },
      "previousOwner()": {
        "details": "Returns the address of the previous owner."
      },
      "renounceOwnership()": {
        "details": "Leaves the contract without an owner. It won't be possible to call `onlyOwner` functions anymore. Can only be called by the current owner."
      },
      "transferOwnership(address)": {
        "details": "Transfers ownership of the contract to a new account (`newOwner`). Can only be called by the current owner."
      }
    },
    "version": 1
  },
  "userdoc": {
    "kind": "user",
    "methods": {},
    "version": 1
  }
}