{
  "contractName": "Avara",
  "abi": [
    {
      "inputs": [
        {
          "internalType": "address",
          "name": "cOwner",
          "type": "address"
        },
        {
          "internalType": "address",
          "name": "devWallet",
          "type": "address"
        },
        {
          "internalType": "address",
          "name": "playerPoolWallet",
          "type": "address"
        }
      ],
      "stateMutability": "nonpayable",
      "type": "constructor"
    },
    {
      "anonymous": false,
      "inputs": [
        {
          "indexed": true,
          "internalType": "address",
          "name": "owner",
          "type": "address"
        },
        {
          "indexed": true,
          "internalType": "address",
          "name": "spender",
          "type": "address"
        },
        {
          "indexed": false,
          "internalType": "uint256",
          "name": "value",
          "type": "uint256"
        }
      ],
      "name": "Approval",
      "type": "event"
    },
    {
      "anonymous": false,
      "inputs": [
        {
          "indexed": false,
          "internalType": "uint256",
          "name": "oldFee",
          "type": "uint256"
        },
        {
          "indexed": false,
          "internalType": "uint256",
          "name": "newFee",
          "type": "uint256"
        }
      ],
      "name": "BitDuelServiceFeeChanged",
      "type": "event"
    },
    {
      "anonymous": false,
      "inputs": [
        {
          "indexed": false,
          "internalType": "address",
          "name": "oldAddress",
          "type": "address"
        },
        {
          "indexed": false,
          "internalType": "address",
          "name": "newAddress",
          "type": "address"
        }
      ],
      "name": "DevWalletChanged",
      "type": "event"
    },
    {
      "anonymous": false,
      "inputs": [
        {
          "indexed": false,
          "internalType": "uint256",
          "name": "oldFee",
          "type": "uint256"
        },
        {
          "indexed": false,
          "internalType": "uint256",
          "name": "newFee",
          "type": "uint256"
        }
      ],
      "name": "DeveloperFeeChanged",
      "type": "event"
    },
    {
      "anonymous": false,
      "inputs": [
        {
          "indexed": false,
          "internalType": "uint256",
          "name": "oldFee",
          "type": "uint256"
        },
        {
          "indexed": false,
          "internalType": "uint256",
          "name": "newFee",
          "type": "uint256"
        }
      ],
      "name": "EventFeeChanged",
      "type": "event"
    },
    {
      "anonymous": false,
      "inputs": [
        {
          "indexed": false,
          "internalType": "address",
          "name": "sender",
          "type": "address"
        },
        {
          "indexed": false,
          "internalType": "uint256",
          "name": "value",
          "type": "uint256"
        }
      ],
      "name": "FallBack",
      "type": "event"
    },
    {
      "anonymous": false,
      "inputs": [
        {
          "indexed": false,
          "internalType": "uint256",
          "name": "oldFee",
          "type": "uint256"
        },
        {
          "indexed": false,
          "internalType": "uint256",
          "name": "newFee",
          "type": "uint256"
        }
      ],
      "name": "MarketingFeeChanged",
      "type": "event"
    },
    {
      "anonymous": false,
      "inputs": [
        {
          "indexed": false,
          "internalType": "uint256",
          "name": "oldAmount",
          "type": "uint256"
        },
        {
          "indexed": false,
          "internalType": "uint256",
          "name": "newAmount",
          "type": "uint256"
        }
      ],
      "name": "MaxTransactionAmountChanged",
      "type": "event"
    },
    {
      "anonymous": false,
      "inputs": [
        {
          "indexed": false,
          "internalType": "address",
          "name": "moduleAddress",
          "type": "address"
        },
        {
          "indexed": false,
          "internalType": "string",
          "name": "moduleName",
          "type": "string"
        },
        {
          "indexed": false,
          "internalType": "string",
          "name": "moduleVersion",
          "type": "string"
        }
      ],
      "name": "ModuleAdded",
      "type": "event"
    },
    {
      "anonymous": false,
      "inputs": [
        {
          "indexed": false,
          "internalType": "string",
          "name": "moduleName",
          "type": "string"
        }
      ],
      "name": "ModuleRemoved",
      "type": "event"
    },
    {
      "anonymous": false,
      "inputs": [
        {
          "indexed": true,
          "internalType": "address",
          "name": "previousOwner",
          "type": "address"
        },
        {
          "indexed": true,
          "internalType": "address",
          "name": "newOwner",
          "type": "address"
        }
      ],
      "name": "OwnershipTransferred",
      "type": "event"
    },
    {
      "anonymous": false,
      "inputs": [
        {
          "indexed": false,
          "internalType": "address",
          "name": "oldAddress",
          "type": "address"
        },
        {
          "indexed": false,
          "internalType": "address",
          "name": "newAddress",
          "type": "address"
        }
      ],
      "name": "PancakePairChanged",
      "type": "event"
    },
    {
      "anonymous": false,
      "inputs": [
        {
          "indexed": false,
          "internalType": "address",
          "name": "oldAddress",
          "type": "address"
        },
        {
          "indexed": false,
          "internalType": "address",
          "name": "newAddress",
          "type": "address"
        }
      ],
      "name": "PancakeRouterChanged",
      "type": "event"
    },
    {
      "anonymous": false,
      "inputs": [
        {
          "indexed": false,
          "internalType": "address",
          "name": "oldAddress",
          "type": "address"
        },
        {
          "indexed": false,
          "internalType": "address",
          "name": "newAddress",
          "type": "address"
        }
      ],
      "name": "PlayerPoolChanged",
      "type": "event"
    },
    {
      "anonymous": false,
      "inputs": [
        {
          "indexed": false,
          "internalType": "address",
          "name": "sender",
          "type": "address"
        },
        {
          "indexed": false,
          "internalType": "uint256",
          "name": "value",
          "type": "uint256"
        }
      ],
      "name": "Received",
      "type": "event"
    },
    {
      "anonymous": false,
      "inputs": [
        {
          "indexed": true,
          "internalType": "address",
          "name": "from",
          "type": "address"
        },
        {
          "indexed": true,
          "internalType": "address",
          "name": "to",
          "type": "address"
        },
        {
          "indexed": false,
          "internalType": "uint256",
          "name": "value",
          "type": "uint256"
        }
      ],
      "name": "Transfer",
      "type": "event"
    },
    {
      "stateMutability": "payable",
      "type": "fallback"
    },
    {
      "inputs": [],
      "name": "_bitDuelServiceFee",
      "outputs": [
        {
          "internalType": "uint256",
          "name": "",
          "type": "uint256"
        }
      ],
      "stateMutability": "view",
      "type": "function"
    },
    {
      "inputs": [],
      "name": "_devWallet",
      "outputs": [
        {
          "internalType": "address",
          "name": "",
          "type": "address"
        }
      ],
      "stateMutability": "view",
      "type": "function"
    },
    {
      "inputs": [],
      "name": "_developerFee",
      "outputs": [
        {
          "internalType": "uint256",
          "name": "",
          "type": "uint256"
        }
      ],
      "stateMutability": "view",
      "type": "function"
    },
    {
      "inputs": [],
      "name": "_eventFee",
      "outputs": [
        {
          "internalType": "uint256",
          "name": "",
          "type": "uint256"
        }
      ],
      "stateMutability": "view",
      "type": "function"
    },
    {
      "inputs": [],
      "name": "_marketingFee",
      "outputs": [
        {
          "internalType": "uint256",
          "name": "",
          "type": "uint256"
        }
      ],
      "stateMutability": "view",
      "type": "function"
    },
    {
      "inputs": [],
      "name": "_maxTxAmount",
      "outputs": [
        {
          "internalType": "uint256",
          "name": "",
          "type": "uint256"
        }
      ],
      "stateMutability": "view",
      "type": "function"
    },
    {
      "inputs": [],
      "name": "_pancakeSwapV2Pair",
      "outputs": [
        {
          "internalType": "address",
          "name": "",
          "type": "address"
        }
      ],
      "stateMutability": "view",
      "type": "function"
    },
    {
      "inputs": [],
      "name": "_pancakeSwapV2Router",
      "outputs": [
        {
          "internalType": "contract IPancakeRouter02",
          "name": "",
          "type": "address"
        }
      ],
      "stateMutability": "view",
      "type": "function"
    },
    {
      "inputs": [],
      "name": "_playerPoolWallet",
      "outputs": [
        {
          "internalType": "address",
          "name": "",
          "type": "address"
        }
      ],
      "stateMutability": "view",
      "type": "function"
    },
    {
      "inputs": [],
      "name": "owner",
      "outputs": [
        {
          "internalType": "address",
          "name": "",
          "type": "address"
        }
      ],
      "stateMutability": "view",
      "type": "function"
    },
    {
      "inputs": [],
      "name": "previousOwner",
      "outputs": [
        {
          "internalType": "address",
          "name": "",
          "type": "address"
        }
      ],
      "stateMutability": "view",
      "type": "function"
    },
    {
      "inputs": [],
      "name": "renounceOwnership",
      "outputs": [],
      "stateMutability": "nonpayable",
      "type": "function"
    },
    {
      "inputs": [
        {
          "internalType": "address",
          "name": "newOwner",
          "type": "address"
        }
      ],
      "name": "transferOwnership",
      "outputs": [],
      "stateMutability": "nonpayable",
      "type": "function"
    },
    {
      "stateMutability": "payable",
      "type": "receive"
    },
    {
      "inputs": [
        {
          "internalType": "string",
          "name": "moduleName",
          "type": "string"
        },
        {
          "internalType": "string",
          "name": "moduleVersion",
          "type": "string"
        },
        {
          "internalType": "address",
          "name": "moduleAddress",
          "type": "address"
        }
      ],
      "name": "addModule",
      "outputs": [],
      "stateMutability": "nonpayable",
      "type": "function"
    },
    {
      "inputs": [
        {
          "internalType": "string",
          "name": "moduleName",
          "type": "string"
        }
      ],
      "name": "removeModule",
      "outputs": [],
      "stateMutability": "nonpayable",
      "type": "function"
    },
    {
      "inputs": [
        {
          "internalType": "string",
          "name": "moduleName",
          "type": "string"
        }
      ],
      "name": "getModule",
      "outputs": [
        {
          "internalType": "bool",
          "name": "",
          "type": "bool"
        },
        {
          "components": [
            {
              "internalType": "string",
              "name": "moduleName",
              "type": "string"
            },
            {
              "internalType": "string",
              "name": "moduleVersion",
              "type": "string"
            },
            {
              "internalType": "address",
              "name": "moduleAddress",
              "type": "address"
            }
          ],
          "internalType": "struct Avara.Module",
          "name": "",
          "type": "tuple"
        }
      ],
      "stateMutability": "view",
      "type": "function"
    },
    {
      "inputs": [],
      "name": "ping",
      "outputs": [
        {
          "internalType": "string",
          "name": "",
          "type": "string"
        }
      ],
      "stateMutability": "view",
      "type": "function"
    },
    {
      "inputs": [
        {
          "internalType": "uint256",
          "name": "amount",
          "type": "uint256"
        }
      ],
      "name": "withdraw",
      "outputs": [],
      "stateMutability": "nonpayable",
      "type": "function"
    },
    {
      "inputs": [
        {
          "internalType": "address",
          "name": "playerAddress",
          "type": "address"
        }
      ],
      "name": "balanceInPlayerPool",
      "outputs": [
        {
          "internalType": "uint256",
          "name": "",
          "type": "uint256"
        }
      ],
      "stateMutability": "view",
      "type": "function"
    },
    {
      "inputs": [
        {
          "internalType": "address",
          "name": "playerAddress",
          "type": "address"
        },
        {
          "internalType": "uint256",
          "name": "balance",
          "type": "uint256"
        }
      ],
      "name": "setPlayerBalance",
      "outputs": [],
      "stateMutability": "nonpayable",
      "type": "function"
    },
    {
      "inputs": [
        {
          "internalType": "uint256",
          "name": "tAmount",
          "type": "uint256"
        },
        {
          "internalType": "bool",
          "name": "deductTransferFee",
          "type": "bool"
        }
      ],
      "name": "rewardFromToken",
      "outputs": [
        {
          "internalType": "uint256",
          "name": "",
          "type": "uint256"
        }
      ],
      "stateMutability": "view",
      "type": "function"
    },
    {
      "inputs": [
        {
          "internalType": "uint256",
          "name": "rAmount",
          "type": "uint256"
        }
      ],
      "name": "tokenFromReward",
      "outputs": [
        {
          "internalType": "uint256",
          "name": "",
          "type": "uint256"
        }
      ],
      "stateMutability": "view",
      "type": "function"
    },
    {
      "inputs": [
        {
          "internalType": "address",
          "name": "account",
          "type": "address"
        }
      ],
      "name": "excludeFromReward",
      "outputs": [],
      "stateMutability": "nonpayable",
      "type": "function"
    },
    {
      "inputs": [
        {
          "internalType": "address",
          "name": "account",
          "type": "address"
        }
      ],
      "name": "includeInReward",
      "outputs": [],
      "stateMutability": "nonpayable",
      "type": "function"
    },
    {
      "inputs": [],
      "name": "totalFees",
      "outputs": [
        {
          "internalType": "uint256",
          "name": "",
          "type": "uint256"
        }
      ],
      "stateMutability": "view",
      "type": "function"
    },
    {
      "inputs": [],
      "name": "totalMarketingFees",
      "outputs": [
        {
          "internalType": "uint256",
          "name": "",
          "type": "uint256"
        }
      ],
      "stateMutability": "view",
      "type": "function"
    },
    {
      "inputs": [],
      "name": "totalEventFees",
      "outputs": [
        {
          "internalType": "uint256",
          "name": "",
          "type": "uint256"
        }
      ],
      "stateMutability": "view",
      "type": "function"
    },
    {
      "inputs": [],
      "name": "totalDevelopmentFees",
      "outputs": [
        {
          "internalType": "uint256",
          "name": "",
          "type": "uint256"
        }
      ],
      "stateMutability": "view",
      "type": "function"
    },
    {
      "inputs": [],
      "name": "totalBitDuelServiceFees",
      "outputs": [
        {
          "internalType": "uint256",
          "name": "",
          "type": "uint256"
        }
      ],
      "stateMutability": "view",
      "type": "function"
    },
    {
      "inputs": [
        {
          "internalType": "address",
          "name": "account",
          "type": "address"
        }
      ],
      "name": "excludeFromFee",
      "outputs": [],
      "stateMutability": "nonpayable",
      "type": "function"
    },
    {
      "inputs": [
        {
          "internalType": "address",
          "name": "account",
          "type": "address"
        }
      ],
      "name": "includeInFee",
      "outputs": [],
      "stateMutability": "nonpayable",
      "type": "function"
    },
    {
      "inputs": [
        {
          "internalType": "address",
          "name": "devWallet",
          "type": "address"
        }
      ],
      "name": "setDevWallet",
      "outputs": [],
      "stateMutability": "nonpayable",
      "type": "function"
    },
    {
      "inputs": [
        {
          "internalType": "address",
          "name": "playerPoolWallet",
          "type": "address"
        }
      ],
      "name": "setPlayerPoolWallet",
      "outputs": [],
      "stateMutability": "nonpayable",
      "type": "function"
    },
    {
      "inputs": [
        {
          "internalType": "uint256",
          "name": "marketingFee",
          "type": "uint256"
        }
      ],
      "name": "setMarketingFeePercent",
      "outputs": [],
      "stateMutability": "nonpayable",
      "type": "function"
    },
    {
      "inputs": [
        {
          "internalType": "uint256",
          "name": "developerFee",
          "type": "uint256"
        }
      ],
      "name": "setDeveloperFeePercent",
      "outputs": [],
      "stateMutability": "nonpayable",
      "type": "function"
    },
    {
      "inputs": [
        {
          "internalType": "uint256",
          "name": "bitDuelServiceFee",
          "type": "uint256"
        }
      ],
      "name": "setBitDuelServiceFeePercent",
      "outputs": [],
      "stateMutability": "nonpayable",
      "type": "function"
    },
    {
      "inputs": [
        {
          "internalType": "uint256",
          "name": "eventFee",
          "type": "uint256"
        }
      ],
      "name": "setEventFeePercent",
      "outputs": [],
      "stateMutability": "nonpayable",
      "type": "function"
    },
    {
      "inputs": [
        {
          "internalType": "uint256",
          "name": "maxTxPercent",
          "type": "uint256"
        }
      ],
      "name": "setMaxTxPercent",
      "outputs": [],
      "stateMutability": "nonpayable",
      "type": "function"
    },
    {
      "inputs": [
        {
          "internalType": "address",
          "name": "account",
          "type": "address"
        }
      ],
      "name": "isExcludedFromFee",
      "outputs": [
        {
          "internalType": "bool",
          "name": "",
          "type": "bool"
        }
      ],
      "stateMutability": "view",
      "type": "function"
    },
    {
      "inputs": [
        {
          "internalType": "address",
          "name": "account",
          "type": "address"
        }
      ],
      "name": "isExcludedFromReward",
      "outputs": [
        {
          "internalType": "bool",
          "name": "",
          "type": "bool"
        }
      ],
      "stateMutability": "view",
      "type": "function"
    },
    {
      "inputs": [
        {
          "internalType": "address",
          "name": "r",
          "type": "address"
        }
      ],
      "name": "setPancakeSwapRouter",
      "outputs": [],
      "stateMutability": "nonpayable",
      "type": "function"
    },
    {
      "inputs": [
        {
          "internalType": "address",
          "name": "p",
          "type": "address"
        }
      ],
      "name": "setPancakeSwapPair",
      "outputs": [],
      "stateMutability": "nonpayable",
      "type": "function"
    },
    {
      "inputs": [],
      "name": "totalSupply",
      "outputs": [
        {
          "internalType": "uint256",
          "name": "",
          "type": "uint256"
        }
      ],
      "stateMutability": "pure",
      "type": "function"
    },
    {
      "inputs": [],
      "name": "decimals",
      "outputs": [
        {
          "internalType": "uint8",
          "name": "",
          "type": "uint8"
        }
      ],
      "stateMutability": "pure",
      "type": "function"
    },
    {
      "inputs": [],
      "name": "symbol",
      "outputs": [
        {
          "internalType": "string",
          "name": "",
          "type": "string"
        }
      ],
      "stateMutability": "pure",
      "type": "function"
    },
    {
      "inputs": [],
      "name": "name",
      "outputs": [
        {
          "internalType": "string",
          "name": "",
          "type": "string"
        }
      ],
      "stateMutability": "pure",
      "type": "function"
    },
    {
      "inputs": [],
      "name": "getOwner",
      "outputs": [
        {
          "internalType": "address",
          "name": "",
          "type": "address"
        }
      ],
      "stateMutability": "view",
      "type": "function"
    },
    {
      "inputs": [
        {
          "internalType": "address",
          "name": "account",
          "type": "address"
        }
      ],
      "name": "balanceOf",
      "outputs": [
        {
          "internalType": "uint256",
          "name": "",
          "type": "uint256"
        }
      ],
      "stateMutability": "view",
      "type": "function"
    },
    {
      "inputs": [
        {
          "internalType": "address",
          "name": "recipient",
          "type": "address"
        },
        {
          "internalType": "uint256",
          "name": "amount",
          "type": "uint256"
        }
      ],
      "name": "transfer",
      "outputs": [
        {
          "internalType": "bool",
          "name": "",
          "type": "bool"
        }
      ],
      "stateMutability": "nonpayable",
      "type": "function"
    },
    {
      "inputs": [
        {
          "internalType": "address",
          "name": "owner",
          "type": "address"
        },
        {
          "internalType": "address",
          "name": "spender",
          "type": "address"
        }
      ],
      "name": "allowance",
      "outputs": [
        {
          "internalType": "uint256",
          "name": "",
          "type": "uint256"
        }
      ],
      "stateMutability": "view",
      "type": "function"
    },
    {
      "inputs": [
        {
          "internalType": "address",
          "name": "spender",
          "type": "address"
        },
        {
          "internalType": "uint256",
          "name": "amount",
          "type": "uint256"
        }
      ],
      "name": "approve",
      "outputs": [
        {
          "internalType": "bool",
          "name": "",
          "type": "bool"
        }
      ],
      "stateMutability": "nonpayable",
      "type": "function"
    },
    {
      "inputs": [
        {
          "internalType": "address",
          "name": "sender",
          "type": "address"
        },
        {
          "internalType": "address",
          "name": "recipient",
          "type": "address"
        },
        {
          "internalType": "uint256",
          "name": "amount",
          "type": "uint256"
        }
      ],
      "name": "transferFrom",
      "outputs": [
        {
          "internalType": "bool",
          "name": "",
          "type": "bool"
        }
      ],
      "stateMutability": "nonpayable",
      "type": "function"
    }
  ],
  "bytecode": "0x6080604052600960ff16600a620000179190620005f5565b631dcd650062000028919062000732565b6000196200003791906200080c565b60001962000046919062000793565b600e5560c8600f5561019060105561019060115560c8601255600960ff16600a620000729190620005f5565b630ee6b28062000083919062000732565b6013553480156200009357600080fd5b506040516200739b3803806200739b8339818101604052810190620000b9919062000516565b82620000cb81620003b660201b60201c565b5081600860006101000a81548173ffffffffffffffffffffffffffffffffffffffff021916908373ffffffffffffffffffffffffffffffffffffffff16021790555080601560006101000a81548173ffffffffffffffffffffffffffffffffffffffff021916908373ffffffffffffffffffffffffffffffffffffffff160217905550600e54600260008573ffffffffffffffffffffffffffffffffffffffff1673ffffffffffffffffffffffffffffffffffffffff168152602001908152602001600020819055507310ed43c718714eb63d5aa57b78b54704e256024e601660006101000a81548173ffffffffffffffffffffffffffffffffffffffff021916908373ffffffffffffffffffffffffffffffffffffffff160217905550600160046000620001ff620004d660201b60201c565b73ffffffffffffffffffffffffffffffffffffffff1673ffffffffffffffffffffffffffffffffffffffff16815260200190815260200160002060006101000a81548160ff0219169083151502179055506001600460003073ffffffffffffffffffffffffffffffffffffffff1673ffffffffffffffffffffffffffffffffffffffff16815260200190815260200160002060006101000a81548160ff021916908315150217905550600160046000600860009054906101000a900473ffffffffffffffffffffffffffffffffffffffff1673ffffffffffffffffffffffffffffffffffffffff1673ffffffffffffffffffffffffffffffffffffffff16815260200190815260200160002060006101000a81548160ff0219169083151502179055508273ffffffffffffffffffffffffffffffffffffffff16600073ffffffffffffffffffffffffffffffffffffffff167fddf252ad1be2c89b69c2b068fc378daa952ba7f163c4a11628f55a4df523b3ef600960ff16600a620003859190620005f5565b631dcd650062000396919062000732565b604051620003a591906200057d565b60405180910390a3505050620008c9565b60008054906101000a900473ffffffffffffffffffffffffffffffffffffffff16600160006101000a81548173ffffffffffffffffffffffffffffffffffffffff021916908373ffffffffffffffffffffffffffffffffffffffff160217905550806000806101000a81548173ffffffffffffffffffffffffffffffffffffffff021916908373ffffffffffffffffffffffffffffffffffffffff1602179055508073ffffffffffffffffffffffffffffffffffffffff16600160009054906101000a900473ffffffffffffffffffffffffffffffffffffffff1673ffffffffffffffffffffffffffffffffffffffff167f8be0079c531659141344cd1fd0a4f28419497f9722a3daafe3b4186f6b6457e060405160405180910390a350565b60008060009054906101000a900473ffffffffffffffffffffffffffffffffffffffff16905090565b6000815190506200051081620008af565b92915050565b6000806000606084860312156200052c57600080fd5b60006200053c86828701620004ff565b93505060206200054f86828701620004ff565b92505060406200056286828701620004ff565b9150509250925092565b620005778162000802565b82525050565b60006020820190506200059460008301846200056c565b92915050565b6000808291508390505b6001851115620005ec57808604811115620005c457620005c362000844565b5b6001851615620005d45780820291505b8081029050620005e485620008a2565b9450620005a4565b94509492505050565b6000620006028262000802565b91506200060f8362000802565b92506200063e7fffffffffffffffffffffffffffffffffffffffffffffffffffffffffffffffff848462000646565b905092915050565b6000826200065857600190506200072b565b816200066857600090506200072b565b81600181146200068157600281146200068c57620006c2565b60019150506200072b565b60ff841115620006a157620006a062000844565b5b8360020a915084821115620006bb57620006ba62000844565b5b506200072b565b5060208310610133831016604e8410600b8410161715620006fc5782820a905083811115620006f657620006f562000844565b5b6200072b565b6200070b84848460016200059a565b9250905081840481111562000725576200072462000844565b5b81810290505b9392505050565b60006200073f8262000802565b91506200074c8362000802565b9250817fffffffffffffffffffffffffffffffffffffffffffffffffffffffffffffffff048311821515161562000788576200078762000844565b5b828202905092915050565b6000620007a08262000802565b9150620007ad8362000802565b925082821015620007c357620007c262000844565b5b828203905092915050565b6000620007db82620007e2565b9050919050565b600073ffffffffffffffffffffffffffffffffffffffff82169050919050565b6000819050919050565b6000620008198262000802565b9150620008268362000802565b92508262000839576200083862000873565b5b828206905092915050565b7f4e487b7100000000000000000000000000000000000000000000000000000000600052601160045260246000fd5b7f4e487b7100000000000000000000000000000000000000000000000000000000600052601260045260246000fd5b60008160011c9050919050565b620008ba81620007ce565b8114620008c657600080fd5b50565b616ac280620008d96000396000f3fe6080604052600436106103035760003560e01c80635de5cd521161019057806395d89b41116100dc578063d7e33f4711610095578063defa36881161006f578063defa368814610c23578063ea2f0b3714610c4c578063f2fde38b14610c75578063fbb4ebde14610c9e57610343565b8063d7e33f4714610b7e578063d84bf7a814610bbb578063dd62ed3e14610be657610343565b806395d89b4114610a6e578063a06655a614610a99578063a2344c2514610ac2578063a52dd94f14610aed578063a9059cbb14610b18578063d543dbeb14610b5557610343565b8063715018a61161014957806388f820201161012357806388f820201461099e578063893d20e8146109db5780638da5cb5b14610a065780639413710b14610a3157610343565b8063715018a6146109335780637d1db4a51461094a5780637d82a62b1461097557610343565b80635de5cd52146108115780635e9556ab1461083a578063615c503714610863578063674f220f1461088e5780636e31c102146108b957806370a08231146108f657610343565b8063313ce5671161024f578063459baf4c1161020857806352390c02116101e257806352390c02146107575780635342acb41461078057806353e881cc146107bd5780635c36b186146107e657610343565b8063459baf4c146106d857806348de478e146107035780634dd9584a1461072e57610343565b8063313ce567146105de5780633685d41914610609578063398e019e14610632578063437823ec1461065d578063449ee1a514610686578063457c194c146106af57610343565b806316f0d29b116102bc57806322976e0d1161029657806322976e0d1461052257806323b872dd1461054d578063253a03651461058a5780632e1a7d4d146105b557610343565b806316f0d29b146104a357806318160ddd146104ce5780631f53ac02146104f957610343565b806306fdde031461037e57806308f523d8146103a9578063095ea7b3146103e757806311a63e171461042457806312a8a90b1461044f57806313114a9d1461047857610343565b36610343577f88a5966d370b9919b20f3e2c13ff65706f196a4e32cc2c12bf57088f885258743334604051610339929190615dfc565b60405180910390a1005b7fca05954aeae2f3bba2160ceec44aac8ab9a64174c48450980d312c90198979483334604051610374929190615dfc565b60405180910390a1005b34801561038a57600080fd5b50610393610cc9565b6040516103a09190615e8b565b60405180910390f35b3480156103b557600080fd5b506103d060048036038101906103cb9190615863565b610d06565b6040516103de929190615e40565b60405180910390f35b3480156103f357600080fd5b5061040e60048036038101906104099190615827565b610fbc565b60405161041b9190615e25565b60405180910390f35b34801561043057600080fd5b50610439610fda565b6040516104469190615d73565b60405180910390f35b34801561045b57600080fd5b5061047660048036038101906104719190615773565b611000565b005b34801561048457600080fd5b5061048d611143565b60405161049a919061606d565b60405180910390f35b3480156104af57600080fd5b506104b861114d565b6040516104c59190615d73565b60405180910390f35b3480156104da57600080fd5b506104e3611173565b6040516104f0919061606d565b60405180910390f35b34801561050557600080fd5b50610520600480360381019061051b9190615773565b61119a565b005b34801561052e57600080fd5b506105376113af565b604051610544919061606d565b60405180910390f35b34801561055957600080fd5b50610574600480360381019061056f91906157d8565b6113b5565b6040516105819190615e25565b60405180910390f35b34801561059657600080fd5b5061059f61148f565b6040516105ac919061606d565b60405180910390f35b3480156105c157600080fd5b506105dc60048036038101906105d79190615923565b611495565b005b3480156105ea57600080fd5b506105f36115b3565b60405161060091906160b1565b60405180910390f35b34801561061557600080fd5b50610630600480360381019061062b9190615773565b6115bc565b005b34801561063e57600080fd5b5061064761198a565b604051610654919061606d565b60405180910390f35b34801561066957600080fd5b50610684600480360381019061067f9190615773565b611994565b005b34801561069257600080fd5b506106ad60048036038101906106a89190615923565b611a6b565b005b3480156106bb57600080fd5b506106d660048036038101906106d19190615923565b611b34565b005b3480156106e457600080fd5b506106ed611bfd565b6040516106fa919061606d565b60405180910390f35b34801561070f57600080fd5b50610718611c07565b604051610725919061606d565b60405180910390f35b34801561073a57600080fd5b5061075560048036038101906107509190615773565b611c0d565b005b34801561076357600080fd5b5061077e60048036038101906107799190615773565b611d56565b005b34801561078c57600080fd5b506107a760048036038101906107a29190615773565b611ff1565b6040516107b49190615e25565b60405180910390f35b3480156107c957600080fd5b506107e460048036038101906107df9190615863565b612047565b005b3480156107f257600080fd5b506107fb61245d565b6040516108089190615e8b565b60405180910390f35b34801561081d57600080fd5b5061083860048036038101906108339190615923565b6125ef565b005b34801561084657600080fd5b50610861600480360381019061085c9190615827565b6126b8565b005b34801561086f57600080fd5b50610878612855565b604051610885919061606d565b60405180910390f35b34801561089a57600080fd5b506108a361285b565b6040516108b09190615d73565b60405180910390f35b3480156108c557600080fd5b506108e060048036038101906108db9190615773565b612885565b6040516108ed919061606d565b60405180910390f35b34801561090257600080fd5b5061091d60048036038101906109189190615773565b6128ce565b60405161092a919061606d565b60405180910390f35b34801561093f57600080fd5b506109486129b9565b005b34801561095657600080fd5b5061095f612a41565b60405161096c919061606d565b60405180910390f35b34801561098157600080fd5b5061099c60048036038101906109979190615923565b612a47565b005b3480156109aa57600080fd5b506109c560048036038101906109c09190615773565b612b10565b6040516109d29190615e25565b60405180910390f35b3480156109e757600080fd5b506109f0612b66565b6040516109fd9190615d73565b60405180910390f35b348015610a1257600080fd5b50610a1b612b75565b604051610a289190615d73565b60405180910390f35b348015610a3d57600080fd5b50610a586004803603810190610a539190615923565b612b9e565b604051610a65919061606d565b60405180910390f35b348015610a7a57600080fd5b50610a83612c0c565b604051610a909190615e8b565b60405180910390f35b348015610aa557600080fd5b50610ac06004803603810190610abb9190615773565b612c49565b005b348015610ace57600080fd5b50610ad7612d8c565b604051610ae49190615e70565b60405180910390f35b348015610af957600080fd5b50610b02612db2565b604051610b0f919061606d565b60405180910390f35b348015610b2457600080fd5b50610b3f6004803603810190610b3a9190615827565b612dbc565b604051610b4c9190615e25565b60405180910390f35b348015610b6157600080fd5b50610b7c6004803603810190610b779190615923565b612ea5565b005b348015610b8a57600080fd5b50610ba56004803603810190610ba0919061594c565b612fb2565b604051610bb2919061606d565b60405180910390f35b348015610bc757600080fd5b50610bd061308f565b604051610bdd919061606d565b60405180910390f35b348015610bf257600080fd5b50610c0d6004803603810190610c08919061579c565b613099565b604051610c1a919061606d565b60405180910390f35b348015610c2f57600080fd5b50610c4a6004803603810190610c4591906158a4565b613120565b005b348015610c5857600080fd5b50610c736004803603810190610c6e9190615773565b61347a565b005b348015610c8157600080fd5b50610c9c6004803603810190610c979190615773565b613551565b005b348015610caa57600080fd5b50610cb3613649565b604051610cc09190615d73565b60405180910390f35b60606040518060400160405280600581526020017f4156415241000000000000000000000000000000000000000000000000000000815250905090565b6000610d106154c0565b610d186154c0565b6000805b601880549050811015610fae5785604051602001610d3a9190615d45565b6040516020818303038152906040528051906020012060188281548110610d8a577f4e487b7100000000000000000000000000000000000000000000000000000000600052603260045260246000fd5b9060005260206000209060030201600001604051602001610dab9190615d5c565b604051602081830303815290604052805190602001201415610f9b5760188181548110610e01577f4e487b7100000000000000000000000000000000000000000000000000000000600052603260045260246000fd5b9060005260206000209060030201604051806060016040529081600082018054610e2a906164b0565b80601f0160208091040260200160405190810160405280929190818152602001828054610e56906164b0565b8015610ea35780601f10610e7857610100808354040283529160200191610ea3565b820191906000526020600020905b815481529060010190602001808311610e8657829003601f168201915b50505050508152602001600182018054610ebc906164b0565b80601f0160208091040260200160405190810160405280929190818152602001828054610ee8906164b0565b8015610f355780601f10610f0a57610100808354040283529160200191610f35565b820191906000526020600020905b815481529060010190602001808311610f1857829003601f168201915b505050505081526020016002820160009054906101000a900473ffffffffffffffffffffffffffffffffffffffff1673ffffffffffffffffffffffffffffffffffffffff1673ffffffffffffffffffffffffffffffffffffffff16815250509250600191505b8080610fa690616513565b915050610d1c565b508082935093505050915091565b6000610fd0610fc961366f565b8484613677565b6001905092915050565b600860009054906101000a900473ffffffffffffffffffffffffffffffffffffffff1681565b61100861366f565b73ffffffffffffffffffffffffffffffffffffffff16611026612b75565b73ffffffffffffffffffffffffffffffffffffffff161461107c576040517f08c379a000000000000000000000000000000000000000000000000000000000815260040161107390615f6d565b60405180910390fd5b6000601560009054906101000a900473ffffffffffffffffffffffffffffffffffffffff16905081601560006101000a81548173ffffffffffffffffffffffffffffffffffffffff021916908373ffffffffffffffffffffffffffffffffffffffff1602179055507fde2db15cef0ca22007ab89058870a15f2d2c9b5562a12f329afcb184ce46b0b181601560009054906101000a900473ffffffffffffffffffffffffffffffffffffffff16604051611137929190615d8e565b60405180910390a15050565b6000600c54905090565b601560009054906101000a900473ffffffffffffffffffffffffffffffffffffffff1681565b6000600960ff16600a6111869190616249565b631dcd65006111959190616367565b905090565b6111a261366f565b73ffffffffffffffffffffffffffffffffffffffff166111c0612b75565b73ffffffffffffffffffffffffffffffffffffffff1614611216576040517f08c379a000000000000000000000000000000000000000000000000000000000815260040161120d90615f6d565b60405180910390fd5b6000600860009054906101000a900473ffffffffffffffffffffffffffffffffffffffff1690506000600460008373ffffffffffffffffffffffffffffffffffffffff1673ffffffffffffffffffffffffffffffffffffffff16815260200190815260200160002060006101000a81548160ff02191690831515021790555081600860006101000a81548173ffffffffffffffffffffffffffffffffffffffff021916908373ffffffffffffffffffffffffffffffffffffffff160217905550600160046000600860009054906101000a900473ffffffffffffffffffffffffffffffffffffffff1673ffffffffffffffffffffffffffffffffffffffff1673ffffffffffffffffffffffffffffffffffffffff16815260200190815260200160002060006101000a81548160ff0219169083151502179055507f02a22d8de7d57d9eaec063aa8634746acc28f904575d7777abb0ac8dc292fc9081600860009054906101000a900473ffffffffffffffffffffffffffffffffffffffff166040516113a3929190615d8e565b60405180910390a15050565b60105481565b60006113c2848484613842565b50611484846113cf61366f565b61147f85604051806060016040528060318152602001616a5c60319139600660008b73ffffffffffffffffffffffffffffffffffffffff1673ffffffffffffffffffffffffffffffffffffffff168152602001908152602001600020600061143561366f565b73ffffffffffffffffffffffffffffffffffffffff1673ffffffffffffffffffffffffffffffffffffffff16815260200190815260200160002054613b3b9092919063ffffffff16565b613677565b600190509392505050565b60125481565b80601460006114a261366f565b73ffffffffffffffffffffffffffffffffffffffff1673ffffffffffffffffffffffffffffffffffffffff16815260200190815260200160002054101561151e576040517f08c379a000000000000000000000000000000000000000000000000000000000815260040161151590615f4d565b60405180910390fd5b611552601560009054906101000a900473ffffffffffffffffffffffffffffffffffffffff1661154c61366f565b83613842565b50806014600061156061366f565b73ffffffffffffffffffffffffffffffffffffffff1673ffffffffffffffffffffffffffffffffffffffff16815260200190815260200160002060008282546115a991906163c1565b9250508190555050565b60006009905090565b6115c461366f565b73ffffffffffffffffffffffffffffffffffffffff166115e2612b75565b73ffffffffffffffffffffffffffffffffffffffff1614611638576040517f08c379a000000000000000000000000000000000000000000000000000000000815260040161162f90615f6d565b60405180910390fd5b600560008273ffffffffffffffffffffffffffffffffffffffff1673ffffffffffffffffffffffffffffffffffffffff16815260200190815260200160002060009054906101000a900460ff166116c4576040517f08c379a00000000000000000000000000000000000000000000000000000000081526004016116bb9061604d565b60405180910390fd5b60005b600780549050811015611986578173ffffffffffffffffffffffffffffffffffffffff1660078281548110611725577f4e487b7100000000000000000000000000000000000000000000000000000000600052603260045260246000fd5b9060005260206000200160009054906101000a900473ffffffffffffffffffffffffffffffffffffffff1673ffffffffffffffffffffffffffffffffffffffff161415611973576007600160078054905061178091906163c1565b815481106117b7577f4e487b7100000000000000000000000000000000000000000000000000000000600052603260045260246000fd5b9060005260206000200160009054906101000a900473ffffffffffffffffffffffffffffffffffffffff166007828154811061181c577f4e487b7100000000000000000000000000000000000000000000000000000000600052603260045260246000fd5b9060005260206000200160006101000a81548173ffffffffffffffffffffffffffffffffffffffff021916908373ffffffffffffffffffffffffffffffffffffffff1602179055506000600360008473ffffffffffffffffffffffffffffffffffffffff1673ffffffffffffffffffffffffffffffffffffffff168152602001908152602001600020819055506000600560008473ffffffffffffffffffffffffffffffffffffffff1673ffffffffffffffffffffffffffffffffffffffff16815260200190815260200160002060006101000a81548160ff0219169083151502179055506007805480611939577f4e487b7100000000000000000000000000000000000000000000000000000000600052603160045260246000fd5b6001900381819060005260206000200160006101000a81549073ffffffffffffffffffffffffffffffffffffffff02191690559055611986565b808061197e90616513565b9150506116c7565b5050565b6000600954905090565b61199c61366f565b73ffffffffffffffffffffffffffffffffffffffff166119ba612b75565b73ffffffffffffffffffffffffffffffffffffffff1614611a10576040517f08c379a0000000000000000000000000000000000000000000000000000000008152600401611a0790615f6d565b60405180910390fd5b6001600460008373ffffffffffffffffffffffffffffffffffffffff1673ffffffffffffffffffffffffffffffffffffffff16815260200190815260200160002060006101000a81548160ff02191690831515021790555050565b611a7361366f565b73ffffffffffffffffffffffffffffffffffffffff16611a91612b75565b73ffffffffffffffffffffffffffffffffffffffff1614611ae7576040517f08c379a0000000000000000000000000000000000000000000000000000000008152600401611ade90615f6d565b60405180910390fd5b6000600f54905081600f819055507f4bcee0ccdfc6d1b5adcbb5402f5481c719d65350d373daeaa147529071179f3d81600f54604051611b28929190616088565b60405180910390a15050565b611b3c61366f565b73ffffffffffffffffffffffffffffffffffffffff16611b5a612b75565b73ffffffffffffffffffffffffffffffffffffffff1614611bb0576040517f08c379a0000000000000000000000000000000000000000000000000000000008152600401611ba790615f6d565b60405180910390fd5b60006010549050816010819055507f905737db07116523bdbf66b819c251afe996598589fba3a73128635b7e2d829281601054604051611bf1929190616088565b60405180910390a15050565b6000600a54905090565b60115481565b611c1561366f565b73ffffffffffffffffffffffffffffffffffffffff16611c33612b75565b73ffffffffffffffffffffffffffffffffffffffff1614611c89576040517f08c379a0000000000000000000000000000000000000000000000000000000008152600401611c8090615f6d565b60405180910390fd5b6000601660009054906101000a900473ffffffffffffffffffffffffffffffffffffffff169050600082905080601660006101000a81548173ffffffffffffffffffffffffffffffffffffffff021916908373ffffffffffffffffffffffffffffffffffffffff1602179055507ffc943c08f8ebb2fd56df0962cbb18c1af9f5bd2158177c807f7037413059320e82601660009054906101000a900473ffffffffffffffffffffffffffffffffffffffff16604051611d49929190615d8e565b60405180910390a1505050565b611d5e61366f565b73ffffffffffffffffffffffffffffffffffffffff16611d7c612b75565b73ffffffffffffffffffffffffffffffffffffffff1614611dd2576040517f08c379a0000000000000000000000000000000000000000000000000000000008152600401611dc990615f6d565b60405180910390fd5b600560008273ffffffffffffffffffffffffffffffffffffffff1673ffffffffffffffffffffffffffffffffffffffff16815260200190815260200160002060009054906101000a900460ff1615611e5f576040517f08c379a0000000000000000000000000000000000000000000000000000000008152600401611e5690615eed565b60405180910390fd5b6000600260008373ffffffffffffffffffffffffffffffffffffffff1673ffffffffffffffffffffffffffffffffffffffff168152602001908152602001600020541115611f3357611eef600260008373ffffffffffffffffffffffffffffffffffffffff1673ffffffffffffffffffffffffffffffffffffffff16815260200190815260200160002054612b9e565b600360008373ffffffffffffffffffffffffffffffffffffffff1673ffffffffffffffffffffffffffffffffffffffff168152602001908152602001600020819055505b6001600560008373ffffffffffffffffffffffffffffffffffffffff1673ffffffffffffffffffffffffffffffffffffffff16815260200190815260200160002060006101000a81548160ff0219169083151502179055506007819080600181540180825580915050600190039060005260206000200160009091909190916101000a81548173ffffffffffffffffffffffffffffffffffffffff021916908373ffffffffffffffffffffffffffffffffffffffff16021790555050565b6000600460008373ffffffffffffffffffffffffffffffffffffffff1673ffffffffffffffffffffffffffffffffffffffff16815260200190815260200160002060009054906101000a900460ff169050919050565b61204f61366f565b73ffffffffffffffffffffffffffffffffffffffff1661206d612b75565b73ffffffffffffffffffffffffffffffffffffffff16146120c3576040517f08c379a00000000000000000000000000000000000000000000000000000000081526004016120ba90615f6d565b60405180910390fd5b6000806000905060005b60188054905081101561219357836040516020016120eb9190615d45565b604051602081830303815290604052805190602001206018828154811061213b577f4e487b7100000000000000000000000000000000000000000000000000000000600052603260045260246000fd5b906000526020600020906003020160000160405160200161215c9190615d5c565b60405160208183030381529060405280519060200120141561218057809250600191505b808061218b90616513565b9150506120cd565b50801561245857601860016018805490506121ae91906163c1565b815481106121e5577f4e487b7100000000000000000000000000000000000000000000000000000000600052603260045260246000fd5b90600052602060002090600302016018838154811061222d577f4e487b7100000000000000000000000000000000000000000000000000000000600052603260045260246000fd5b9060005260206000209060030201600082018160000190805461224f906164b0565b61225a9291906154f7565b50600182018160010190805461226f906164b0565b61227a9291906154f7565b506002820160009054906101000a900473ffffffffffffffffffffffffffffffffffffffff168160020160006101000a81548173ffffffffffffffffffffffffffffffffffffffff021916908373ffffffffffffffffffffffffffffffffffffffff160217905550905050601860016018805490506122f991906163c1565b81548110612330577f4e487b7100000000000000000000000000000000000000000000000000000000600052603260045260246000fd5b90600052602060002090600302016000808201600061234f9190615584565b60018201600061235f9190615584565b6002820160006101000a81549073ffffffffffffffffffffffffffffffffffffffff0219169055505060188054806123c0577f4e487b7100000000000000000000000000000000000000000000000000000000600052603160045260246000fd5b6001900381819060005260206000209060030201600080820160006123e59190615584565b6001820160006123f59190615584565b6002820160006101000a81549073ffffffffffffffffffffffffffffffffffffffff0219169055505090557f6e5900d59707241cb6bede127d6691b9510900ba627587f3f52494aa05802c768360405161244f9190615e8b565b60405180910390a15b505050565b60606000805b60188054905081101561252e5761247861366f565b73ffffffffffffffffffffffffffffffffffffffff16601882815481106124c8577f4e487b7100000000000000000000000000000000000000000000000000000000600052603260045260246000fd5b906000526020600020906003020160020160009054906101000a900473ffffffffffffffffffffffffffffffffffffffff1673ffffffffffffffffffffffffffffffffffffffff16141561251b57600191505b808061252690616513565b915050612463565b508080612574575061253e61366f565b73ffffffffffffffffffffffffffffffffffffffff1661255c612b75565b73ffffffffffffffffffffffffffffffffffffffff16145b6125b3576040517f08c379a00000000000000000000000000000000000000000000000000000000081526004016125aa90615ecd565b60405180910390fd5b6040518060400160405280600481526020017f504f4e470000000000000000000000000000000000000000000000000000000081525091505090565b6125f761366f565b73ffffffffffffffffffffffffffffffffffffffff16612615612b75565b73ffffffffffffffffffffffffffffffffffffffff161461266b576040517f08c379a000000000000000000000000000000000000000000000000000000000815260040161266290615f6d565b60405180910390fd5b60006011549050816011819055507fd1f60ba433fe996c153495e303137ea768d4006e1644fc60ac6b1f0ddbff09a7816011546040516126ac929190616088565b60405180910390a15050565b6000805b601880549050811015612787576126d161366f565b73ffffffffffffffffffffffffffffffffffffffff1660188281548110612721577f4e487b7100000000000000000000000000000000000000000000000000000000600052603260045260246000fd5b906000526020600020906003020160020160009054906101000a900473ffffffffffffffffffffffffffffffffffffffff1673ffffffffffffffffffffffffffffffffffffffff16141561277457600191505b808061277f90616513565b9150506126bc565b5080806127cd575061279761366f565b73ffffffffffffffffffffffffffffffffffffffff166127b5612b75565b73ffffffffffffffffffffffffffffffffffffffff16145b61280c576040517f08c379a000000000000000000000000000000000000000000000000000000000815260040161280390615ecd565b60405180910390fd5b81601460008573ffffffffffffffffffffffffffffffffffffffff1673ffffffffffffffffffffffffffffffffffffffff16815260200190815260200160002081905550505050565b600f5481565b6000600160009054906101000a900473ffffffffffffffffffffffffffffffffffffffff16905090565b6000601460008373ffffffffffffffffffffffffffffffffffffffff1673ffffffffffffffffffffffffffffffffffffffff168152602001908152602001600020549050919050565b6000600560008373ffffffffffffffffffffffffffffffffffffffff1673ffffffffffffffffffffffffffffffffffffffff16815260200190815260200160002060009054906101000a900460ff161561296957600360008373ffffffffffffffffffffffffffffffffffffffff1673ffffffffffffffffffffffffffffffffffffffff1681526020019081526020016000205490506129b4565b6129b1600260008473ffffffffffffffffffffffffffffffffffffffff1673ffffffffffffffffffffffffffffffffffffffff16815260200190815260200160002054612b9e565b90505b919050565b6129c161366f565b73ffffffffffffffffffffffffffffffffffffffff166129df612b75565b73ffffffffffffffffffffffffffffffffffffffff1614612a35576040517f08c379a0000000000000000000000000000000000000000000000000000000008152600401612a2c90615f6d565b60405180910390fd5b612a3f6000613b90565b565b60135481565b612a4f61366f565b73ffffffffffffffffffffffffffffffffffffffff16612a6d612b75565b73ffffffffffffffffffffffffffffffffffffffff1614612ac3576040517f08c379a0000000000000000000000000000000000000000000000000000000008152600401612aba90615f6d565b60405180910390fd5b60006012549050816012819055507fb43b8d0327960acb925f1e575778a8939a0b8e60e70362f5555b1563ff1c4c4c81601254604051612b04929190616088565b60405180910390a15050565b6000600560008373ffffffffffffffffffffffffffffffffffffffff1673ffffffffffffffffffffffffffffffffffffffff16815260200190815260200160002060009054906101000a900460ff169050919050565b6000612b70612b75565b905090565b60008060009054906101000a900473ffffffffffffffffffffffffffffffffffffffff16905090565b6000600e54821115612be5576040517f08c379a0000000000000000000000000000000000000000000000000000000008152600401612bdc90615fcd565b60405180910390fd5b6000612bef613cb0565b9050612c048184613cdb90919063ffffffff16565b915050919050565b60606040518060400160405280600381526020017f4156520000000000000000000000000000000000000000000000000000000000815250905090565b612c5161366f565b73ffffffffffffffffffffffffffffffffffffffff16612c6f612b75565b73ffffffffffffffffffffffffffffffffffffffff1614612cc5576040517f08c379a0000000000000000000000000000000000000000000000000000000008152600401612cbc90615f6d565b60405180910390fd5b6000601760009054906101000a900473ffffffffffffffffffffffffffffffffffffffff16905081601760006101000a81548173ffffffffffffffffffffffffffffffffffffffff021916908373ffffffffffffffffffffffffffffffffffffffff1602179055507f38e089794eec8964bd31d4faf79159467c151fb7f2665f3dd9a65b31ebfbd6d581601760009054906101000a900473ffffffffffffffffffffffffffffffffffffffff16604051612d80929190615d8e565b60405180910390a15050565b601660009054906101000a900473ffffffffffffffffffffffffffffffffffffffff1681565b6000600b54905090565b6000601560009054906101000a900473ffffffffffffffffffffffffffffffffffffffff1673ffffffffffffffffffffffffffffffffffffffff168373ffffffffffffffffffffffffffffffffffffffff161415612e8757612e26612e1f61366f565b8484613842565b60146000612e3261366f565b73ffffffffffffffffffffffffffffffffffffffff1673ffffffffffffffffffffffffffffffffffffffff1681526020019081526020016000206000828254612e7b919061616f565b92505081905550612e9b565b612e99612e9261366f565b8484613842565b505b6001905092915050565b612ead61366f565b73ffffffffffffffffffffffffffffffffffffffff16612ecb612b75565b73ffffffffffffffffffffffffffffffffffffffff1614612f21576040517f08c379a0000000000000000000000000000000000000000000000000000000008152600401612f1890615f6d565b60405180910390fd5b60006013549050612f6d6064612f5f84600960ff16600a612f429190616249565b631dcd6500612f519190616367565b613cf190919063ffffffff16565b613cdb90919063ffffffff16565b6013819055507f7ce9f1e2c75852250b7e23e803f455fc0d1fa34ddbf5cc4ee7125e9c9d0ea7f781601354604051612fa6929190616088565b60405180910390a15050565b6000600960ff16600a612fc59190616249565b631dcd6500612fd49190616367565b831115613016576040517f08c379a000000000000000000000000000000000000000000000000000000000815260040161300d90615f0d565b60405180910390fd5b81613054576000613025613cb0565b90506000613034856000613d07565b90506000613043868385613eca565b905080600001519350505050613089565b600061305e613cb0565b9050600061306d856000613d07565b9050600061307c868385613eca565b9050806020015193505050505b92915050565b6000600d54905090565b6000600660008473ffffffffffffffffffffffffffffffffffffffff1673ffffffffffffffffffffffffffffffffffffffff16815260200190815260200160002060008373ffffffffffffffffffffffffffffffffffffffff1673ffffffffffffffffffffffffffffffffffffffff16815260200190815260200160002054905092915050565b61312861366f565b73ffffffffffffffffffffffffffffffffffffffff16613146612b75565b73ffffffffffffffffffffffffffffffffffffffff161461319c576040517f08c379a000000000000000000000000000000000000000000000000000000000815260040161319390615f6d565b60405180910390fd5b6131a46154c0565b82816020018190525081816040019073ffffffffffffffffffffffffffffffffffffffff16908173ffffffffffffffffffffffffffffffffffffffff16815250508381600001819052506000805b60188054905081101561338257856040516020016132109190615d45565b6040516020818303038152906040528051906020012060188281548110613260577f4e487b7100000000000000000000000000000000000000000000000000000000600052603260045260246000fd5b90600052602060002090600302016000016040516020016132819190615d5c565b60405160208183030381529060405280519060200120141561336f5782601882815481106132d8577f4e487b7100000000000000000000000000000000000000000000000000000000600052603260045260246000fd5b906000526020600020906003020160008201518160000190805190602001906133029291906155c4565b50602082015181600101908051906020019061331f9291906155c4565b5060408201518160020160006101000a81548173ffffffffffffffffffffffffffffffffffffffff021916908373ffffffffffffffffffffffffffffffffffffffff160217905550905050600191505b808061337a90616513565b9150506131f2565b508061347357601882908060018154018082558091505060019003906000526020600020906003020160009091909190915060008201518160000190805190602001906133d09291906155c4565b5060208201518160010190805190602001906133ed9291906155c4565b5060408201518160020160006101000a81548173ffffffffffffffffffffffffffffffffffffffff021916908373ffffffffffffffffffffffffffffffffffffffff16021790555050507f22052c1dd9a1a9f006880210f11af5960c9c55cb2867f7778cca36cc3d9bbada83868660405161346a93929190615db7565b60405180910390a15b5050505050565b61348261366f565b73ffffffffffffffffffffffffffffffffffffffff166134a0612b75565b73ffffffffffffffffffffffffffffffffffffffff16146134f6576040517f08c379a00000000000000000000000000000000000000000000000000000000081526004016134ed90615f6d565b60405180910390fd5b6000600460008373ffffffffffffffffffffffffffffffffffffffff1673ffffffffffffffffffffffffffffffffffffffff16815260200190815260200160002060006101000a81548160ff02191690831515021790555050565b61355961366f565b73ffffffffffffffffffffffffffffffffffffffff16613577612b75565b73ffffffffffffffffffffffffffffffffffffffff16146135cd576040517f08c379a00000000000000000000000000000000000000000000000000000000081526004016135c490615f6d565b60405180910390fd5b600073ffffffffffffffffffffffffffffffffffffffff168173ffffffffffffffffffffffffffffffffffffffff16141561363d576040517f08c379a000000000000000000000000000000000000000000000000000000000815260040161363490615f2d565b60405180910390fd5b61364681613b90565b50565b601760009054906101000a900473ffffffffffffffffffffffffffffffffffffffff1681565b600033905090565b600073ffffffffffffffffffffffffffffffffffffffff168373ffffffffffffffffffffffffffffffffffffffff1614156136e7576040517f08c379a00000000000000000000000000000000000000000000000000000000081526004016136de90615fad565b60405180910390fd5b600073ffffffffffffffffffffffffffffffffffffffff168273ffffffffffffffffffffffffffffffffffffffff161415613757576040517f08c379a000000000000000000000000000000000000000000000000000000000815260040161374e9061600d565b60405180910390fd5b80600660008573ffffffffffffffffffffffffffffffffffffffff1673ffffffffffffffffffffffffffffffffffffffff16815260200190815260200160002060008473ffffffffffffffffffffffffffffffffffffffff1673ffffffffffffffffffffffffffffffffffffffff168152602001908152602001600020819055508173ffffffffffffffffffffffffffffffffffffffff168373ffffffffffffffffffffffffffffffffffffffff167f8c5be1e5ebec7d5bd14f71427d1e84f3dd0314c0f7b2291e5b200ac8c7c3b92583604051613835919061606d565b60405180910390a3505050565b60008073ffffffffffffffffffffffffffffffffffffffff168473ffffffffffffffffffffffffffffffffffffffff1614156138b3576040517f08c379a00000000000000000000000000000000000000000000000000000000081526004016138aa90615f8d565b60405180910390fd5b600073ffffffffffffffffffffffffffffffffffffffff168373ffffffffffffffffffffffffffffffffffffffff161415613923576040517f08c379a000000000000000000000000000000000000000000000000000000000815260040161391a90615fed565b60405180910390fd5b60008211613966576040517f08c379a000000000000000000000000000000000000000000000000000000000815260040161395d9061602d565b60405180910390fd5b61396e612b75565b73ffffffffffffffffffffffffffffffffffffffff168473ffffffffffffffffffffffffffffffffffffffff16141580156139dc57506139ac612b75565b73ffffffffffffffffffffffffffffffffffffffff168373ffffffffffffffffffffffffffffffffffffffff1614155b15613a2757601354821115613a26576040517f08c379a0000000000000000000000000000000000000000000000000000000008152600401613a1d90615ead565b60405180910390fd5b5b6000600460008673ffffffffffffffffffffffffffffffffffffffff1673ffffffffffffffffffffffffffffffffffffffff16815260200190815260200160002060009054906101000a900460ff1680613aca5750600460008573ffffffffffffffffffffffffffffffffffffffff1673ffffffffffffffffffffffffffffffffffffffff16815260200190815260200160002060009054906101000a900460ff165b80613b225750601560009054906101000a900473ffffffffffffffffffffffffffffffffffffffff1673ffffffffffffffffffffffffffffffffffffffff168573ffffffffffffffffffffffffffffffffffffffff16145b159050613b3185858584613ff7565b9150509392505050565b6000838311158290613b83576040517f08c379a0000000000000000000000000000000000000000000000000000000008152600401613b7a9190615e8b565b60405180910390fd5b5082840390509392505050565b60008054906101000a900473ffffffffffffffffffffffffffffffffffffffff16600160006101000a81548173ffffffffffffffffffffffffffffffffffffffff021916908373ffffffffffffffffffffffffffffffffffffffff160217905550806000806101000a81548173ffffffffffffffffffffffffffffffffffffffff021916908373ffffffffffffffffffffffffffffffffffffffff1602179055508073ffffffffffffffffffffffffffffffffffffffff16600160009054906101000a900473ffffffffffffffffffffffffffffffffffffffff1673ffffffffffffffffffffffffffffffffffffffff167f8be0079c531659141344cd1fd0a4f28419497f9722a3daafe3b4186f6b6457e060405160405180910390a350565b6000806000613cbd6142ab565b91509150613cd48183613cdb90919063ffffffff16565b9250505090565b60008183613ce991906161c5565b905092915050565b60008183613cff9190616367565b905092915050565b613d0f61564a565b613d1761564a565b6000849050601560009054906101000a900473ffffffffffffffffffffffffffffffffffffffff1673ffffffffffffffffffffffffffffffffffffffff168473ffffffffffffffffffffffffffffffffffffffff161415613dd3576000613d9d612710613d8f60125489613cf190919063ffffffff16565b613cdb90919063ffffffff16565b9050613db2818361466a90919063ffffffff16565b91508183600001818152505080836020018181525050829350505050613ec4565b6000613dfe612710613df060105489613cf190919063ffffffff16565b613cdb90919063ffffffff16565b90506000613e2b612710613e1d6011548a613cf190919063ffffffff16565b613cdb90919063ffffffff16565b90506000613e58612710613e4a600f548b613cf190919063ffffffff16565b613cdb90919063ffffffff16565b9050613e9181613e8384613e75878961466a90919063ffffffff16565b61466a90919063ffffffff16565b61466a90919063ffffffff16565b93508385600001818152505082856040018181525050818560600181815250508085608001818152505084955050505050505b92915050565b613ed2615679565b613eda615679565b6000613eef8487613cf190919063ffffffff16565b90506000613f0a858760200151613cf190919063ffffffff16565b90506000613f25868860400151613cf190919063ffffffff16565b90506000613f40878960600151613cf190919063ffffffff16565b90506000613f5b888a60800151613cf190919063ffffffff16565b90506000613fa885613f9a84613f8c87613f7e8a8d61466a90919063ffffffff16565b61466a90919063ffffffff16565b61466a90919063ffffffff16565b61466a90919063ffffffff16565b90508587600001818152505080876020018181525050848760a0018181525050838760400181815250508287606001818152505081876080018181525050869750505050505050509392505050565b6000806012549050600060115490506000600f549050600060105490508561403a57600060128190555060006011819055506000600f8190555060006010819055505b6000600560008b73ffffffffffffffffffffffffffffffffffffffff1673ffffffffffffffffffffffffffffffffffffffff16815260200190815260200160002060009054906101000a900460ff1680156140df5750600560008a73ffffffffffffffffffffffffffffffffffffffff1673ffffffffffffffffffffffffffffffffffffffff16815260200190815260200160002060009054906101000a900460ff16155b156140f6576140ef8a8a8a614680565b9050614279565b600560008b73ffffffffffffffffffffffffffffffffffffffff1673ffffffffffffffffffffffffffffffffffffffff16815260200190815260200160002060009054906101000a900460ff161580156141995750600560008a73ffffffffffffffffffffffffffffffffffffffff1673ffffffffffffffffffffffffffffffffffffffff16815260200190815260200160002060009054906101000a900460ff165b156141b0576141a98a8a8a61492b565b9050614278565b600560008b73ffffffffffffffffffffffffffffffffffffffff1673ffffffffffffffffffffffffffffffffffffffff16815260200190815260200160002060009054906101000a900460ff1680156142525750600560008a73ffffffffffffffffffffffffffffffffffffffff1673ffffffffffffffffffffffffffffffffffffffff16815260200190815260200160002060009054906101000a900460ff165b15614269576142628a8a8a614bda565b9050614277565b6142748a8a8a614f1e565b90505b5b5b8661429b57846012819055508360118190555082600f81905550816010819055505b8095505050505050949350505050565b6000806000600e5490506000600960ff16600a6142c89190616249565b631dcd65006142d79190616367565b905060005b6007805490508110156145f357826002600060078481548110614328577f4e487b7100000000000000000000000000000000000000000000000000000000600052603260045260246000fd5b9060005260206000200160009054906101000a900473ffffffffffffffffffffffffffffffffffffffff1673ffffffffffffffffffffffffffffffffffffffff1673ffffffffffffffffffffffffffffffffffffffff16815260200190815260200160002054118061443c57508160036000600784815481106143d4577f4e487b7100000000000000000000000000000000000000000000000000000000600052603260045260246000fd5b9060005260206000200160009054906101000a900473ffffffffffffffffffffffffffffffffffffffff1673ffffffffffffffffffffffffffffffffffffffff1673ffffffffffffffffffffffffffffffffffffffff16815260200190815260200160002054115b1561447057600e54600960ff16600a6144559190616249565b631dcd65006144649190616367565b94509450505050614666565b61452660026000600784815481106144b1577f4e487b7100000000000000000000000000000000000000000000000000000000600052603260045260246000fd5b9060005260206000200160009054906101000a900473ffffffffffffffffffffffffffffffffffffffff1673ffffffffffffffffffffffffffffffffffffffff1673ffffffffffffffffffffffffffffffffffffffff168152602001908152602001600020548461466a90919063ffffffff16565b92506145de6003600060078481548110614569577f4e487b7100000000000000000000000000000000000000000000000000000000600052603260045260246000fd5b9060005260206000200160009054906101000a900473ffffffffffffffffffffffffffffffffffffffff1673ffffffffffffffffffffffffffffffffffffffff1673ffffffffffffffffffffffffffffffffffffffff168152602001908152602001600020548361466a90919063ffffffff16565b915080806145eb90616513565b9150506142dc565b50614628600960ff16600a6146089190616249565b631dcd65006146179190616367565b600e54613cdb90919063ffffffff16565b82101561465d57600e54600960ff16600a6146439190616249565b631dcd65006146529190616367565b935093505050614666565b81819350935050505b9091565b6000818361467891906163c1565b905092915050565b60008061468b613cb0565b905060006146998486613d07565b905060006146a8858385613eca565b90506146fc85600360008a73ffffffffffffffffffffffffffffffffffffffff1673ffffffffffffffffffffffffffffffffffffffff1681526020019081526020016000205461466a90919063ffffffff16565b600360008973ffffffffffffffffffffffffffffffffffffffff1673ffffffffffffffffffffffffffffffffffffffff168152602001908152602001600020819055506147958160000151600260008a73ffffffffffffffffffffffffffffffffffffffff1673ffffffffffffffffffffffffffffffffffffffff1681526020019081526020016000205461466a90919063ffffffff16565b600260008973ffffffffffffffffffffffffffffffffffffffff1673ffffffffffffffffffffffffffffffffffffffff1681526020019081526020016000208190555061482e8160200151600260008973ffffffffffffffffffffffffffffffffffffffff1673ffffffffffffffffffffffffffffffffffffffff1681526020019081526020016000205461513490919063ffffffff16565b600260008873ffffffffffffffffffffffffffffffffffffffff1673ffffffffffffffffffffffffffffffffffffffff1681526020019081526020016000208190555061489f600860009054906101000a900473ffffffffffffffffffffffffffffffffffffffff1683858961514a565b6148a88161537c565b6148b1826153e0565b8573ffffffffffffffffffffffffffffffffffffffff168773ffffffffffffffffffffffffffffffffffffffff167fddf252ad1be2c89b69c2b068fc378daa952ba7f163c4a11628f55a4df523b3ef8460000151604051614912919061606d565b60405180910390a3816000015193505050509392505050565b600080614936613cb0565b905060006149448486613d07565b90506000614953858385613eca565b90506149ab8160000151600260008a73ffffffffffffffffffffffffffffffffffffffff1673ffffffffffffffffffffffffffffffffffffffff1681526020019081526020016000205461466a90919063ffffffff16565b600260008973ffffffffffffffffffffffffffffffffffffffff1673ffffffffffffffffffffffffffffffffffffffff16815260200190815260200160002081905550614a448260000151600360008973ffffffffffffffffffffffffffffffffffffffff1673ffffffffffffffffffffffffffffffffffffffff1681526020019081526020016000205461513490919063ffffffff16565b600360008873ffffffffffffffffffffffffffffffffffffffff1673ffffffffffffffffffffffffffffffffffffffff16815260200190815260200160002081905550614add8160200151600260008973ffffffffffffffffffffffffffffffffffffffff1673ffffffffffffffffffffffffffffffffffffffff1681526020019081526020016000205461513490919063ffffffff16565b600260008873ffffffffffffffffffffffffffffffffffffffff1673ffffffffffffffffffffffffffffffffffffffff16815260200190815260200160002081905550614b4e600860009054906101000a900473ffffffffffffffffffffffffffffffffffffffff1683858961514a565b614b578161537c565b614b60826153e0565b8573ffffffffffffffffffffffffffffffffffffffff168773ffffffffffffffffffffffffffffffffffffffff167fddf252ad1be2c89b69c2b068fc378daa952ba7f163c4a11628f55a4df523b3ef8460000151604051614bc1919061606d565b60405180910390a3816000015193505050509392505050565b600080614be5613cb0565b90506000614bf38486613d07565b90506000614c02858385613eca565b9050614c5685600360008a73ffffffffffffffffffffffffffffffffffffffff1673ffffffffffffffffffffffffffffffffffffffff1681526020019081526020016000205461466a90919063ffffffff16565b600360008973ffffffffffffffffffffffffffffffffffffffff1673ffffffffffffffffffffffffffffffffffffffff16815260200190815260200160002081905550614cef8160000151600260008a73ffffffffffffffffffffffffffffffffffffffff1673ffffffffffffffffffffffffffffffffffffffff1681526020019081526020016000205461466a90919063ffffffff16565b600260008973ffffffffffffffffffffffffffffffffffffffff1673ffffffffffffffffffffffffffffffffffffffff16815260200190815260200160002081905550614d888260000151600360008973ffffffffffffffffffffffffffffffffffffffff1673ffffffffffffffffffffffffffffffffffffffff1681526020019081526020016000205461513490919063ffffffff16565b600360008873ffffffffffffffffffffffffffffffffffffffff1673ffffffffffffffffffffffffffffffffffffffff16815260200190815260200160002081905550614e218160200151600260008973ffffffffffffffffffffffffffffffffffffffff1673ffffffffffffffffffffffffffffffffffffffff1681526020019081526020016000205461513490919063ffffffff16565b600260008873ffffffffffffffffffffffffffffffffffffffff1673ffffffffffffffffffffffffffffffffffffffff16815260200190815260200160002081905550614e92600860009054906101000a900473ffffffffffffffffffffffffffffffffffffffff1683858961514a565b614e9b8161537c565b614ea4826153e0565b8573ffffffffffffffffffffffffffffffffffffffff168773ffffffffffffffffffffffffffffffffffffffff167fddf252ad1be2c89b69c2b068fc378daa952ba7f163c4a11628f55a4df523b3ef8460000151604051614f05919061606d565b60405180910390a3816000015193505050509392505050565b600080614f29613cb0565b90506000614f378486613d07565b90506000614f46858385613eca565b9050614f9e8160000151600260008a73ffffffffffffffffffffffffffffffffffffffff1673ffffffffffffffffffffffffffffffffffffffff1681526020019081526020016000205461466a90919063ffffffff16565b600260008973ffffffffffffffffffffffffffffffffffffffff1673ffffffffffffffffffffffffffffffffffffffff168152602001908152602001600020819055506150378160200151600260008973ffffffffffffffffffffffffffffffffffffffff1673ffffffffffffffffffffffffffffffffffffffff1681526020019081526020016000205461513490919063ffffffff16565b600260008873ffffffffffffffffffffffffffffffffffffffff1673ffffffffffffffffffffffffffffffffffffffff168152602001908152602001600020819055506150a8600860009054906101000a900473ffffffffffffffffffffffffffffffffffffffff1683858961514a565b6150b18161537c565b6150ba826153e0565b8573ffffffffffffffffffffffffffffffffffffffff168773ffffffffffffffffffffffffffffffffffffffff167fddf252ad1be2c89b69c2b068fc378daa952ba7f163c4a11628f55a4df523b3ef846000015160405161511b919061606d565b60405180910390a3816000015193505050509392505050565b60008183615142919061616f565b905092915050565b6000601560009054906101000a900473ffffffffffffffffffffffffffffffffffffffff1673ffffffffffffffffffffffffffffffffffffffff168273ffffffffffffffffffffffffffffffffffffffff16146151c9578360800151846060015185604001516151ba919061616f565b6151c4919061616f565b6151cf565b83602001515b9050600081116151df5750615376565b60006151f48483613cf190919063ffffffff16565b905061524881600260008973ffffffffffffffffffffffffffffffffffffffff1673ffffffffffffffffffffffffffffffffffffffff1681526020019081526020016000205461513490919063ffffffff16565b600260008873ffffffffffffffffffffffffffffffffffffffff1673ffffffffffffffffffffffffffffffffffffffff16815260200190815260200160002081905550600560008773ffffffffffffffffffffffffffffffffffffffff1673ffffffffffffffffffffffffffffffffffffffff16815260200190815260200160002060009054906101000a900460ff16156153735761532f82600360008973ffffffffffffffffffffffffffffffffffffffff1673ffffffffffffffffffffffffffffffffffffffff1681526020019081526020016000205461513490919063ffffffff16565b600360008873ffffffffffffffffffffffffffffffffffffffff1673ffffffffffffffffffffffffffffffffffffffff168152602001908152602001600020819055505b50505b50505050565b6153d78160a001516153c983608001516153bb85606001516153ad8760400151600e5461466a90919063ffffffff16565b61466a90919063ffffffff16565b61466a90919063ffffffff16565b61466a90919063ffffffff16565b600e8190555050565b6153f98160400151600d5461513490919063ffffffff16565b600d819055506154188160600151600a5461513490919063ffffffff16565b600a819055506154378160800151600b5461513490919063ffffffff16565b600b81905550615456816020015160095461513490919063ffffffff16565b6009819055506154b781602001516154a9836080015161549b856060015161548d8760400151600c5461513490919063ffffffff16565b61513490919063ffffffff16565b61513490919063ffffffff16565b61513490919063ffffffff16565b600c8190555050565b60405180606001604052806060815260200160608152602001600073ffffffffffffffffffffffffffffffffffffffff1681525090565b828054615503906164b0565b90600052602060002090601f0160209004810192826155255760008555615573565b82601f106155365780548555615573565b8280016001018555821561557357600052602060002091601f016020900482015b82811115615572578254825591600101919060010190615557565b5b50905061558091906156af565b5090565b508054615590906164b0565b6000825580601f106155a257506155c1565b601f0160209004906000526020600020908101906155c091906156af565b5b50565b8280546155d0906164b0565b90600052602060002090601f0160209004810192826155f25760008555615639565b82601f1061560b57805160ff1916838001178555615639565b82800160010185558215615639579182015b8281111561563857825182559160200191906001019061561d565b5b50905061564691906156af565b5090565b6040518060a0016040528060008152602001600081526020016000815260200160008152602001600081525090565b6040518060c001604052806000815260200160008152602001600081526020016000815260200160008152602001600081525090565b5b808211156156c85760008160009055506001016156b0565b5090565b60006156df6156da846160f1565b6160cc565b9050828152602081018484840111156156f757600080fd5b61570284828561646e565b509392505050565b60008135905061571981616a16565b92915050565b60008135905061572e81616a2d565b92915050565b600082601f83011261574557600080fd5b81356157558482602086016156cc565b91505092915050565b60008135905061576d81616a44565b92915050565b60006020828403121561578557600080fd5b60006157938482850161570a565b91505092915050565b600080604083850312156157af57600080fd5b60006157bd8582860161570a565b92505060206157ce8582860161570a565b9150509250929050565b6000806000606084860312156157ed57600080fd5b60006157fb8682870161570a565b935050602061580c8682870161570a565b925050604061581d8682870161575e565b9150509250925092565b6000806040838503121561583a57600080fd5b60006158488582860161570a565b92505060206158598582860161575e565b9150509250929050565b60006020828403121561587557600080fd5b600082013567ffffffffffffffff81111561588f57600080fd5b61589b84828501615734565b91505092915050565b6000806000606084860312156158b957600080fd5b600084013567ffffffffffffffff8111156158d357600080fd5b6158df86828701615734565b935050602084013567ffffffffffffffff8111156158fc57600080fd5b61590886828701615734565b92505060406159198682870161570a565b9150509250925092565b60006020828403121561593557600080fd5b60006159438482850161575e565b91505092915050565b6000806040838503121561595f57600080fd5b600061596d8582860161575e565b925050602061597e8582860161571f565b9150509250929050565b615991816163f5565b82525050565b6159a0816163f5565b82525050565b6159af81616407565b82525050565b6159be8161644a565b82525050565b60006159cf82616137565b6159d98185616142565b93506159e981856020860161647d565b6159f281616618565b840191505092915050565b6000615a0882616137565b615a128185616153565b9350615a2281856020860161647d565b615a2b81616618565b840191505092915050565b6000615a4182616137565b615a4b8185616164565b9350615a5b81856020860161647d565b80840191505092915050565b60008154615a74816164b0565b615a7e8186616164565b94506001821660008114615a995760018114615aaa57615add565b60ff19831686528186019350615add565b615ab385616122565b60005b83811015615ad557815481890152600182019150602081019050615ab6565b838801955050505b50505092915050565b6000615af3602c83616153565b9150615afe82616636565b604082019050919050565b6000615b16603e83616153565b9150615b2182616685565b604082019050919050565b6000615b39602083616153565b9150615b44826166d4565b602082019050919050565b6000615b5c602883616153565b9150615b67826166fd565b604082019050919050565b6000615b7f603083616153565b9150615b8a8261674c565b604082019050919050565b6000615ba2600f83616153565b9150615bad8261679b565b602082019050919050565b6000615bc5602583616153565b9150615bd0826167c4565b604082019050919050565b6000615be8602d83616153565b9150615bf382616813565b604082019050919050565b6000615c0b602c83616153565b9150615c1682616862565b604082019050919050565b6000615c2e602f83616153565b9150615c39826168b1565b604082019050919050565b6000615c51602b83616153565b9150615c5c82616900565b604082019050919050565b6000615c74602a83616153565b9150615c7f8261694f565b604082019050919050565b6000615c97602e83616153565b9150615ca28261699e565b604082019050919050565b6000615cba602083616153565b9150615cc5826169ed565b602082019050919050565b60006060830160008301518482036000860152615ced82826159c4565b91505060208301518482036020860152615d0782826159c4565b9150506040830151615d1c6040860182615988565b508091505092915050565b615d3081616433565b82525050565b615d3f8161643d565b82525050565b6000615d518284615a36565b915081905092915050565b6000615d688284615a67565b915081905092915050565b6000602082019050615d886000830184615997565b92915050565b6000604082019050615da36000830185615997565b615db06020830184615997565b9392505050565b6000606082019050615dcc6000830186615997565b8181036020830152615dde81856159fd565b90508181036040830152615df281846159fd565b9050949350505050565b6000604082019050615e116000830185615997565b615e1e6020830184615d27565b9392505050565b6000602082019050615e3a60008301846159a6565b92915050565b6000604082019050615e5560008301856159a6565b8181036020830152615e678184615cd0565b90509392505050565b6000602082019050615e8560008301846159b5565b92915050565b60006020820190508181036000830152615ea581846159fd565b905092915050565b60006020820190508181036000830152615ec681615ae6565b9050919050565b60006020820190508181036000830152615ee681615b09565b9050919050565b60006020820190508181036000830152615f0681615b2c565b9050919050565b60006020820190508181036000830152615f2681615b4f565b9050919050565b60006020820190508181036000830152615f4681615b72565b9050919050565b60006020820190508181036000830152615f6681615b95565b9050919050565b60006020820190508181036000830152615f8681615bb8565b9050919050565b60006020820190508181036000830152615fa681615bdb565b9050919050565b60006020820190508181036000830152615fc681615bfe565b9050919050565b60006020820190508181036000830152615fe681615c21565b9050919050565b6000602082019050818103600083015261600681615c44565b9050919050565b6000602082019050818103600083015261602681615c67565b9050919050565b6000602082019050818103600083015261604681615c8a565b9050919050565b6000602082019050818103600083015261606681615cad565b9050919050565b60006020820190506160826000830184615d27565b92915050565b600060408201905061609d6000830185615d27565b6160aa6020830184615d27565b9392505050565b60006020820190506160c66000830184615d36565b92915050565b60006160d66160e7565b90506160e282826164e2565b919050565b6000604051905090565b600067ffffffffffffffff82111561610c5761610b6165e9565b5b61611582616618565b9050602081019050919050565b60008190508160005260206000209050919050565b600081519050919050565b600082825260208201905092915050565b600082825260208201905092915050565b600081905092915050565b600061617a82616433565b915061618583616433565b9250827fffffffffffffffffffffffffffffffffffffffffffffffffffffffffffffffff038211156161ba576161b961655c565b5b828201905092915050565b60006161d082616433565b91506161db83616433565b9250826161eb576161ea61658b565b5b828204905092915050565b6000808291508390505b60018511156162405780860481111561621c5761621b61655c565b5b600185161561622b5780820291505b808102905061623985616629565b9450616200565b94509492505050565b600061625482616433565b915061625f83616433565b925061628c7fffffffffffffffffffffffffffffffffffffffffffffffffffffffffffffffff8484616294565b905092915050565b6000826162a45760019050616360565b816162b25760009050616360565b81600181146162c857600281146162d257616301565b6001915050616360565b60ff8411156162e4576162e361655c565b5b8360020a9150848211156162fb576162fa61655c565b5b50616360565b5060208310610133831016604e8410600b84101617156163365782820a9050838111156163315761633061655c565b5b616360565b61634384848460016161f6565b9250905081840481111561635a5761635961655c565b5b81810290505b9392505050565b600061637282616433565b915061637d83616433565b9250817fffffffffffffffffffffffffffffffffffffffffffffffffffffffffffffffff04831182151516156163b6576163b561655c565b5b828202905092915050565b60006163cc82616433565b91506163d783616433565b9250828210156163ea576163e961655c565b5b828203905092915050565b600061640082616413565b9050919050565b60008115159050919050565b600073ffffffffffffffffffffffffffffffffffffffff82169050919050565b6000819050919050565b600060ff82169050919050565b60006164558261645c565b9050919050565b600061646782616413565b9050919050565b82818337600083830152505050565b60005b8381101561649b578082015181840152602081019050616480565b838111156164aa576000848401525b50505050565b600060028204905060018216806164c857607f821691505b602082108114156164dc576164db6165ba565b5b50919050565b6164eb82616618565b810181811067ffffffffffffffff8211171561650a576165096165e9565b5b80604052505050565b600061651e82616433565b91507fffffffffffffffffffffffffffffffffffffffffffffffffffffffffffffffff8214156165515761655061655c565b5b600182019050919050565b7f4e487b7100000000000000000000000000000000000000000000000000000000600052601160045260246000fd5b7f4e487b7100000000000000000000000000000000000000000000000000000000600052601260045260246000fd5b7f4e487b7100000000000000000000000000000000000000000000000000000000600052602260045260246000fd5b7f4e487b7100000000000000000000000000000000000000000000000000000000600052604160045260246000fd5b6000601f19601f8301169050919050565b60008160011c9050919050565b7f546865207472616e7366657220616d6f756e742065786365656473207468652060008201527f6d61785478416d6f756e742e0000000000000000000000000000000000000000602082015250565b7f5468652063616c6c6572206973206e6f7420746865206f776e6572206e6f722060008201527f616e2061757468656e74696361746564204176617261206d6f64756c65210000602082015250565b7f546865206163636f756e7420697320616c7265616479206578636c7564656421600082015250565b7f54686520616d6f756e74206d757374206265206c657373207468616e2074686560008201527f20737570706c7921000000000000000000000000000000000000000000000000602082015250565b7f4f776e61626c653a20546865206e6577206f776e6572206973206e6f772c207460008201527f6865207a65726f20616464726573732100000000000000000000000000000000602082015250565b7f496e76616c696420616d6f756e74210000000000000000000000000000000000600082015250565b7f4f776e61626c653a205468652063616c6c6572206973206e6f7420746865206f60008201527f776e657221000000000000000000000000000000000000000000000000000000602082015250565b7f42455032303a2043616e6e6f74207472616e736665722066726f6d207468652060008201527f7a65726f20616464726573732e00000000000000000000000000000000000000602082015250565b7f42455032303a2043616e6e6f7420617070726f76652066726f6d20746865207a60008201527f65726f20616464726573732e0000000000000000000000000000000000000000602082015250565b7f54686520616d6f756e74206d757374206265206c657373207468616e2074686560008201527f20746f74616c2072657761726473210000000000000000000000000000000000602082015250565b7f42455032303a2043616e6e6f74207472616e7366657220746f20746865207a6560008201527f726f20616464726573732e000000000000000000000000000000000000000000602082015250565b7f42455032303a2043616e6e6f7420617070726f766520746f20746865207a657260008201527f6f20616464726573732e00000000000000000000000000000000000000000000602082015250565b7f546865207472616e7366657220616d6f756e74206d757374206265206772656160008201527f746572207468616e207a65726f21000000000000000000000000000000000000602082015250565b7f546865206163636f756e7420697320616c726561647920696e636c7564656421600082015250565b616a1f816163f5565b8114616a2a57600080fd5b50565b616a3681616407565b8114616a4157600080fd5b50565b616a4d81616433565b8114616a5857600080fd5b5056fe42455032303a20546865207472616e7366657220616d6f756e7420657863656564732074686520616c6c6f77616e63652ea2646970667358221220f39f0b2f017c6a56085590f7d7cd2c774c8d430ddef468c8ffc8a4434ca3263664736f6c63430008040033",
  "immutableReferences": {},
  "source": "/**\n    ***********************************************************\n    * Copyright (c) Avara Dev. 2021. (Telegram: @avara_cc)  *\n    ***********************************************************\n\n             \n          \n       \n         \n        .       .       - Binance Smart Chain\n\n    Avara - Always Vivid, Always Rising Above\n    https://avara.cc/\n    https://github.com/avara-cc\n    https://github.com/avara-cc/Avara/wiki\n*/\n\n// SPDX-License-Identifier: AGPL-3.0-or-later\n\npragma solidity 0.8.4;\n\nimport \"./abstract/Context.sol\";\nimport \"./interface/common/IBEP20.sol\";\nimport \"./abstract/Ownable.sol\";\nimport \"./library/SafeMath.sol\";\nimport \"./interface/pancake/IPancakeRouter02.sol\";\nimport \"./interface/pancake/IPancakePair.sol\";\nimport \"./interface/pancake/IPancakeFactory.sol\";\n\ncontract Avara is Context, IBEP20, Ownable {\n    using SafeMath for uint256;\n\n    //\n    // Reward, fee and wallet related variables.\n    //\n    mapping(address => uint256) private _rewardOwned;\n    mapping(address => uint256) private _tokenOwned;\n    mapping(address => bool)    private _isExcludedFromFee;\n    mapping(address => bool)    private _isExcluded;\n    mapping(address => mapping(address => uint256)) private _allowances;\n\n    address[] private _excluded;\n    address public _devWallet;\n\n    //\n    // Summary of the fees\n    //\n    uint256 private _bitDuelServiceFeeTotal;\n    uint256 private _developerFeeTotal;\n    uint256 private _eventFeeTotal;\n    uint256 private _feeTotal;\n    uint256 private _marketingFeeTotal;\n\n    //\n    // AvaraToken metadata\n    //\n    string private constant _tokenName = \"AVARA\";\n    string private constant _tokenSymbol = \"AVR\";\n    uint8 private constant _tokenDecimals = 9;\n\n    uint256 private constant MAX = ~uint256(0);\n    uint256 private constant _totalSupply = 500000000 * 10 ** uint256(_tokenDecimals);\n    uint256 private _rewardSupply = (MAX - (MAX % _totalSupply));\n\n    // 2% is going to the be the founding of the upcoming Events\n    uint256 public _eventFee = 200;\n    // 3% is going to Marketing.\n    uint256 public _marketingFee = 400;\n    // 3% is going to the Developers.\n    uint256 public _developerFee = 400;\n    // 2% service fee on BitDuel.\n    uint256 public _bitDuelServiceFee = 200;\n\n    uint256 public _maxTxAmount = 250000000 * 10 ** uint256(_tokenDecimals);\n\n    //\n    // BitDuel\n    //\n    mapping(address => uint256) private _playerPool;\n    address public _playerPoolWallet;\n\n    // A constant, used for checking the connection between the server and the contract.\n    string private constant _pong = \"PONG\";\n\n    //\n    // Liquidity related fields.\n    //\n\n    // The address of the PancakeRouter\n    address private constant _routerAddress = 0x10ED43C718714eb63d5aA57B78B54704E256024E;\n\n    IPancakeRouter02 public _pancakeSwapV2Router;\n    address public _pancakeSwapV2Pair;\n\n    event EventFeeChanged(uint256 oldFee, uint256 newFee);\n    event MarketingFeeChanged(uint256 oldFee, uint256 newFee);\n    event DeveloperFeeChanged(uint256 oldFee, uint256 newFee);\n    event BitDuelServiceFeeChanged(uint256 oldFee, uint256 newFee);\n    event DevWalletChanged(address oldAddress, address newAddress);\n    event PlayerPoolChanged(address oldAddress, address newAddress);\n    event PancakeRouterChanged(address oldAddress, address newAddress);\n    event PancakePairChanged(address oldAddress, address newAddress);\n    event MaxTransactionAmountChanged(uint256 oldAmount, uint256 newAmount);\n    event Received(address sender, uint value);\n    event FallBack(address sender, uint value);\n\n    /**\n    * @dev Executed on a call to the contract with empty call data.\n    */\n    receive() external payable {\n        emit Received(msg.sender, msg.value);\n    }\n\n    /**\n    * @dev Executed on a call to the contract that does not match any of the contract functions.\n    */\n    fallback() external payable {\n        emit FallBack(msg.sender, msg.value);\n    }\n\n    //\n    // The token constructor.\n    //\n\n    constructor (address cOwner, address devWallet, address playerPoolWallet) Ownable(cOwner) {\n        _devWallet = devWallet;\n        _playerPoolWallet = playerPoolWallet;\n\n        _rewardOwned[cOwner] = _rewardSupply;\n        _pancakeSwapV2Router = IPancakeRouter02(_routerAddress);\n\n        // Exclude the system addresses from the fee.\n        _isExcludedFromFee[owner()] = true;\n        _isExcludedFromFee[address(this)] = true;\n        _isExcludedFromFee[_devWallet] = true;\n\n        emit Transfer(address(0), cOwner, _totalSupply);\n    }\n\n    //\n    // Contract Modules\n    //\n\n    struct Module {\n        string moduleName;\n        string moduleVersion;\n        address moduleAddress;\n    }\n\n    Module[] private modules;\n\n    event ModuleAdded(address moduleAddress, string moduleName, string moduleVersion);\n    event ModuleRemoved(string moduleName);\n\n    /**\n    * @dev Adds a module to the contract with the given ModuleName and Version on the given ModuleAddress.\n    */\n    function addModule(string memory moduleName, string memory moduleVersion, address moduleAddress) external onlyOwner {\n        Module memory module;\n        module.moduleVersion = moduleVersion;\n        module.moduleAddress = moduleAddress;\n        module.moduleName = moduleName;\n\n        bool added = false;\n        for (uint256 i = 0; i < modules.length; i++) {\n            if (keccak256(abi.encodePacked(modules[i].moduleName)) == keccak256(abi.encodePacked(moduleName))) {\n                modules[i] = module;\n                added = true;\n            }\n        }\n\n        if (!added) {\n            modules.push(module);\n\n            emit ModuleAdded(moduleAddress, moduleName, moduleVersion);\n        }\n    }\n\n    /**\n    * @dev Removes a module from the contract.\n    */\n    function removeModule(string memory moduleName) external onlyOwner {\n        uint256 index;\n        bool found = false;\n        for (uint256 i = 0; i < modules.length; i++) {\n            if (keccak256(abi.encodePacked(modules[i].moduleName)) == keccak256(abi.encodePacked(moduleName))) {\n                index = i;\n                found = true;\n            }\n        }\n\n        if (found) {\n            modules[index] = modules[modules.length - 1];\n            delete modules[modules.length - 1];\n            modules.pop();\n\n            emit ModuleRemoved(moduleName);\n        }\n    }\n\n    /**\n    * @dev Retrieves a 2-tuple (success? + search result) by the given ModuleName.\n    */\n    function getModule(string memory moduleName) external view returns (bool, Module memory) {\n        Module memory result;\n        bool found = false;\n        for (uint256 i = 0; i < modules.length; i++) {\n            if (keccak256(abi.encodePacked(modules[i].moduleName)) == keccak256(abi.encodePacked(moduleName))) {\n                result = modules[i];\n                found = true;\n            }\n        }\n        return (found, result);\n    }\n\n    /**\n    * @dev A modifier that requires the message sender to be the owner of the contract or a Module on the contract.\n    */\n    modifier onlyOwnerOrModule() {\n        bool isModule = false;\n        for (uint256 i = 0; i < modules.length; i++) {\n            if (modules[i].moduleAddress == _msgSender()) {\n                isModule = true;\n            }\n        }\n\n        require(isModule || owner() == _msgSender(), \"The caller is not the owner nor an authenticated Avara module!\");\n        _;\n    }\n\n    //\n    // BitDuel functions\n    //\n\n    /**\n    * @dev Occasionally called (only) by the server to make sure that the connection with the contract is granted.\n    */\n    function ping() external view onlyOwnerOrModule returns (string memory) {\n        return _pong;\n    }\n\n    /**\n    * @dev A function used to withdraw from the player pool.\n    */\n    function withdraw(uint256 amount) external {\n        require(_playerPool[_msgSender()] >= amount, \"Invalid amount!\");\n        _transfer(_playerPoolWallet, _msgSender(), amount);\n        _playerPool[_msgSender()] -= amount;\n    }\n\n    /**\n    * @dev Retrieve the balance of a player from the player pool.\n    */\n    function balanceInPlayerPool(address playerAddress) external view returns (uint256) {\n        return _playerPool[playerAddress];\n    }\n\n    /**\n    * @dev Called by BitDuel after a won / lost game, to set the new balance of a user in the player pool.\n    * The gas price is provided by BitDuel.\n    */\n    function setPlayerBalance(address playerAddress, uint256 balance) external onlyOwnerOrModule {\n        _playerPool[playerAddress] = balance;\n    }\n\n    //\n    // Reward and Token related functionalities\n    //\n\n    struct RewardValues {\n        uint256 rAmount;\n        uint256 rTransferAmount;\n        uint256 rewardMarketingFee;\n        uint256 rewardDeveloperFee;\n        uint256 rewardEventFee;\n        uint256 rewardBitDuelServiceFee;\n    }\n\n    struct TokenValues {\n        uint256 tTransferAmount;\n        uint256 bitDuelServiceFee;\n        uint256 marketingFee;\n        uint256 developerFee;\n        uint256 eventFee;\n    }\n\n    /**\n    * @dev Retrieves the Reward equivalent of the given Token amount. (With the Fees optionally included or excluded.)\n    */\n    function rewardFromToken(uint256 tAmount, bool deductTransferFee) public view returns (uint256) {\n        require(tAmount <= _totalSupply, \"The amount must be less than the supply!\");\n\n        if (!deductTransferFee) {\n            uint256 currentRate = _getRate();\n            (TokenValues memory tv) = _getTokenValues(tAmount, address(0));\n            (RewardValues memory rv) = _getRewardValues(tAmount, tv, currentRate);\n\n            return rv.rAmount;\n        } else {\n            uint256 currentRate = _getRate();\n            (TokenValues memory tv) = _getTokenValues(tAmount, address(0));\n            (RewardValues memory rv) = _getRewardValues(tAmount, tv, currentRate);\n\n            return rv.rTransferAmount;\n        }\n    }\n\n    /**\n    * @dev Retrieves the Token equivalent of the given Reward amount.\n    */\n    function tokenFromReward(uint256 rAmount) public view returns (uint256) {\n        require(rAmount <= _rewardSupply, \"The amount must be less than the total rewards!\");\n\n        uint256 currentRate = _getRate();\n        return rAmount.div(currentRate);\n    }\n\n    /**\n    * @dev Excludes an address from the Reward process.\n    */\n    function excludeFromReward(address account) public onlyOwner {\n        require(!_isExcluded[account], \"The account is already excluded!\");\n\n        if (_rewardOwned[account] > 0) {\n            _tokenOwned[account] = tokenFromReward(_rewardOwned[account]);\n        }\n        _isExcluded[account] = true;\n        _excluded.push(account);\n    }\n\n    /**\n    * @dev Includes an address in the Reward process.\n    */\n    function includeInReward(address account) external onlyOwner {\n        require(_isExcluded[account], \"The account is already included!\");\n\n        for (uint256 i = 0; i < _excluded.length; i++) {\n            if (_excluded[i] == account) {\n                _excluded[i] = _excluded[_excluded.length - 1];\n                _tokenOwned[account] = 0;\n                _isExcluded[account] = false;\n                _excluded.pop();\n                break;\n            }\n        }\n    }\n\n    /**\n    * @dev Retrieves the Total Fees deducted to date.\n    */\n    function totalFees() public view returns (uint256) {\n        return _feeTotal;\n    }\n\n    /**\n    * @dev Retrieves the Total Marketing Fees deducted to date.\n    */\n    function totalMarketingFees() public view returns (uint256) {\n        return _marketingFeeTotal;\n    }\n\n    /**\n    * @dev Retrieves the Total Event Fees deducted to date.\n    */\n    function totalEventFees() public view returns (uint256) {\n        return _eventFeeTotal;\n    }\n\n    /**\n    * @dev Retrieves the Total Development Fees deducted to date.\n    */\n    function totalDevelopmentFees() public view returns (uint256) {\n        return _developerFeeTotal;\n    }\n\n    /**\n    * @dev Retrieves the Total BitDuel Service Fees deducted to date.\n    */\n    function totalBitDuelServiceFees() public view returns (uint256) {\n        return _bitDuelServiceFeeTotal;\n    }\n\n    /**\n    * @dev Excludes an address from the Fee process.\n    */\n    function excludeFromFee(address account) public onlyOwner {\n        _isExcludedFromFee[account] = true;\n    }\n\n    /**\n    * @dev Includes an address in the Fee process.\n    */\n    function includeInFee(address account) public onlyOwner {\n        _isExcludedFromFee[account] = false;\n    }\n\n    /**\n    * @dev Sets the given address as the Developer Wallet.\n    */\n    function setDevWallet(address devWallet) external onlyOwner {\n        address oldAddress = _devWallet;\n        _isExcludedFromFee[oldAddress] = false;\n        _devWallet = devWallet;\n        _isExcludedFromFee[_devWallet] = true;\n\n        emit DevWalletChanged(oldAddress, _devWallet);\n    }\n\n    /**\n    * @dev Sets the given address as the Player Pool Hot Wallet.\n    */\n    function setPlayerPoolWallet(address playerPoolWallet) external onlyOwner {\n        address oldAddress = _playerPoolWallet;\n        _playerPoolWallet = playerPoolWallet;\n\n        emit PlayerPoolChanged(oldAddress, _playerPoolWallet);\n    }\n\n    /**\n    * @dev Sets the Marketing Fee percentage.\n    */\n    function setMarketingFeePercent(uint256 marketingFee) external onlyOwner {\n        uint256 oldFee = _marketingFee;\n        _marketingFee = marketingFee;\n\n        emit MarketingFeeChanged(oldFee, _marketingFee);\n    }\n\n    /**\n    * @dev Sets the Developer Fee percentage.\n    */\n    function setDeveloperFeePercent(uint256 developerFee) external onlyOwner {\n        uint256 oldFee = _developerFee;\n        _developerFee = developerFee;\n\n        emit DeveloperFeeChanged(oldFee, _developerFee);\n    }\n\n    /**\n    * @dev Sets the BitDuel Service Fee percentage.\n    */\n    function setBitDuelServiceFeePercent(uint256 bitDuelServiceFee) external onlyOwner {\n        uint256 oldFee = _bitDuelServiceFee;\n        _bitDuelServiceFee = bitDuelServiceFee;\n\n        emit BitDuelServiceFeeChanged(oldFee, _bitDuelServiceFee);\n    }\n\n    /**\n    * @dev Sets the Event Fee percentage.\n    */\n    function setEventFeePercent(uint256 eventFee) external onlyOwner {\n        uint256 oldFee = _eventFee;\n        _eventFee = eventFee;\n\n        emit EventFeeChanged(oldFee, _eventFee);\n    }\n\n    /**\n    * @dev Sets the maximum transaction amount. (calculated by the given percentage)\n    */\n    function setMaxTxPercent(uint256 maxTxPercent) external onlyOwner {\n        uint256 oldAmount = _maxTxAmount;\n        _maxTxAmount = _totalSupply.mul(maxTxPercent).div(100);\n\n        emit MaxTransactionAmountChanged(oldAmount, _maxTxAmount);\n    }\n\n    /**\n    * @dev Retrieves if the given address is excluded from the Fee process.\n    */\n    function isExcludedFromFee(address account) public view returns (bool) {\n        return _isExcludedFromFee[account];\n    }\n\n    /**\n    * @dev Retrieves if the given address is excluded from the Reward process.\n    */\n    function isExcludedFromReward(address account) public view returns (bool) {\n        return _isExcluded[account];\n    }\n\n    /**\n    * @dev Sets the given address as the Pancake Swap Router.\n    */\n    function setPancakeSwapRouter(address r) external onlyOwner {\n        address oldRouter = address(_pancakeSwapV2Router);\n        IPancakeRouter02 pancakeSwapV2Router = IPancakeRouter02(r);\n        _pancakeSwapV2Router = pancakeSwapV2Router;\n\n        emit PancakeRouterChanged(oldRouter, address(_pancakeSwapV2Router));\n    }\n\n    /**\n    * @dev Sets the given address as the Pancake Swap Pair.\n    */\n    function setPancakeSwapPair(address p) external onlyOwner {\n        address oldPair = _pancakeSwapV2Pair;\n        _pancakeSwapV2Pair = p;\n\n        emit PancakePairChanged(oldPair, _pancakeSwapV2Pair);\n    }\n\n    //\n    // The Implementation of the IBEP20 Functions\n    //\n\n    /**\n    * @dev Retrieves the Total Supply of the token.\n    */\n    function totalSupply() external pure override returns (uint256) {\n        return _totalSupply;\n    }\n\n    /**\n    * @dev Retrieves the Number of Decimal Points of the token.\n    */\n    function decimals() external pure override returns (uint8) {\n        return _tokenDecimals;\n    }\n\n    /**\n    * @dev Retrieves the Symbol of the token.\n    */\n    function symbol() external pure override returns (string memory) {\n        return _tokenSymbol;\n    }\n\n    /**\n    * @dev Retrieves the Name of the Token.\n    */\n    function name() external pure override returns (string memory) {\n        return _tokenName;\n    }\n\n    /**\n    * @dev Retrieves the Owner of the token.\n    */\n    function getOwner() external view override returns (address) {\n        return owner();\n    }\n\n    /**\n    * @dev Retrieves the Balance Of the given address.\n    * Note: If the address is included in the Reward process, retrieves the Token equivalent of the held Reward amount.\n    */\n    function balanceOf(address account) public view override returns (uint256) {\n        if (_isExcluded[account]) return _tokenOwned[account];\n        return tokenFromReward(_rewardOwned[account]);\n    }\n\n    /**\n    * @dev Transfers the given Amount of tokens (minus the fees, if any) from the\n    * Message Senders wallet to the Recipients wallet.\n    *\n    * Note: If the Recipient is the Player Pool Hot Wallet, the Message Sender will be able to play with\n    * the transferred amount of Tokens on BitDuel.\n    */\n    function transfer(address recipient, uint256 amount) external override returns (bool) {\n        if (recipient == _playerPoolWallet) {\n            _playerPool[_msgSender()] += _transfer(_msgSender(), recipient, amount);\n        } else {\n            _transfer(_msgSender(), recipient, amount);\n        }\n        return true;\n    }\n\n    /**\n    * @dev Retrieves the Allowance of the given Spender address in the given Owner wallet.\n    */\n    function allowance(address owner, address spender) external view override returns (uint256) {\n        return _allowances[owner][spender];\n    }\n\n    /**\n    * @dev Approves the given amount for the given Spender address in the Message Sender wallet.\n    */\n    function approve(address spender, uint256 amount) external override returns (bool) {\n        _approve(_msgSender(), spender, amount);\n        return true;\n    }\n\n    /**\n    * @dev Transfers the given Amount of tokens from the Sender to the Recipient address\n    * if the Sender approved on the Message Sender allowances.\n    */\n    function transferFrom(address sender, address recipient, uint256 amount) external override returns (bool) {\n        _transfer(sender, recipient, amount);\n        _approve(sender, _msgSender(), _allowances[sender][_msgSender()].sub(amount, \"BEP20: The transfer amount exceeds the allowance.\"));\n        return true;\n    }\n\n    //\n    // Transfer and Approval processes\n    //\n\n    /**\n    * @dev Approves the given amount for the given Spender address in the Owner wallet.\n    */\n    function _approve(address owner, address spender, uint256 amount) private {\n        require(owner != address(0), \"BEP20: Cannot approve from the zero address.\");\n        require(spender != address(0), \"BEP20: Cannot approve to the zero address.\");\n\n        _allowances[owner][spender] = amount;\n        emit Approval(owner, spender, amount);\n    }\n\n    /**\n     * @dev Transfers from and to the given address the given amount of token.\n     */\n    function _transfer(address from, address to, uint256 amount) private returns (uint256) {\n        require(from != address(0), \"BEP20: Cannot transfer from the zero address.\");\n        require(to != address(0), \"BEP20: Cannot transfer to the zero address.\");\n        require(amount > 0, \"The transfer amount must be greater than zero!\");\n\n        if (from != owner() && to != owner()) {\n            require(amount <= _maxTxAmount, \"The transfer amount exceeds the maxTxAmount.\");\n        }\n\n        bool takeFee = !(_isExcludedFromFee[from] || _isExcludedFromFee[to] || from == _playerPoolWallet);\n        return _tokenTransfer(from, to, amount, takeFee);\n    }\n\n    /**\n    * @dev Transfers the given Amount of tokens (minus the fees, if any) from the\n    * Senders wallet to the Recipients wallet.\n    */\n    function _tokenTransfer(address sender, address recipient, uint256 amount, bool takeFee) private returns (uint256) {\n        uint256 previousBitDuelServiceFee = _bitDuelServiceFee;\n        uint256 previousDeveloperFee = _developerFee;\n        uint256 previousEventFee = _eventFee;\n        uint256 previousMarketingFee = _marketingFee;\n\n        if (!takeFee) {\n            _bitDuelServiceFee = 0;\n            _developerFee = 0;\n            _eventFee = 0;\n            _marketingFee = 0;\n        }\n\n        uint256 transferredAmount;\n        if (_isExcluded[sender] && !_isExcluded[recipient]) {\n            transferredAmount = _transferFromExcluded(sender, recipient, amount);\n        } else if (!_isExcluded[sender] && _isExcluded[recipient]) {\n            transferredAmount = _transferToExcluded(sender, recipient, amount);\n        } else if (_isExcluded[sender] && _isExcluded[recipient]) {\n            transferredAmount = _transferBothExcluded(sender, recipient, amount);\n        } else {\n            transferredAmount = _transferStandard(sender, recipient, amount);\n        }\n\n        if (!takeFee) {\n            _bitDuelServiceFee = previousBitDuelServiceFee;\n            _developerFee = previousDeveloperFee;\n            _eventFee = previousEventFee;\n            _marketingFee = previousMarketingFee;\n        }\n\n        return transferredAmount;\n    }\n\n    /**\n    * @dev The Transfer function used when both the Sender and Recipient is included in the Reward process.\n    */\n    function _transferStandard(address sender, address recipient, uint256 tAmount) private returns (uint256) {\n        uint256 currentRate = _getRate();\n        (TokenValues memory tv) = _getTokenValues(tAmount, recipient);\n        (RewardValues memory rv) = _getRewardValues(tAmount, tv, currentRate);\n\n        _rewardOwned[sender] = _rewardOwned[sender].sub(rv.rAmount);\n        _rewardOwned[recipient] = _rewardOwned[recipient].add(rv.rTransferAmount);\n\n        takeTransactionFee(_devWallet, tv, currentRate, recipient);\n        _rewardFee(rv);\n        _countTotalFee(tv);\n        emit Transfer(sender, recipient, tv.tTransferAmount);\n\n        return tv.tTransferAmount;\n    }\n\n    /**\n    * @dev The Transfer function used when both the Sender and Recipient is excluded from the Reward process.\n    */\n    function _transferBothExcluded(address sender, address recipient, uint256 tAmount) private returns (uint256) {\n        uint256 currentRate = _getRate();\n        (TokenValues memory tv) = _getTokenValues(tAmount, recipient);\n        (RewardValues memory rv) = _getRewardValues(tAmount, tv, currentRate);\n\n        _tokenOwned[sender] = _tokenOwned[sender].sub(tAmount);\n        _rewardOwned[sender] = _rewardOwned[sender].sub(rv.rAmount);\n        _tokenOwned[recipient] = _tokenOwned[recipient].add(tv.tTransferAmount);\n        _rewardOwned[recipient] = _rewardOwned[recipient].add(rv.rTransferAmount);\n\n        takeTransactionFee(_devWallet, tv, currentRate, recipient);\n        _rewardFee(rv);\n        _countTotalFee(tv);\n        emit Transfer(sender, recipient, tv.tTransferAmount);\n\n        return tv.tTransferAmount;\n    }\n\n    /**\n    * @dev The Transfer function used when the Sender is included and the Recipient is excluded in / from the Reward process.\n    */\n    function _transferToExcluded(address sender, address recipient, uint256 tAmount) private returns (uint256) {\n        uint256 currentRate = _getRate();\n        (TokenValues memory tv) = _getTokenValues(tAmount, recipient);\n        (RewardValues memory rv) = _getRewardValues(tAmount, tv, currentRate);\n\n        _rewardOwned[sender] = _rewardOwned[sender].sub(rv.rAmount);\n        _tokenOwned[recipient] = _tokenOwned[recipient].add(tv.tTransferAmount);\n        _rewardOwned[recipient] = _rewardOwned[recipient].add(rv.rTransferAmount);\n\n        takeTransactionFee(_devWallet, tv, currentRate, recipient);\n        _rewardFee(rv);\n        _countTotalFee(tv);\n        emit Transfer(sender, recipient, tv.tTransferAmount);\n\n        return tv.tTransferAmount;\n    }\n\n    /**\n    * @dev The Transfer function used when the Sender is excluded and the Recipient is included from / in the Reward process.\n    */\n    function _transferFromExcluded(address sender, address recipient, uint256 tAmount) private returns (uint256) {\n        uint256 currentRate = _getRate();\n        (TokenValues memory tv) = _getTokenValues(tAmount, recipient);\n        (RewardValues memory rv) = _getRewardValues(tAmount, tv, currentRate);\n\n        _tokenOwned[sender] = _tokenOwned[sender].sub(tAmount);\n        _rewardOwned[sender] = _rewardOwned[sender].sub(rv.rAmount);\n        _rewardOwned[recipient] = _rewardOwned[recipient].add(rv.rTransferAmount);\n\n        takeTransactionFee(_devWallet, tv, currentRate, recipient);\n        _rewardFee(rv);\n        _countTotalFee(tv);\n        emit Transfer(sender, recipient, tv.tTransferAmount);\n\n        return tv.tTransferAmount;\n    }\n\n    /**\n    * @dev Takes the Reward Fees from the Reward Supply.\n    */\n    function _rewardFee(RewardValues memory rv) private {\n        _rewardSupply = _rewardSupply.sub(rv.rewardMarketingFee).sub(rv.rewardDeveloperFee).sub(rv.rewardEventFee).sub(rv.rewardBitDuelServiceFee);\n    }\n\n    /**\n    * @dev Updates the Fee Counters by the Taken Fees.\n    */\n    function _countTotalFee(TokenValues memory tv) private {\n        _marketingFeeTotal = _marketingFeeTotal.add(tv.marketingFee);\n        _developerFeeTotal = _developerFeeTotal.add(tv.developerFee);\n        _eventFeeTotal = _eventFeeTotal.add(tv.eventFee);\n        _bitDuelServiceFeeTotal = _bitDuelServiceFeeTotal.add(tv.bitDuelServiceFee);\n        _feeTotal = _feeTotal.add(tv.marketingFee).add(tv.developerFee).add(tv.eventFee).add(tv.bitDuelServiceFee);\n    }\n\n    /**\n    * @dev Calculates the Token Values after taking the Fees.\n    */\n    function _getTokenValues(uint256 tAmount, address recipient) private view returns (TokenValues memory) {\n        TokenValues memory tv;\n        uint256 tTransferAmount = tAmount;\n\n        if (recipient == _playerPoolWallet) {\n            uint256 bitDuelServiceFee = tAmount.mul(_bitDuelServiceFee).div(10000);\n            tTransferAmount = tTransferAmount.sub(bitDuelServiceFee);\n\n            tv.tTransferAmount = tTransferAmount;\n            tv.bitDuelServiceFee = bitDuelServiceFee;\n\n            return (tv);\n        }\n\n        uint256 marketingFee = tAmount.mul(_marketingFee).div(10000);\n        uint256 developerFee = tAmount.mul(_developerFee).div(10000);\n        uint256 eventFee = tAmount.mul(_eventFee).div(10000);\n        tTransferAmount = tTransferAmount.sub(marketingFee).sub(developerFee).sub(eventFee);\n\n        tv.tTransferAmount = tTransferAmount;\n        tv.marketingFee = marketingFee;\n        tv.developerFee = developerFee;\n        tv.eventFee = eventFee;\n\n        return (tv);\n    }\n\n    /**\n    * @dev Calculates the Reward Values after taking the Fees.\n    */\n    function _getRewardValues(uint256 tAmount, TokenValues memory tv, uint256 currentRate) private pure returns (RewardValues memory) {\n        RewardValues memory rv;\n\n        uint256 rAmount = tAmount.mul(currentRate);\n        uint256 rewardBitDuelServiceFee = tv.bitDuelServiceFee.mul(currentRate);\n        uint256 rewardMarketingFee = tv.marketingFee.mul(currentRate);\n        uint256 rewardDeveloperFee = tv.developerFee.mul(currentRate);\n        uint256 rewardEventFee = tv.eventFee.mul(currentRate);\n        uint256 rTransferAmount = rAmount.sub(rewardMarketingFee).sub(rewardDeveloperFee).sub(rewardEventFee).sub(rewardBitDuelServiceFee);\n\n        rv.rAmount = rAmount;\n        rv.rTransferAmount = rTransferAmount;\n        rv.rewardBitDuelServiceFee = rewardBitDuelServiceFee;\n        rv.rewardMarketingFee = rewardMarketingFee;\n        rv.rewardDeveloperFee = rewardDeveloperFee;\n        rv.rewardEventFee = rewardEventFee;\n\n        return (rv);\n    }\n\n    /**\n    * @dev Retrieves the Rate between the Reward and Token Supply.\n    */\n    function _getRate() private view returns (uint256) {\n        (uint256 rewardSupply, uint256 tokenSupply) = _getCurrentSupply();\n        return rewardSupply.div(tokenSupply);\n    }\n\n    /**\n    * @dev Retrieves the current Reward and Token Supply.\n    */\n    function _getCurrentSupply() private view returns (uint256, uint256) {\n        uint256 rewardSupply = _rewardSupply;\n        uint256 tokenSupply = _totalSupply;\n        for (uint256 i = 0; i < _excluded.length; i++) {\n            if (_rewardOwned[_excluded[i]] > rewardSupply || _tokenOwned[_excluded[i]] > tokenSupply) return (_rewardSupply, _totalSupply);\n            rewardSupply = rewardSupply.sub(_rewardOwned[_excluded[i]]);\n            tokenSupply = tokenSupply.sub(_tokenOwned[_excluded[i]]);\n        }\n        if (rewardSupply < _rewardSupply.div(_totalSupply)) return (_rewardSupply, _totalSupply);\n        return (rewardSupply, tokenSupply);\n    }\n\n    /**\n    * @dev Takes the given Fees.\n    */\n    function takeTransactionFee(address to, TokenValues memory tv, uint256 currentRate, address recipient) private {\n        uint256 totalFee = recipient == _playerPoolWallet ? (tv.bitDuelServiceFee) : (tv.marketingFee + tv.developerFee + tv.eventFee);\n\n        if (totalFee <= 0) {return;}\n\n        uint256 rAmount = totalFee.mul(currentRate);\n        _rewardOwned[to] = _rewardOwned[to].add(rAmount);\n        if (_isExcluded[to]) {\n            _tokenOwned[to] = _tokenOwned[to].add(totalFee);\n        }\n    }\n}\n",
  "sourcePath": "/home/oncemore/Blockchain/avara-test/contract/contracts/Avara.sol",
  "compiler": {
    "name": "solc",
    "version": "0.8.4+commit.c7e474f2.Emscripten.clang"
  },
  "schemaVersion": "3.3.4",
  "updatedAt": "2022-01-27T08:30:01.496Z",
  "devdoc": {
    "kind": "dev",
    "methods": {
      "addModule(string,string,address)": {
        "details": "Adds a module to the contract with the given ModuleName and Version on the given ModuleAddress."
      },
      "allowance(address,address)": {
        "details": "Retrieves the Allowance of the given Spender address in the given Owner wallet."
      },
      "approve(address,uint256)": {
        "details": "Approves the given amount for the given Spender address in the Message Sender wallet."
      },
      "balanceInPlayerPool(address)": {
        "details": "Retrieve the balance of a player from the player pool."
      },
      "balanceOf(address)": {
        "details": "Retrieves the Balance Of the given address. Note: If the address is included in the Reward process, retrieves the Token equivalent of the held Reward amount."
      },
      "decimals()": {
        "details": "Retrieves the Number of Decimal Points of the token."
      },
      "excludeFromFee(address)": {
        "details": "Excludes an address from the Fee process."
      },
      "excludeFromReward(address)": {
        "details": "Excludes an address from the Reward process."
      },
      "getModule(string)": {
        "details": "Retrieves a 2-tuple (success? + search result) by the given ModuleName."
      },
      "getOwner()": {
        "details": "Retrieves the Owner of the token."
      },
      "includeInFee(address)": {
        "details": "Includes an address in the Fee process."
      },
      "includeInReward(address)": {
        "details": "Includes an address in the Reward process."
      },
      "isExcludedFromFee(address)": {
        "details": "Retrieves if the given address is excluded from the Fee process."
      },
      "isExcludedFromReward(address)": {
        "details": "Retrieves if the given address is excluded from the Reward process."
      },
      "name()": {
        "details": "Retrieves the Name of the Token."
      },
      "owner()": {
        "details": "Returns the address of the current owner."
      },
      "ping()": {
        "details": "Occasionally called (only) by the server to make sure that the connection with the contract is granted."
      },
      "previousOwner()": {
        "details": "Returns the address of the previous owner."
      },
      "removeModule(string)": {
        "details": "Removes a module from the contract."
      },
      "renounceOwnership()": {
        "details": "Leaves the contract without an owner. It won't be possible to call `onlyOwner` functions anymore. Can only be called by the current owner."
      },
      "rewardFromToken(uint256,bool)": {
        "details": "Retrieves the Reward equivalent of the given Token amount. (With the Fees optionally included or excluded.)"
      },
      "setBitDuelServiceFeePercent(uint256)": {
        "details": "Sets the BitDuel Service Fee percentage."
      },
      "setDevWallet(address)": {
        "details": "Sets the given address as the Developer Wallet."
      },
      "setDeveloperFeePercent(uint256)": {
        "details": "Sets the Developer Fee percentage."
      },
      "setEventFeePercent(uint256)": {
        "details": "Sets the Event Fee percentage."
      },
      "setMarketingFeePercent(uint256)": {
        "details": "Sets the Marketing Fee percentage."
      },
      "setMaxTxPercent(uint256)": {
        "details": "Sets the maximum transaction amount. (calculated by the given percentage)"
      },
      "setPancakeSwapPair(address)": {
        "details": "Sets the given address as the Pancake Swap Pair."
      },
      "setPancakeSwapRouter(address)": {
        "details": "Sets the given address as the Pancake Swap Router."
      },
      "setPlayerBalance(address,uint256)": {
        "details": "Called by BitDuel after a won / lost game, to set the new balance of a user in the player pool. The gas price is provided by BitDuel."
      },
      "setPlayerPoolWallet(address)": {
        "details": "Sets the given address as the Player Pool Hot Wallet."
      },
      "symbol()": {
        "details": "Retrieves the Symbol of the token."
      },
      "tokenFromReward(uint256)": {
        "details": "Retrieves the Token equivalent of the given Reward amount."
      },
      "totalBitDuelServiceFees()": {
        "details": "Retrieves the Total BitDuel Service Fees deducted to date."
      },
      "totalDevelopmentFees()": {
        "details": "Retrieves the Total Development Fees deducted to date."
      },
      "totalEventFees()": {
        "details": "Retrieves the Total Event Fees deducted to date."
      },
      "totalFees()": {
        "details": "Retrieves the Total Fees deducted to date."
      },
      "totalMarketingFees()": {
        "details": "Retrieves the Total Marketing Fees deducted to date."
      },
      "totalSupply()": {
        "details": "Retrieves the Total Supply of the token."
      },
      "transfer(address,uint256)": {
        "details": "Transfers the given Amount of tokens (minus the fees, if any) from the Message Senders wallet to the Recipients wallet. Note: If the Recipient is the Player Pool Hot Wallet, the Message Sender will be able to play with the transferred amount of Tokens on BitDuel."
      },
      "transferFrom(address,address,uint256)": {
        "details": "Transfers the given Amount of tokens from the Sender to the Recipient address if the Sender approved on the Message Sender allowances."
      },
      "transferOwnership(address)": {
        "details": "Transfers ownership of the contract to a new account (`newOwner`). Can only be called by the current owner."
      },
      "withdraw(uint256)": {
        "details": "A function used to withdraw from the player pool."
      }
    },
    "version": 1
  },
  "userdoc": {
    "kind": "user",
    "methods": {},
    "version": 1
  }
}