{
  "contractName": "AvaraNft",
  "abi": [
    {
      "inputs": [
        {
          "internalType": "string",
          "name": "name",
          "type": "string"
        },
        {
          "internalType": "string",
          "name": "symbol",
          "type": "string"
        }
      ],
      "stateMutability": "nonpayable",
      "type": "constructor"
    },
    {
      "anonymous": false,
      "inputs": [
        {
          "indexed": true,
          "internalType": "address",
          "name": "owner",
          "type": "address"
        },
        {
          "indexed": true,
          "internalType": "address",
          "name": "approved",
          "type": "address"
        },
        {
          "indexed": true,
          "internalType": "uint256",
          "name": "tokenId",
          "type": "uint256"
        }
      ],
      "name": "Approval",
      "type": "event"
    },
    {
      "anonymous": false,
      "inputs": [
        {
          "indexed": true,
          "internalType": "address",
          "name": "owner",
          "type": "address"
        },
        {
          "indexed": true,
          "internalType": "address",
          "name": "operator",
          "type": "address"
        },
        {
          "indexed": false,
          "internalType": "bool",
          "name": "approved",
          "type": "bool"
        }
      ],
      "name": "ApprovalForAll",
      "type": "event"
    },
    {
      "anonymous": false,
      "inputs": [
        {
          "indexed": true,
          "internalType": "address",
          "name": "from",
          "type": "address"
        },
        {
          "indexed": true,
          "internalType": "address",
          "name": "to",
          "type": "address"
        },
        {
          "indexed": true,
          "internalType": "uint256",
          "name": "tokenId",
          "type": "uint256"
        }
      ],
      "name": "Transfer",
      "type": "event"
    },
    {
      "inputs": [
        {
          "internalType": "address",
          "name": "to",
          "type": "address"
        },
        {
          "internalType": "uint256",
          "name": "tokenId",
          "type": "uint256"
        }
      ],
      "name": "approve",
      "outputs": [],
      "stateMutability": "nonpayable",
      "type": "function"
    },
    {
      "inputs": [
        {
          "internalType": "address",
          "name": "owner",
          "type": "address"
        }
      ],
      "name": "balanceOf",
      "outputs": [
        {
          "internalType": "uint256",
          "name": "",
          "type": "uint256"
        }
      ],
      "stateMutability": "view",
      "type": "function"
    },
    {
      "inputs": [],
      "name": "baseTokenURI",
      "outputs": [
        {
          "internalType": "string",
          "name": "",
          "type": "string"
        }
      ],
      "stateMutability": "view",
      "type": "function"
    },
    {
      "inputs": [
        {
          "internalType": "uint256",
          "name": "tokenId",
          "type": "uint256"
        }
      ],
      "name": "getApproved",
      "outputs": [
        {
          "internalType": "address",
          "name": "",
          "type": "address"
        }
      ],
      "stateMutability": "view",
      "type": "function"
    },
    {
      "inputs": [
        {
          "internalType": "address",
          "name": "owner",
          "type": "address"
        },
        {
          "internalType": "address",
          "name": "operator",
          "type": "address"
        }
      ],
      "name": "isApprovedForAll",
      "outputs": [
        {
          "internalType": "bool",
          "name": "",
          "type": "bool"
        }
      ],
      "stateMutability": "view",
      "type": "function"
    },
    {
      "inputs": [],
      "name": "name",
      "outputs": [
        {
          "internalType": "string",
          "name": "",
          "type": "string"
        }
      ],
      "stateMutability": "view",
      "type": "function"
    },
    {
      "inputs": [],
      "name": "nftIdPointer",
      "outputs": [
        {
          "internalType": "uint256",
          "name": "",
          "type": "uint256"
        }
      ],
      "stateMutability": "view",
      "type": "function"
    },
    {
      "inputs": [
        {
          "internalType": "uint256",
          "name": "tokenId",
          "type": "uint256"
        }
      ],
      "name": "ownerOf",
      "outputs": [
        {
          "internalType": "address",
          "name": "",
          "type": "address"
        }
      ],
      "stateMutability": "view",
      "type": "function"
    },
    {
      "inputs": [
        {
          "internalType": "address",
          "name": "from",
          "type": "address"
        },
        {
          "internalType": "address",
          "name": "to",
          "type": "address"
        },
        {
          "internalType": "uint256",
          "name": "tokenId",
          "type": "uint256"
        }
      ],
      "name": "safeTransferFrom",
      "outputs": [],
      "stateMutability": "nonpayable",
      "type": "function"
    },
    {
      "inputs": [
        {
          "internalType": "address",
          "name": "from",
          "type": "address"
        },
        {
          "internalType": "address",
          "name": "to",
          "type": "address"
        },
        {
          "internalType": "uint256",
          "name": "tokenId",
          "type": "uint256"
        },
        {
          "internalType": "bytes",
          "name": "_data",
          "type": "bytes"
        }
      ],
      "name": "safeTransferFrom",
      "outputs": [],
      "stateMutability": "nonpayable",
      "type": "function"
    },
    {
      "inputs": [
        {
          "internalType": "address",
          "name": "operator",
          "type": "address"
        },
        {
          "internalType": "bool",
          "name": "approved",
          "type": "bool"
        }
      ],
      "name": "setApprovalForAll",
      "outputs": [],
      "stateMutability": "nonpayable",
      "type": "function"
    },
    {
      "inputs": [
        {
          "internalType": "bytes4",
          "name": "interfaceId",
          "type": "bytes4"
        }
      ],
      "name": "supportsInterface",
      "outputs": [
        {
          "internalType": "bool",
          "name": "",
          "type": "bool"
        }
      ],
      "stateMutability": "view",
      "type": "function"
    },
    {
      "inputs": [],
      "name": "symbol",
      "outputs": [
        {
          "internalType": "string",
          "name": "",
          "type": "string"
        }
      ],
      "stateMutability": "view",
      "type": "function"
    },
    {
      "inputs": [
        {
          "internalType": "uint256",
          "name": "tokenId",
          "type": "uint256"
        }
      ],
      "name": "tokenURI",
      "outputs": [
        {
          "internalType": "string",
          "name": "",
          "type": "string"
        }
      ],
      "stateMutability": "view",
      "type": "function"
    },
    {
      "inputs": [
        {
          "internalType": "address",
          "name": "from",
          "type": "address"
        },
        {
          "internalType": "address",
          "name": "to",
          "type": "address"
        },
        {
          "internalType": "uint256",
          "name": "tokenId",
          "type": "uint256"
        }
      ],
      "name": "transferFrom",
      "outputs": [],
      "stateMutability": "nonpayable",
      "type": "function"
    },
    {
      "inputs": [
        {
          "internalType": "string",
          "name": "metaData",
          "type": "string"
        }
      ],
      "name": "mint",
      "outputs": [
        {
          "internalType": "uint256",
          "name": "",
          "type": "uint256"
        }
      ],
      "stateMutability": "nonpayable",
      "type": "function"
    },
    {
      "inputs": [
        {
          "internalType": "string",
          "name": "baseURI",
          "type": "string"
        }
      ],
      "name": "setBaseURI",
      "outputs": [],
      "stateMutability": "nonpayable",
      "type": "function"
    },
    {
      "inputs": [
        {
          "internalType": "uint256",
          "name": "_tokenId",
          "type": "uint256"
        },
        {
          "internalType": "address",
          "name": "_operator",
          "type": "address"
        }
      ],
      "name": "isApproved",
      "outputs": [
        {
          "internalType": "bool",
          "name": "",
          "type": "bool"
        }
      ],
      "stateMutability": "view",
      "type": "function"
    },
    {
      "inputs": [
        {
          "internalType": "uint256",
          "name": "_tokenId",
          "type": "uint256"
        }
      ],
      "name": "exists",
      "outputs": [
        {
          "internalType": "bool",
          "name": "",
          "type": "bool"
        }
      ],
      "stateMutability": "view",
      "type": "function"
    }
  ],
  "bytecode": "0x60806040523480156200001157600080fd5b5060405162002fb538038062002fb5833981810160405281019062000037919062000197565b818181600090805190602001906200005192919062000075565b5080600190805190602001906200006a92919062000075565b50505050506200037a565b82805462000083906200029f565b90600052602060002090601f016020900481019282620000a75760008555620000f3565b82601f10620000c257805160ff1916838001178555620000f3565b82800160010185558215620000f3579182015b82811115620000f2578251825591602001919060010190620000d5565b5b50905062000102919062000106565b5090565b5b808211156200012157600081600090555060010162000107565b5090565b60006200013c620001368462000233565b6200020a565b9050828152602081018484840111156200015557600080fd5b6200016284828562000269565b509392505050565b600082601f8301126200017c57600080fd5b81516200018e84826020860162000125565b91505092915050565b60008060408385031215620001ab57600080fd5b600083015167ffffffffffffffff811115620001c657600080fd5b620001d4858286016200016a565b925050602083015167ffffffffffffffff811115620001f257600080fd5b62000200858286016200016a565b9150509250929050565b60006200021662000229565b9050620002248282620002d5565b919050565b6000604051905090565b600067ffffffffffffffff8211156200025157620002506200033a565b5b6200025c8262000369565b9050602081019050919050565b60005b83811015620002895780820151818401526020810190506200026c565b8381111562000299576000848401525b50505050565b60006002820490506001821680620002b857607f821691505b60208210811415620002cf57620002ce6200030b565b5b50919050565b620002e08262000369565b810181811067ffffffffffffffff821117156200030257620003016200033a565b5b80604052505050565b7f4e487b7100000000000000000000000000000000000000000000000000000000600052602260045260246000fd5b7f4e487b7100000000000000000000000000000000000000000000000000000000600052604160045260246000fd5b6000601f19601f8301169050919050565b612c2b806200038a6000396000f3fe608060405234801561001057600080fd5b50600436106101215760003560e01c806356c31637116100ad578063b88d4fde11610071578063b88d4fde1461032c578063c87b56dd14610348578063d547cfb714610378578063d85d3d2714610396578063e985e9c5146103c657610121565b806356c31637146102625780636352211e1461029257806370a08231146102c257806395d89b41146102f2578063a22cb4651461031057610121565b806323b872dd116100f457806323b872dd146101c057806342842e0e146101dc5780634f558e79146101f85780635017eaa91461022857806355f804b31461024657610121565b806301ffc9a71461012657806306fdde0314610156578063081812fc14610174578063095ea7b3146101a4575b600080fd5b610140600480360381019061013b9190611d3a565b6103f6565b60405161014d91906121bc565b60405180910390f35b61015e6104d8565b60405161016b91906121d7565b60405180910390f35b61018e60048036038101906101899190611e12565b61056a565b60405161019b9190612155565b60405180910390f35b6101be60048036038101906101b99190611cfe565b6105ef565b005b6101da60048036038101906101d59190611bf8565b610707565b005b6101f660048036038101906101f19190611bf8565b610767565b005b610212600480360381019061020d9190611e12565b610787565b60405161021f91906121bc565b60405180910390f35b610230610799565b60405161023d91906123b9565b60405180910390f35b610260600480360381019061025b9190611dd1565b61079f565b005b61027c60048036038101906102779190611e3b565b6107b9565b60405161028991906121bc565b60405180910390f35b6102ac60048036038101906102a79190611e12565b610813565b6040516102b99190612155565b60405180910390f35b6102dc60048036038101906102d79190611b93565b6108c5565b6040516102e991906123b9565b60405180910390f35b6102fa61097d565b60405161030791906121d7565b60405180910390f35b61032a60048036038101906103259190611cc2565b610a0f565b005b61034660048036038101906103419190611c47565b610a25565b005b610362600480360381019061035d9190611e12565b610a87565b60405161036f91906121d7565b60405180910390f35b610380610b2e565b60405161038d91906121d7565b60405180910390f35b6103b060048036038101906103ab9190611d8c565b610bbc565b6040516103bd91906123b9565b60405180910390f35b6103e060048036038101906103db9190611bbc565b610bf4565b6040516103ed91906121bc565b60405180910390f35b60007f80ac58cd000000000000000000000000000000000000000000000000000000007bffffffffffffffffffffffffffffffffffffffffffffffffffffffff1916827bffffffffffffffffffffffffffffffffffffffffffffffffffffffff191614806104c157507f5b5e139f000000000000000000000000000000000000000000000000000000007bffffffffffffffffffffffffffffffffffffffffffffffffffffffff1916827bffffffffffffffffffffffffffffffffffffffffffffffffffffffff1916145b806104d157506104d082610c88565b5b9050919050565b6060600080546104e79061260f565b80601f01602080910402602001604051908101604052809291908181526020018280546105139061260f565b80156105605780601f1061053557610100808354040283529160200191610560565b820191906000526020600020905b81548152906001019060200180831161054357829003601f168201915b5050505050905090565b600061057582610cf2565b6105b4576040517f08c379a00000000000000000000000000000000000000000000000000000000081526004016105ab90612319565b60405180910390fd5b6004600083815260200190815260200160002060009054906101000a900473ffffffffffffffffffffffffffffffffffffffff169050919050565b60006105fa82610813565b90508073ffffffffffffffffffffffffffffffffffffffff168373ffffffffffffffffffffffffffffffffffffffff16141561066b576040517f08c379a000000000000000000000000000000000000000000000000000000000815260040161066290612379565b60405180910390fd5b8073ffffffffffffffffffffffffffffffffffffffff1661068a610d5e565b73ffffffffffffffffffffffffffffffffffffffff1614806106b957506106b8816106b3610d5e565b610bf4565b5b6106f8576040517f08c379a00000000000000000000000000000000000000000000000000000000081526004016106ef90612299565b60405180910390fd5b6107028383610d66565b505050565b610718610712610d5e565b82610e1f565b610757576040517f08c379a000000000000000000000000000000000000000000000000000000000815260040161074e90612399565b60405180910390fd5b610762838383610efd565b505050565b61078283838360405180602001604052806000815250610a25565b505050565b600061079282610cf2565b9050919050565b60065481565b80600790805190602001906107b592919061196d565b5050565b60006107cd6107c784610813565b83610bf4565b8061080b57508173ffffffffffffffffffffffffffffffffffffffff166107f38461056a565b73ffffffffffffffffffffffffffffffffffffffff16145b905092915050565b6000806002600084815260200190815260200160002060009054906101000a900473ffffffffffffffffffffffffffffffffffffffff169050600073ffffffffffffffffffffffffffffffffffffffff168173ffffffffffffffffffffffffffffffffffffffff1614156108bc576040517f08c379a00000000000000000000000000000000000000000000000000000000081526004016108b3906122d9565b60405180910390fd5b80915050919050565b60008073ffffffffffffffffffffffffffffffffffffffff168273ffffffffffffffffffffffffffffffffffffffff161415610936576040517f08c379a000000000000000000000000000000000000000000000000000000000815260040161092d906122b9565b60405180910390fd5b600360008373ffffffffffffffffffffffffffffffffffffffff1673ffffffffffffffffffffffffffffffffffffffff168152602001908152602001600020549050919050565b60606001805461098c9061260f565b80601f01602080910402602001604051908101604052809291908181526020018280546109b89061260f565b8015610a055780601f106109da57610100808354040283529160200191610a05565b820191906000526020600020905b8154815290600101906020018083116109e857829003601f168201915b5050505050905090565b610a21610a1a610d5e565b8383611159565b5050565b610a36610a30610d5e565b83610e1f565b610a75576040517f08c379a0000000000000000000000000000000000000000000000000000000008152600401610a6c90612399565b60405180910390fd5b610a81848484846112c6565b50505050565b6060610a9282610cf2565b610ad1576040517f08c379a0000000000000000000000000000000000000000000000000000000008152600401610ac890612359565b60405180910390fd5b6000610adb611322565b90506000815111610afb5760405180602001604052806000815250610b26565b80610b05846113b4565b604051602001610b16929190612131565b6040516020818303038152906040525b915050919050565b60078054610b3b9061260f565b80601f0160208091040260200160405190810160405280929190818152602001828054610b679061260f565b8015610bb45780601f10610b8957610100808354040283529160200191610bb4565b820191906000526020600020905b815481529060010190602001808311610b9757829003601f168201915b505050505081565b6000806006549050610bda600160065461156190919063ffffffff16565b600681905550610bea3382611577565b8091505092915050565b6000600560008473ffffffffffffffffffffffffffffffffffffffff1673ffffffffffffffffffffffffffffffffffffffff16815260200190815260200160002060008373ffffffffffffffffffffffffffffffffffffffff1673ffffffffffffffffffffffffffffffffffffffff16815260200190815260200160002060009054906101000a900460ff16905092915050565b60007f01ffc9a7000000000000000000000000000000000000000000000000000000007bffffffffffffffffffffffffffffffffffffffffffffffffffffffff1916827bffffffffffffffffffffffffffffffffffffffffffffffffffffffff1916149050919050565b60008073ffffffffffffffffffffffffffffffffffffffff166002600084815260200190815260200160002060009054906101000a900473ffffffffffffffffffffffffffffffffffffffff1673ffffffffffffffffffffffffffffffffffffffff1614159050919050565b600033905090565b816004600083815260200190815260200160002060006101000a81548173ffffffffffffffffffffffffffffffffffffffff021916908373ffffffffffffffffffffffffffffffffffffffff160217905550808273ffffffffffffffffffffffffffffffffffffffff16610dd983610813565b73ffffffffffffffffffffffffffffffffffffffff167f8c5be1e5ebec7d5bd14f71427d1e84f3dd0314c0f7b2291e5b200ac8c7c3b92560405160405180910390a45050565b6000610e2a82610cf2565b610e69576040517f08c379a0000000000000000000000000000000000000000000000000000000008152600401610e6090612279565b60405180910390fd5b6000610e7483610813565b90508073ffffffffffffffffffffffffffffffffffffffff168473ffffffffffffffffffffffffffffffffffffffff161480610ee357508373ffffffffffffffffffffffffffffffffffffffff16610ecb8461056a565b73ffffffffffffffffffffffffffffffffffffffff16145b80610ef45750610ef38185610bf4565b5b91505092915050565b8273ffffffffffffffffffffffffffffffffffffffff16610f1d82610813565b73ffffffffffffffffffffffffffffffffffffffff1614610f73576040517f08c379a0000000000000000000000000000000000000000000000000000000008152600401610f6a90612339565b60405180910390fd5b600073ffffffffffffffffffffffffffffffffffffffff168273ffffffffffffffffffffffffffffffffffffffff161415610fe3576040517f08c379a0000000000000000000000000000000000000000000000000000000008152600401610fda90612239565b60405180910390fd5b610fee838383611595565b610ff9600082610d66565b6001600360008573ffffffffffffffffffffffffffffffffffffffff1673ffffffffffffffffffffffffffffffffffffffff16815260200190815260200160002060008282546110499190612525565b925050819055506001600360008473ffffffffffffffffffffffffffffffffffffffff1673ffffffffffffffffffffffffffffffffffffffff16815260200190815260200160002060008282546110a0919061249e565b92505081905550816002600083815260200190815260200160002060006101000a81548173ffffffffffffffffffffffffffffffffffffffff021916908373ffffffffffffffffffffffffffffffffffffffff160217905550808273ffffffffffffffffffffffffffffffffffffffff168473ffffffffffffffffffffffffffffffffffffffff167fddf252ad1be2c89b69c2b068fc378daa952ba7f163c4a11628f55a4df523b3ef60405160405180910390a4505050565b8173ffffffffffffffffffffffffffffffffffffffff168373ffffffffffffffffffffffffffffffffffffffff1614156111c8576040517f08c379a00000000000000000000000000000000000000000000000000000000081526004016111bf90612259565b60405180910390fd5b80600560008573ffffffffffffffffffffffffffffffffffffffff1673ffffffffffffffffffffffffffffffffffffffff16815260200190815260200160002060008473ffffffffffffffffffffffffffffffffffffffff1673ffffffffffffffffffffffffffffffffffffffff16815260200190815260200160002060006101000a81548160ff0219169083151502179055508173ffffffffffffffffffffffffffffffffffffffff168373ffffffffffffffffffffffffffffffffffffffff167f17307eab39ab6107e8899845ad3d59bd9653f200f220920489ca2b5937696c31836040516112b991906121bc565b60405180910390a3505050565b6112d1848484610efd565b6112dd8484848461159a565b61131c576040517f08c379a0000000000000000000000000000000000000000000000000000000008152600401611313906121f9565b60405180910390fd5b50505050565b6060600780546113319061260f565b80601f016020809104026020016040519081016040528092919081815260200182805461135d9061260f565b80156113aa5780601f1061137f576101008083540402835291602001916113aa565b820191906000526020600020905b81548152906001019060200180831161138d57829003601f168201915b5050505050905090565b606060008214156113fc576040518060400160405280600181526020017f3000000000000000000000000000000000000000000000000000000000000000815250905061155c565b600082905060005b6000821461142e57808061141790612672565b915050600a8261142791906124f4565b9150611404565b60008167ffffffffffffffff811115611470577f4e487b7100000000000000000000000000000000000000000000000000000000600052604160045260246000fd5b6040519080825280601f01601f1916602001820160405280156114a25781602001600182028036833780820191505090505b5090505b60008514611555576001826114bb9190612525565b9150600a856114ca91906126bb565b60306114d6919061249e565b60f81b818381518110611512577f4e487b7100000000000000000000000000000000000000000000000000000000600052603260045260246000fd5b60200101907effffffffffffffffffffffffffffffffffffffffffffffffffffffffffffff1916908160001a905350600a8561154e91906124f4565b94506114a6565b8093505050505b919050565b6000818361156f919061249e565b905092915050565b611591828260405180602001604052806000815250611731565b5050565b505050565b60006115bb8473ffffffffffffffffffffffffffffffffffffffff1661178c565b15611724578373ffffffffffffffffffffffffffffffffffffffff1663150b7a026115e4610d5e565b8786866040518563ffffffff1660e01b81526004016116069493929190612170565b602060405180830381600087803b15801561162057600080fd5b505af192505050801561165157506040513d601f19601f8201168201806040525081019061164e9190611d63565b60015b6116d4573d8060008114611681576040519150601f19603f3d011682016040523d82523d6000602084013e611686565b606091505b506000815114156116cc576040517f08c379a00000000000000000000000000000000000000000000000000000000081526004016116c3906121f9565b60405180910390fd5b805181602001fd5b63150b7a0260e01b7bffffffffffffffffffffffffffffffffffffffffffffffffffffffff1916817bffffffffffffffffffffffffffffffffffffffffffffffffffffffff191614915050611729565b600190505b949350505050565b61173b838361179f565b611748600084848461159a565b611787576040517f08c379a000000000000000000000000000000000000000000000000000000000815260040161177e906121f9565b60405180910390fd5b505050565b600080823b905060008111915050919050565b600073ffffffffffffffffffffffffffffffffffffffff168273ffffffffffffffffffffffffffffffffffffffff16141561180f576040517f08c379a0000000000000000000000000000000000000000000000000000000008152600401611806906122f9565b60405180910390fd5b61181881610cf2565b15611858576040517f08c379a000000000000000000000000000000000000000000000000000000000815260040161184f90612219565b60405180910390fd5b61186460008383611595565b6001600360008473ffffffffffffffffffffffffffffffffffffffff1673ffffffffffffffffffffffffffffffffffffffff16815260200190815260200160002060008282546118b4919061249e565b92505081905550816002600083815260200190815260200160002060006101000a81548173ffffffffffffffffffffffffffffffffffffffff021916908373ffffffffffffffffffffffffffffffffffffffff160217905550808273ffffffffffffffffffffffffffffffffffffffff16600073ffffffffffffffffffffffffffffffffffffffff167fddf252ad1be2c89b69c2b068fc378daa952ba7f163c4a11628f55a4df523b3ef60405160405180910390a45050565b8280546119799061260f565b90600052602060002090601f01602090048101928261199b57600085556119e2565b82601f106119b457805160ff19168380011785556119e2565b828001600101855582156119e2579182015b828111156119e15782518255916020019190600101906119c6565b5b5090506119ef91906119f3565b5090565b5b80821115611a0c5760008160009055506001016119f4565b5090565b6000611a23611a1e846123f9565b6123d4565b905082815260208101848484011115611a3b57600080fd5b611a468482856125cd565b509392505050565b6000611a61611a5c8461242a565b6123d4565b905082815260208101848484011115611a7957600080fd5b611a848482856125cd565b509392505050565b600081359050611a9b81612b99565b92915050565b600081359050611ab081612bb0565b92915050565b600081359050611ac581612bc7565b92915050565b600081519050611ada81612bc7565b92915050565b600082601f830112611af157600080fd5b8135611b01848260208601611a10565b91505092915050565b60008083601f840112611b1c57600080fd5b8235905067ffffffffffffffff811115611b3557600080fd5b602083019150836001820283011115611b4d57600080fd5b9250929050565b600082601f830112611b6557600080fd5b8135611b75848260208601611a4e565b91505092915050565b600081359050611b8d81612bde565b92915050565b600060208284031215611ba557600080fd5b6000611bb384828501611a8c565b91505092915050565b60008060408385031215611bcf57600080fd5b6000611bdd85828601611a8c565b9250506020611bee85828601611a8c565b9150509250929050565b600080600060608486031215611c0d57600080fd5b6000611c1b86828701611a8c565b9350506020611c2c86828701611a8c565b9250506040611c3d86828701611b7e565b9150509250925092565b60008060008060808587031215611c5d57600080fd5b6000611c6b87828801611a8c565b9450506020611c7c87828801611a8c565b9350506040611c8d87828801611b7e565b925050606085013567ffffffffffffffff811115611caa57600080fd5b611cb687828801611ae0565b91505092959194509250565b60008060408385031215611cd557600080fd5b6000611ce385828601611a8c565b9250506020611cf485828601611aa1565b9150509250929050565b60008060408385031215611d1157600080fd5b6000611d1f85828601611a8c565b9250506020611d3085828601611b7e565b9150509250929050565b600060208284031215611d4c57600080fd5b6000611d5a84828501611ab6565b91505092915050565b600060208284031215611d7557600080fd5b6000611d8384828501611acb565b91505092915050565b60008060208385031215611d9f57600080fd5b600083013567ffffffffffffffff811115611db957600080fd5b611dc585828601611b0a565b92509250509250929050565b600060208284031215611de357600080fd5b600082013567ffffffffffffffff811115611dfd57600080fd5b611e0984828501611b54565b91505092915050565b600060208284031215611e2457600080fd5b6000611e3284828501611b7e565b91505092915050565b60008060408385031215611e4e57600080fd5b6000611e5c85828601611b7e565b9250506020611e6d85828601611a8c565b9150509250929050565b611e8081612559565b82525050565b611e8f8161256b565b82525050565b6000611ea08261245b565b611eaa8185612471565b9350611eba8185602086016125dc565b611ec3816127a8565b840191505092915050565b6000611ed982612466565b611ee38185612482565b9350611ef38185602086016125dc565b611efc816127a8565b840191505092915050565b6000611f1282612466565b611f1c8185612493565b9350611f2c8185602086016125dc565b80840191505092915050565b6000611f45603283612482565b9150611f50826127b9565b604082019050919050565b6000611f68601c83612482565b9150611f7382612808565b602082019050919050565b6000611f8b602483612482565b9150611f9682612831565b604082019050919050565b6000611fae601983612482565b9150611fb982612880565b602082019050919050565b6000611fd1602c83612482565b9150611fdc826128a9565b604082019050919050565b6000611ff4603883612482565b9150611fff826128f8565b604082019050919050565b6000612017602a83612482565b915061202282612947565b604082019050919050565b600061203a602983612482565b915061204582612996565b604082019050919050565b600061205d602083612482565b9150612068826129e5565b602082019050919050565b6000612080602c83612482565b915061208b82612a0e565b604082019050919050565b60006120a3602983612482565b91506120ae82612a5d565b604082019050919050565b60006120c6602f83612482565b91506120d182612aac565b604082019050919050565b60006120e9602183612482565b91506120f482612afb565b604082019050919050565b600061210c603183612482565b915061211782612b4a565b604082019050919050565b61212b816125c3565b82525050565b600061213d8285611f07565b91506121498284611f07565b91508190509392505050565b600060208201905061216a6000830184611e77565b92915050565b60006080820190506121856000830187611e77565b6121926020830186611e77565b61219f6040830185612122565b81810360608301526121b18184611e95565b905095945050505050565b60006020820190506121d16000830184611e86565b92915050565b600060208201905081810360008301526121f18184611ece565b905092915050565b6000602082019050818103600083015261221281611f38565b9050919050565b6000602082019050818103600083015261223281611f5b565b9050919050565b6000602082019050818103600083015261225281611f7e565b9050919050565b6000602082019050818103600083015261227281611fa1565b9050919050565b6000602082019050818103600083015261229281611fc4565b9050919050565b600060208201905081810360008301526122b281611fe7565b9050919050565b600060208201905081810360008301526122d28161200a565b9050919050565b600060208201905081810360008301526122f28161202d565b9050919050565b6000602082019050818103600083015261231281612050565b9050919050565b6000602082019050818103600083015261233281612073565b9050919050565b6000602082019050818103600083015261235281612096565b9050919050565b60006020820190508181036000830152612372816120b9565b9050919050565b60006020820190508181036000830152612392816120dc565b9050919050565b600060208201905081810360008301526123b2816120ff565b9050919050565b60006020820190506123ce6000830184612122565b92915050565b60006123de6123ef565b90506123ea8282612641565b919050565b6000604051905090565b600067ffffffffffffffff82111561241457612413612779565b5b61241d826127a8565b9050602081019050919050565b600067ffffffffffffffff82111561244557612444612779565b5b61244e826127a8565b9050602081019050919050565b600081519050919050565b600081519050919050565b600082825260208201905092915050565b600082825260208201905092915050565b600081905092915050565b60006124a9826125c3565b91506124b4836125c3565b9250827fffffffffffffffffffffffffffffffffffffffffffffffffffffffffffffffff038211156124e9576124e86126ec565b5b828201905092915050565b60006124ff826125c3565b915061250a836125c3565b92508261251a5761251961271b565b5b828204905092915050565b6000612530826125c3565b915061253b836125c3565b92508282101561254e5761254d6126ec565b5b828203905092915050565b6000612564826125a3565b9050919050565b60008115159050919050565b60007fffffffff0000000000000000000000000000000000000000000000000000000082169050919050565b600073ffffffffffffffffffffffffffffffffffffffff82169050919050565b6000819050919050565b82818337600083830152505050565b60005b838110156125fa5780820151818401526020810190506125df565b83811115612609576000848401525b50505050565b6000600282049050600182168061262757607f821691505b6020821081141561263b5761263a61274a565b5b50919050565b61264a826127a8565b810181811067ffffffffffffffff8211171561266957612668612779565b5b80604052505050565b600061267d826125c3565b91507fffffffffffffffffffffffffffffffffffffffffffffffffffffffffffffffff8214156126b0576126af6126ec565b5b600182019050919050565b60006126c6826125c3565b91506126d1836125c3565b9250826126e1576126e061271b565b5b828206905092915050565b7f4e487b7100000000000000000000000000000000000000000000000000000000600052601160045260246000fd5b7f4e487b7100000000000000000000000000000000000000000000000000000000600052601260045260246000fd5b7f4e487b7100000000000000000000000000000000000000000000000000000000600052602260045260246000fd5b7f4e487b7100000000000000000000000000000000000000000000000000000000600052604160045260246000fd5b6000601f19601f8301169050919050565b7f4552433732313a207472616e7366657220746f206e6f6e20455243373231526560008201527f63656976657220696d706c656d656e7465720000000000000000000000000000602082015250565b7f4552433732313a20746f6b656e20616c7265616479206d696e74656400000000600082015250565b7f4552433732313a207472616e7366657220746f20746865207a65726f2061646460008201527f7265737300000000000000000000000000000000000000000000000000000000602082015250565b7f4552433732313a20617070726f766520746f2063616c6c657200000000000000600082015250565b7f4552433732313a206f70657261746f7220717565727920666f72206e6f6e657860008201527f697374656e7420746f6b656e0000000000000000000000000000000000000000602082015250565b7f4552433732313a20617070726f76652063616c6c6572206973206e6f74206f7760008201527f6e6572206e6f7220617070726f76656420666f7220616c6c0000000000000000602082015250565b7f4552433732313a2062616c616e636520717565727920666f7220746865207a6560008201527f726f206164647265737300000000000000000000000000000000000000000000602082015250565b7f4552433732313a206f776e657220717565727920666f72206e6f6e657869737460008201527f656e7420746f6b656e0000000000000000000000000000000000000000000000602082015250565b7f4552433732313a206d696e7420746f20746865207a65726f2061646472657373600082015250565b7f4552433732313a20617070726f76656420717565727920666f72206e6f6e657860008201527f697374656e7420746f6b656e0000000000000000000000000000000000000000602082015250565b7f4552433732313a207472616e73666572206f6620746f6b656e2074686174206960008201527f73206e6f74206f776e0000000000000000000000000000000000000000000000602082015250565b7f4552433732314d657461646174613a2055524920717565727920666f72206e6f60008201527f6e6578697374656e7420746f6b656e0000000000000000000000000000000000602082015250565b7f4552433732313a20617070726f76616c20746f2063757272656e74206f776e6560008201527f7200000000000000000000000000000000000000000000000000000000000000602082015250565b7f4552433732313a207472616e736665722063616c6c6572206973206e6f74206f60008201527f776e6572206e6f7220617070726f766564000000000000000000000000000000602082015250565b612ba281612559565b8114612bad57600080fd5b50565b612bb98161256b565b8114612bc457600080fd5b50565b612bd081612577565b8114612bdb57600080fd5b50565b612be7816125c3565b8114612bf257600080fd5b5056fea26469706673582212205275a08da8624bfa5740193a882836ececab843b0f2bdf14b112630c03ba0cf064736f6c63430008040033",
  "immutableReferences": {},
  "source": "\n// SPDX-License-Identifier: AGPL-3.0-or-later\n\npragma solidity 0.8.4;\n// contract AvaraNft is ERC721{\n    // uint256 public nftIdPointer;\n    // constructor(string memory name, string memory symbol) ERC721(name, symbol) {}\n    // function mint(string calldata metaData) public returns(uint256) {\n    //     uint256 nftId;\n    //     nftId = nftIdPointer;\n    //     nftIdPointer = nftIdPointer.add(1);\n    //     _safeMint(msg.sender, nftId);\n    //     return nftId;\n    // }\n// }\n\nimport \"@openzeppelin/contracts/token/ERC721/ERC721.sol\";\nimport \"@openzeppelin/contracts/utils/math/SafeMath.sol\";\n\ncontract AvaraNft is ERC721 {\n    using SafeMath for uint256; \n    uint256 public nftIdPointer;\n    string public baseTokenURI;\n    constructor(string memory name, string memory symbol) ERC721(name, symbol) {}\n    function mint(string calldata metaData) public returns(uint256) {\n        uint256 nftId;\n        nftId = nftIdPointer;\n        nftIdPointer = nftIdPointer.add(1);\n        _safeMint(msg.sender, nftId);\n        return nftId;\n    }\n    function _baseURI() internal view virtual override returns (string memory) {\n        return baseTokenURI;\n    }\n    function setBaseURI(string memory baseURI) public {\n        baseTokenURI = baseURI;\n    }\n    function isApproved(uint256 _tokenId, address _operator) public view returns (bool) {\n        return isApprovedForAll(ownerOf(_tokenId), _operator) || getApproved(_tokenId) == _operator;\n    }\n    function exists(uint256 _tokenId) external view returns (bool) {\n        return _exists(_tokenId);\n    }\n}",
  "sourcePath": "/home/oncemore/Blockchain/avara-test/contract/contracts/NFT/AvaraNft.sol",
  "compiler": {
    "name": "solc",
    "version": "0.8.4+commit.c7e474f2.Emscripten.clang"
  },
  "schemaVersion": "3.3.4",
  "updatedAt": "2022-01-27T15:46:36.858Z",
  "devdoc": {
    "kind": "dev",
    "methods": {
      "approve(address,uint256)": {
        "details": "See {IERC721-approve}."
      },
      "balanceOf(address)": {
        "details": "See {IERC721-balanceOf}."
      },
      "getApproved(uint256)": {
        "details": "See {IERC721-getApproved}."
      },
      "isApprovedForAll(address,address)": {
        "details": "See {IERC721-isApprovedForAll}."
      },
      "name()": {
        "details": "See {IERC721Metadata-name}."
      },
      "ownerOf(uint256)": {
        "details": "See {IERC721-ownerOf}."
      },
      "safeTransferFrom(address,address,uint256)": {
        "details": "See {IERC721-safeTransferFrom}."
      },
      "safeTransferFrom(address,address,uint256,bytes)": {
        "details": "See {IERC721-safeTransferFrom}."
      },
      "setApprovalForAll(address,bool)": {
        "details": "See {IERC721-setApprovalForAll}."
      },
      "supportsInterface(bytes4)": {
        "details": "See {IERC165-supportsInterface}."
      },
      "symbol()": {
        "details": "See {IERC721Metadata-symbol}."
      },
      "tokenURI(uint256)": {
        "details": "See {IERC721Metadata-tokenURI}."
      },
      "transferFrom(address,address,uint256)": {
        "details": "See {IERC721-transferFrom}."
      }
    },
    "version": 1
  },
  "userdoc": {
    "kind": "user",
    "methods": {},
    "version": 1
  }
}