{
  "contractName": "BitDuelModule",
  "abi": [
    {
      "inputs": [
        {
          "internalType": "address",
          "name": "cOwner",
          "type": "address"
        },
        {
          "internalType": "address",
          "name": "baseContract",
          "type": "address"
        }
      ],
      "stateMutability": "nonpayable",
      "type": "constructor"
    },
    {
      "anonymous": false,
      "inputs": [
        {
          "indexed": false,
          "internalType": "address",
          "name": "gmAddress",
          "type": "address"
        }
      ],
      "name": "GameMasterAdded",
      "type": "event"
    },
    {
      "anonymous": false,
      "inputs": [
        {
          "indexed": false,
          "internalType": "address",
          "name": "gmAddress",
          "type": "address"
        }
      ],
      "name": "GameMasterRemoved",
      "type": "event"
    },
    {
      "anonymous": false,
      "inputs": [
        {
          "indexed": true,
          "internalType": "address",
          "name": "previousOwner",
          "type": "address"
        },
        {
          "indexed": true,
          "internalType": "address",
          "name": "newOwner",
          "type": "address"
        }
      ],
      "name": "OwnershipTransferred",
      "type": "event"
    },
    {
      "anonymous": false,
      "inputs": [
        {
          "indexed": false,
          "internalType": "address",
          "name": "gmAddress",
          "type": "address"
        },
        {
          "indexed": false,
          "internalType": "address",
          "name": "playerAddress",
          "type": "address"
        },
        {
          "indexed": false,
          "internalType": "uint256",
          "name": "oldBalance",
          "type": "uint256"
        },
        {
          "indexed": false,
          "internalType": "uint256",
          "name": "newBalance",
          "type": "uint256"
        },
        {
          "indexed": false,
          "internalType": "string",
          "name": "action",
          "type": "string"
        }
      ],
      "name": "PlayerBalanceChangedByGM",
      "type": "event"
    },
    {
      "anonymous": false,
      "inputs": [
        {
          "indexed": false,
          "internalType": "address",
          "name": "oldAddress",
          "type": "address"
        },
        {
          "indexed": false,
          "internalType": "address",
          "name": "newAddress",
          "type": "address"
        }
      ],
      "name": "PlayerMigrated",
      "type": "event"
    },
    {
      "inputs": [
        {
          "internalType": "address",
          "name": "",
          "type": "address"
        }
      ],
      "name": "_isGameMaster",
      "outputs": [
        {
          "internalType": "bool",
          "name": "",
          "type": "bool"
        }
      ],
      "stateMutability": "view",
      "type": "function"
    },
    {
      "inputs": [],
      "name": "moduleName",
      "outputs": [
        {
          "internalType": "string",
          "name": "",
          "type": "string"
        }
      ],
      "stateMutability": "view",
      "type": "function"
    },
    {
      "inputs": [],
      "name": "moduleVersion",
      "outputs": [
        {
          "internalType": "string",
          "name": "",
          "type": "string"
        }
      ],
      "stateMutability": "view",
      "type": "function"
    },
    {
      "inputs": [],
      "name": "owner",
      "outputs": [
        {
          "internalType": "address",
          "name": "",
          "type": "address"
        }
      ],
      "stateMutability": "view",
      "type": "function"
    },
    {
      "inputs": [],
      "name": "previousOwner",
      "outputs": [
        {
          "internalType": "address",
          "name": "",
          "type": "address"
        }
      ],
      "stateMutability": "view",
      "type": "function"
    },
    {
      "inputs": [],
      "name": "renounceOwnership",
      "outputs": [],
      "stateMutability": "nonpayable",
      "type": "function"
    },
    {
      "inputs": [
        {
          "internalType": "address",
          "name": "newOwner",
          "type": "address"
        }
      ],
      "name": "transferOwnership",
      "outputs": [],
      "stateMutability": "nonpayable",
      "type": "function"
    },
    {
      "inputs": [],
      "name": "ping",
      "outputs": [
        {
          "internalType": "string",
          "name": "",
          "type": "string"
        }
      ],
      "stateMutability": "view",
      "type": "function"
    },
    {
      "inputs": [
        {
          "internalType": "address",
          "name": "playerAddress",
          "type": "address"
        },
        {
          "internalType": "uint256",
          "name": "amount",
          "type": "uint256"
        }
      ],
      "name": "addToPlayerBalance",
      "outputs": [],
      "stateMutability": "nonpayable",
      "type": "function"
    },
    {
      "inputs": [
        {
          "internalType": "address",
          "name": "playerAddress",
          "type": "address"
        },
        {
          "internalType": "uint256",
          "name": "amount",
          "type": "uint256"
        }
      ],
      "name": "deductFromPlayerBalance",
      "outputs": [],
      "stateMutability": "nonpayable",
      "type": "function"
    },
    {
      "inputs": [
        {
          "internalType": "address",
          "name": "from",
          "type": "address"
        },
        {
          "internalType": "address",
          "name": "newAddress",
          "type": "address"
        }
      ],
      "name": "migratePlayerToAddress",
      "outputs": [],
      "stateMutability": "nonpayable",
      "type": "function"
    },
    {
      "inputs": [
        {
          "internalType": "address",
          "name": "gmAddress",
          "type": "address"
        }
      ],
      "name": "addGameMaster",
      "outputs": [],
      "stateMutability": "nonpayable",
      "type": "function"
    },
    {
      "inputs": [
        {
          "internalType": "address",
          "name": "gmAddress",
          "type": "address"
        }
      ],
      "name": "removeGameMaster",
      "outputs": [],
      "stateMutability": "nonpayable",
      "type": "function"
    }
  ],
  "bytecode": "0x60806040523480156200001157600080fd5b506040516200238f3803806200238f8339818101604052810190620000379190620004b6565b81816040518060400160405280600781526020017f4269744475656c000000000000000000000000000000000000000000000000008152506040518060400160405280600581526020017f302e302e3200000000000000000000000000000000000000000000000000000081525083620000b781620002a360201b60201c565b5082600260006101000a81548173ffffffffffffffffffffffffffffffffffffffff021916908373ffffffffffffffffffffffffffffffffffffffff1602179055508373ffffffffffffffffffffffffffffffffffffffff16600260009054906101000a900473ffffffffffffffffffffffffffffffffffffffff1673ffffffffffffffffffffffffffffffffffffffff16638da5cb5b6040518163ffffffff1660e01b815260040160206040518083038186803b1580156200017957600080fd5b505afa1580156200018e573d6000803e3d6000fd5b505050506040513d601f19601f82011682018060405250810190620001b491906200048a565b73ffffffffffffffffffffffffffffffffffffffff16146200020d576040517f08c379a000000000000000000000000000000000000000000000000000000000815260040162000204906200051e565b60405180910390fd5b816003908051906020019062000225929190620003c3565b5080600490805190602001906200023e929190620003c3565b50505050506001600560008473ffffffffffffffffffffffffffffffffffffffff1673ffffffffffffffffffffffffffffffffffffffff16815260200190815260200160002060006101000a81548160ff021916908315150217905550505062000653565b60008054906101000a900473ffffffffffffffffffffffffffffffffffffffff16600160006101000a81548173ffffffffffffffffffffffffffffffffffffffff021916908373ffffffffffffffffffffffffffffffffffffffff160217905550806000806101000a81548173ffffffffffffffffffffffffffffffffffffffff021916908373ffffffffffffffffffffffffffffffffffffffff1602179055508073ffffffffffffffffffffffffffffffffffffffff16600160009054906101000a900473ffffffffffffffffffffffffffffffffffffffff1673ffffffffffffffffffffffffffffffffffffffff167f8be0079c531659141344cd1fd0a4f28419497f9722a3daafe3b4186f6b6457e060405160405180910390a350565b828054620003d19062000585565b90600052602060002090601f016020900481019282620003f5576000855562000441565b82601f106200041057805160ff191683800117855562000441565b8280016001018555821562000441579182015b828111156200044057825182559160200191906001019062000423565b5b50905062000450919062000454565b5090565b5b808211156200046f57600081600090555060010162000455565b5090565b600081519050620004848162000639565b92915050565b6000602082840312156200049d57600080fd5b6000620004ad8482850162000473565b91505092915050565b60008060408385031215620004ca57600080fd5b6000620004da8582860162000473565b9250506020620004ed8582860162000473565b9150509250929050565b600062000506603b8362000540565b91506200051382620005ea565b604082019050919050565b600060208201905081810360008301526200053981620004f7565b9050919050565b600082825260208201905092915050565b60006200055e8262000565565b9050919050565b600073ffffffffffffffffffffffffffffffffffffffff82169050919050565b600060028204905060018216806200059e57607f821691505b60208210811415620005b557620005b4620005bb565b5b50919050565b7f4e487b7100000000000000000000000000000000000000000000000000000000600052602260045260246000fd5b7f546865206d6f64756c65206465706c6f796572206d757374206265207468652060008201527f6f776e6572206f6620746865206261736520636f6e7472616374210000000000602082015250565b620006448162000551565b81146200065057600080fd5b50565b611d2c80620006636000396000f3fe608060405234801561001057600080fd5b50600436106100cf5760003560e01c80638da5cb5b1161008c578063baa3b4d711610066578063baa3b4d7146101da578063dfca5ce3146101f8578063f071e97e14610214578063f2fde38b14610230576100cf565b80638da5cb5b1461018257806393f0899a146101a0578063a405479d146101be576100cf565b80631926b536146100d45780635c36b18614610104578063674f220f14610122578063715018a61461014057806379f00ce51461014a5780638b1c7b1014610166575b600080fd5b6100ee60048036038101906100e99190611361565b61024c565b6040516100fb919061172a565b60405180910390f35b61010c61026c565b6040516101199190611745565b60405180910390f35b61012a610379565b604051610137919061160d565b60405180910390f35b6101486103a3565b005b610164600480360381019061015f919061138a565b61042b565b005b610180600480360381019061017b9190611361565b610733565b005b61018a6108cd565b604051610197919061160d565b60405180910390f35b6101a86108f6565b6040516101b59190611745565b60405180910390f35b6101d860048036038101906101d391906113c6565b610988565b005b6101e2610b7d565b6040516101ef9190611745565b60405180910390f35b610212600480360381019061020d9190611361565b610c0f565b005b61022e600480360381019061022991906113c6565b610da9565b005b61024a60048036038101906102459190611361565b611070565b005b60056020528060005260406000206000915054906101000a900460ff1681565b6060610276611168565b73ffffffffffffffffffffffffffffffffffffffff166102946108cd565b73ffffffffffffffffffffffffffffffffffffffff16146102ea576040517f08c379a00000000000000000000000000000000000000000000000000000000081526004016102e1906117c7565b60405180910390fd5b6102f2611170565b73ffffffffffffffffffffffffffffffffffffffff16635c36b1866040518163ffffffff1660e01b815260040160006040518083038186803b15801561033757600080fd5b505afa15801561034b573d6000803e3d6000fd5b505050506040513d6000823e3d601f19601f820116820180604052508101906103749190611402565b905090565b6000600160009054906101000a900473ffffffffffffffffffffffffffffffffffffffff16905090565b6103ab611168565b73ffffffffffffffffffffffffffffffffffffffff166103c96108cd565b73ffffffffffffffffffffffffffffffffffffffff161461041f576040517f08c379a0000000000000000000000000000000000000000000000000000000008152600401610416906117c7565b60405180910390fd5b610429600061119a565b565b8173ffffffffffffffffffffffffffffffffffffffff1661044a611168565b73ffffffffffffffffffffffffffffffffffffffff1614806104a5575061046f6108cd565b73ffffffffffffffffffffffffffffffffffffffff1661048d611168565b73ffffffffffffffffffffffffffffffffffffffff16145b6104e4576040517f08c379a00000000000000000000000000000000000000000000000000000000081526004016104db906117e7565b60405180910390fd5b6104ec611170565b73ffffffffffffffffffffffffffffffffffffffff16635e9556ab82610510611170565b73ffffffffffffffffffffffffffffffffffffffff16636e31c102866040518263ffffffff1660e01b8152600401610548919061160d565b60206040518083038186803b15801561056057600080fd5b505afa158015610574573d6000803e3d6000fd5b505050506040513d601f19601f820116820180604052508101906105989190611443565b6105a0611170565b73ffffffffffffffffffffffffffffffffffffffff16636e31c102866040518263ffffffff1660e01b81526004016105d8919061160d565b60206040518083038186803b1580156105f057600080fd5b505afa158015610604573d6000803e3d6000fd5b505050506040513d601f19601f820116820180604052508101906106289190611443565b61063291906118b9565b6040518363ffffffff1660e01b815260040161064f929190611701565b600060405180830381600087803b15801561066957600080fd5b505af115801561067d573d6000803e3d6000fd5b50505050610689611170565b73ffffffffffffffffffffffffffffffffffffffff16635e9556ab8360006040518363ffffffff1660e01b81526004016106c4929190611701565b600060405180830381600087803b1580156106de57600080fd5b505af11580156106f2573d6000803e3d6000fd5b505050507f1391b9ff4a12ba15552efa32a3bf1f5a1e65a1df7cfdbed2e94e145394ed47d98282604051610727929190611628565b60405180910390a15050565b61073b611168565b73ffffffffffffffffffffffffffffffffffffffff166107596108cd565b73ffffffffffffffffffffffffffffffffffffffff16146107af576040517f08c379a00000000000000000000000000000000000000000000000000000000081526004016107a6906117c7565b60405180910390fd5b600560008273ffffffffffffffffffffffffffffffffffffffff1673ffffffffffffffffffffffffffffffffffffffff16815260200190815260200160002060009054906101000a900460ff161561083c576040517f08c379a0000000000000000000000000000000000000000000000000000000008152600401610833906117a7565b60405180910390fd5b6001600560008373ffffffffffffffffffffffffffffffffffffffff1673ffffffffffffffffffffffffffffffffffffffff16815260200190815260200160002060006101000a81548160ff0219169083151502179055507e90e5d96e2f61f1fa8b5c535ec11045a07288f1ee285325f85caf8379789e24816040516108c2919061160d565b60405180910390a150565b60008060009054906101000a900473ffffffffffffffffffffffffffffffffffffffff16905090565b606060038054610905906119be565b80601f0160208091040260200160405190810160405280929190818152602001828054610931906119be565b801561097e5780601f106109535761010080835404028352916020019161097e565b820191906000526020600020905b81548152906001019060200180831161096157829003601f168201915b5050505050905090565b60056000610994611168565b73ffffffffffffffffffffffffffffffffffffffff1673ffffffffffffffffffffffffffffffffffffffff16815260200190815260200160002060009054906101000a900460ff16610a1b576040517f08c379a0000000000000000000000000000000000000000000000000000000008152600401610a1290611807565b60405180910390fd5b6000610a25611170565b73ffffffffffffffffffffffffffffffffffffffff16636e31c102846040518263ffffffff1660e01b8152600401610a5d919061160d565b60206040518083038186803b158015610a7557600080fd5b505afa158015610a89573d6000803e3d6000fd5b505050506040513d601f19601f82011682018060405250810190610aad9190611443565b905060008282610abd91906118b9565b9050610ac7611170565b73ffffffffffffffffffffffffffffffffffffffff16635e9556ab85836040518363ffffffff1660e01b8152600401610b01929190611701565b600060405180830381600087803b158015610b1b57600080fd5b505af1158015610b2f573d6000803e3d6000fd5b505050507f09fe86b01951c7cf90721f9eddd448c7bb563b5b028a9e567c167906d8752601610b5c611168565b858484604051610b6f9493929190611651565b60405180910390a150505050565b606060048054610b8c906119be565b80601f0160208091040260200160405190810160405280929190818152602001828054610bb8906119be565b8015610c055780601f10610bda57610100808354040283529160200191610c05565b820191906000526020600020905b815481529060010190602001808311610be857829003601f168201915b5050505050905090565b610c17611168565b73ffffffffffffffffffffffffffffffffffffffff16610c356108cd565b73ffffffffffffffffffffffffffffffffffffffff1614610c8b576040517f08c379a0000000000000000000000000000000000000000000000000000000008152600401610c82906117c7565b60405180910390fd5b600560008273ffffffffffffffffffffffffffffffffffffffff1673ffffffffffffffffffffffffffffffffffffffff16815260200190815260200160002060009054906101000a900460ff16610d17576040517f08c379a0000000000000000000000000000000000000000000000000000000008152600401610d0e90611767565b60405180910390fd5b6000600560008373ffffffffffffffffffffffffffffffffffffffff1673ffffffffffffffffffffffffffffffffffffffff16815260200190815260200160002060006101000a81548160ff0219169083151502179055507f22c7af3157a517d9d910083d0cd16646c9204f9d52824a23558c7d97d796d63881604051610d9e919061160d565b60405180910390a150565b60056000610db5611168565b73ffffffffffffffffffffffffffffffffffffffff1673ffffffffffffffffffffffffffffffffffffffff16815260200190815260200160002060009054906101000a900460ff16610e3c576040517f08c379a0000000000000000000000000000000000000000000000000000000008152600401610e3390611807565b60405180910390fd5b610e44611170565b73ffffffffffffffffffffffffffffffffffffffff16636e31c102836040518263ffffffff1660e01b8152600401610e7c919061160d565b60206040518083038186803b158015610e9457600080fd5b505afa158015610ea8573d6000803e3d6000fd5b505050506040513d601f19601f82011682018060405250810190610ecc9190611443565b811115610f0e576040517f08c379a0000000000000000000000000000000000000000000000000000000008152600401610f0590611827565b60405180910390fd5b6000610f18611170565b73ffffffffffffffffffffffffffffffffffffffff16636e31c102846040518263ffffffff1660e01b8152600401610f50919061160d565b60206040518083038186803b158015610f6857600080fd5b505afa158015610f7c573d6000803e3d6000fd5b505050506040513d601f19601f82011682018060405250810190610fa09190611443565b905060008282610fb0919061190f565b9050610fba611170565b73ffffffffffffffffffffffffffffffffffffffff16635e9556ab85836040518363ffffffff1660e01b8152600401610ff4929190611701565b600060405180830381600087803b15801561100e57600080fd5b505af1158015611022573d6000803e3d6000fd5b505050507f09fe86b01951c7cf90721f9eddd448c7bb563b5b028a9e567c167906d875260161104f611168565b85848460405161106294939291906116a9565b60405180910390a150505050565b611078611168565b73ffffffffffffffffffffffffffffffffffffffff166110966108cd565b73ffffffffffffffffffffffffffffffffffffffff16146110ec576040517f08c379a00000000000000000000000000000000000000000000000000000000081526004016110e3906117c7565b60405180910390fd5b600073ffffffffffffffffffffffffffffffffffffffff168173ffffffffffffffffffffffffffffffffffffffff16141561115c576040517f08c379a000000000000000000000000000000000000000000000000000000000815260040161115390611787565b60405180910390fd5b6111658161119a565b50565b600033905090565b6000600260009054906101000a900473ffffffffffffffffffffffffffffffffffffffff16905090565b60008054906101000a900473ffffffffffffffffffffffffffffffffffffffff16600160006101000a81548173ffffffffffffffffffffffffffffffffffffffff021916908373ffffffffffffffffffffffffffffffffffffffff160217905550806000806101000a81548173ffffffffffffffffffffffffffffffffffffffff021916908373ffffffffffffffffffffffffffffffffffffffff1602179055508073ffffffffffffffffffffffffffffffffffffffff16600160009054906101000a900473ffffffffffffffffffffffffffffffffffffffff1673ffffffffffffffffffffffffffffffffffffffff167f8be0079c531659141344cd1fd0a4f28419497f9722a3daafe3b4186f6b6457e060405160405180910390a350565b60006112cd6112c88461186c565b611847565b9050828152602081018484840111156112e557600080fd5b6112f084828561198b565b509392505050565b60008135905061130781611cc8565b92915050565b600082601f83011261131e57600080fd5b815161132e8482602086016112ba565b91505092915050565b60008135905061134681611cdf565b92915050565b60008151905061135b81611cdf565b92915050565b60006020828403121561137357600080fd5b6000611381848285016112f8565b91505092915050565b6000806040838503121561139d57600080fd5b60006113ab858286016112f8565b92505060206113bc858286016112f8565b9150509250929050565b600080604083850312156113d957600080fd5b60006113e7858286016112f8565b92505060206113f885828601611337565b9150509250929050565b60006020828403121561141457600080fd5b600082015167ffffffffffffffff81111561142e57600080fd5b61143a8482850161130d565b91505092915050565b60006020828403121561145557600080fd5b60006114638482850161134c565b91505092915050565b61147581611943565b82525050565b61148481611955565b82525050565b60006114958261189d565b61149f81856118a8565b93506114af81856020860161198b565b6114b881611aae565b840191505092915050565b60006114d06021836118a8565b91506114db82611abf565b604082019050919050565b60006114f36030836118a8565b91506114fe82611b0e565b604082019050919050565b60006115166025836118a8565b915061152182611b5d565b604082019050919050565b60006115396025836118a8565b915061154482611bac565b604082019050919050565b600061155c6003836118a8565b915061156782611bfb565b602082019050919050565b600061157f6006836118a8565b915061158a82611c24565b602082019050919050565b60006115a26014836118a8565b91506115ad82611c4d565b602082019050919050565b60006115c56020836118a8565b91506115d082611c76565b602082019050919050565b60006115e86013836118a8565b91506115f382611c9f565b602082019050919050565b61160781611981565b82525050565b6000602082019050611622600083018461146c565b92915050565b600060408201905061163d600083018561146c565b61164a602083018461146c565b9392505050565b600060a082019050611666600083018761146c565b611673602083018661146c565b61168060408301856115fe565b61168d60608301846115fe565b818103608083015261169e8161154f565b905095945050505050565b600060a0820190506116be600083018761146c565b6116cb602083018661146c565b6116d860408301856115fe565b6116e560608301846115fe565b81810360808301526116f681611572565b905095945050505050565b6000604082019050611716600083018561146c565b61172360208301846115fe565b9392505050565b600060208201905061173f600083018461147b565b92915050565b6000602082019050818103600083015261175f818461148a565b905092915050565b60006020820190508181036000830152611780816114c3565b9050919050565b600060208201905081810360008301526117a0816114e6565b9050919050565b600060208201905081810360008301526117c081611509565b9050919050565b600060208201905081810360008301526117e08161152c565b9050919050565b6000602082019050818103600083015261180081611595565b9050919050565b60006020820190508181036000830152611820816115b8565b9050919050565b60006020820190508181036000830152611840816115db565b9050919050565b6000611851611862565b905061185d82826119f0565b919050565b6000604051905090565b600067ffffffffffffffff82111561188757611886611a7f565b5b61189082611aae565b9050602081019050919050565b600081519050919050565b600082825260208201905092915050565b60006118c482611981565b91506118cf83611981565b9250827fffffffffffffffffffffffffffffffffffffffffffffffffffffffffffffffff0382111561190457611903611a21565b5b828201905092915050565b600061191a82611981565b915061192583611981565b92508282101561193857611937611a21565b5b828203905092915050565b600061194e82611961565b9050919050565b60008115159050919050565b600073ffffffffffffffffffffffffffffffffffffffff82169050919050565b6000819050919050565b60005b838110156119a957808201518184015260208101905061198e565b838111156119b8576000848401525b50505050565b600060028204905060018216806119d657607f821691505b602082108114156119ea576119e9611a50565b5b50919050565b6119f982611aae565b810181811067ffffffffffffffff82111715611a1857611a17611a7f565b5b80604052505050565b7f4e487b7100000000000000000000000000000000000000000000000000000000600052601160045260246000fd5b7f4e487b7100000000000000000000000000000000000000000000000000000000600052602260045260246000fd5b7f4e487b7100000000000000000000000000000000000000000000000000000000600052604160045260246000fd5b6000601f19601f8301169050919050565b7f5468652061646472657373206973206e6f7420612047616d65204d617374657260008201527f2100000000000000000000000000000000000000000000000000000000000000602082015250565b7f4f776e61626c653a20546865206e6577206f776e6572206973206e6f772c207460008201527f6865207a65726f20616464726573732100000000000000000000000000000000602082015250565b7f546865206164647265737320697320616c726561647920612047616d65204d6160008201527f7374657221000000000000000000000000000000000000000000000000000000602082015250565b7f4f776e61626c653a205468652063616c6c6572206973206e6f7420746865206f60008201527f776e657221000000000000000000000000000000000000000000000000000000602082015250565b7f4164640000000000000000000000000000000000000000000000000000000000600082015250565b7f4465647563740000000000000000000000000000000000000000000000000000600082015250565b7f496e76616c6964206f6c64206164647265737321000000000000000000000000600082015250565b7f5468652063616c6c6572206973206e6f7420612047616d65204d617374657221600082015250565b7f496e73756666696369656e742066756e64732100000000000000000000000000600082015250565b611cd181611943565b8114611cdc57600080fd5b50565b611ce881611981565b8114611cf357600080fd5b5056fea2646970667358221220aa14afde34567b8537062ced8edae4fef564c4af98f0c519deabcae7d2c7e21564736f6c63430008040033",
  "immutableReferences": {},
  "source": "/**\n    ***********************************************************\n    * Copyright (c) Avara Dev. 2021. (Telegram: @avara_cc)  *\n    ***********************************************************\n\n             \n          \n       \n         \n        .       .       - Binance Smart Chain\n\n    Avara - Always Vivid, Always Rising Above\n    https://avara.cc/\n    https://github.com/avara-cc\n    https://github.com/avara-cc/Avara/wiki\n*/\n\n// SPDX-License-Identifier: AGPL-3.0-or-later\n\npragma solidity 0.8.4;\n\nimport \"./abstract/AvaraModule.sol\";\nimport \"./library/SafeMath.sol\";\n\ncontract BitDuelModule is AvaraModule {\n    using SafeMath for uint256;\n\n    mapping(address => bool) public _isGameMaster;\n\n    event GameMasterAdded(address gmAddress);\n    event GameMasterRemoved(address gmAddress);\n    event PlayerMigrated(address oldAddress, address newAddress);\n    event PlayerBalanceChangedByGM(address gmAddress, address playerAddress, uint256 oldBalance, uint256 newBalance, string action);\n\n    constructor(address cOwner, address baseContract) AvaraModule(cOwner, baseContract, \"BitDuel\", \"0.0.2\") {\n        _isGameMaster[cOwner] = true;\n    }\n\n    modifier onlyGM() {\n        require(_isGameMaster[_msgSender()], \"The caller is not a Game Master!\");\n        _;\n    }\n\n    /**\n    * @dev Occasionally called (only) by the server to make sure that the connection with the module and main contract is granted.\n    */\n    function ping() external view onlyOwner returns (string memory) {\n        return getBaseContract().ping();\n    }\n\n    /**\n    * @dev Called by a BitDuel GM after a won / lost game, to add to the balance of a user in the player pool.\n    * The gas price is provided by BitDuel.\n    */\n    function addToPlayerBalance(address playerAddress, uint256 amount) external onlyGM {\n        uint256 oldBalance = getBaseContract().balanceInPlayerPool(playerAddress);\n        uint256 newBalance = oldBalance + amount;\n\n        getBaseContract().setPlayerBalance(playerAddress, newBalance);\n\n        emit PlayerBalanceChangedByGM(_msgSender(), playerAddress, oldBalance, newBalance, \"Add\");\n    }\n\n    /**\n    * @dev Called by a BitDuel GM after a won / lost game, to deduct from the balance of a user in the player pool.\n    * The gas price is provided by BitDuel.\n    */\n    function deductFromPlayerBalance(address playerAddress, uint256 amount) external onlyGM {\n        require(amount <= getBaseContract().balanceInPlayerPool(playerAddress), \"Insufficient funds!\");\n\n        uint256 oldBalance = getBaseContract().balanceInPlayerPool(playerAddress);\n        uint256 newBalance = oldBalance - amount;\n\n        getBaseContract().setPlayerBalance(playerAddress, newBalance);\n\n        emit PlayerBalanceChangedByGM(_msgSender(), playerAddress, oldBalance, newBalance, \"Deduct\");\n    }\n\n    /**\n    * @dev Called by BitDuel to migrate the user onto another address.\n    */\n    function migratePlayerToAddress(address from, address newAddress) external {\n        require(_msgSender() == from || _msgSender() == owner(), \"Invalid old address!\");\n        getBaseContract().setPlayerBalance(newAddress, getBaseContract().balanceInPlayerPool(newAddress) + getBaseContract().balanceInPlayerPool(from));\n        getBaseContract().setPlayerBalance(from, uint256(0));\n\n        emit PlayerMigrated(from, newAddress);\n    }\n\n    /**\n    * @dev Called by BitDuel to add an address to the Game Masters.\n    */\n    function addGameMaster(address gmAddress) public onlyOwner {\n        require(!_isGameMaster[gmAddress], \"The address is already a Game Master!\");\n        _isGameMaster[gmAddress] = true;\n\n        emit GameMasterAdded(gmAddress);\n    }\n\n    /**\n    * @dev Called by BitDuel to remove an address from the Game Masters.\n    */\n    function removeGameMaster(address gmAddress) public onlyOwner {\n        require(_isGameMaster[gmAddress], \"The address is not a Game Master!\");\n        _isGameMaster[gmAddress] = false;\n\n        emit GameMasterRemoved(gmAddress);\n    }\n\n}\n",
  "sourcePath": "/home/oncemore/Blockchain/avara-test/contract/contracts/BitDuelModule.sol",
  "compiler": {
    "name": "solc",
    "version": "0.8.4+commit.c7e474f2.Emscripten.clang"
  },
  "schemaVersion": "3.3.4",
  "updatedAt": "2022-01-27T08:30:01.555Z",
  "devdoc": {
    "kind": "dev",
    "methods": {
      "addGameMaster(address)": {
        "details": "Called by BitDuel to add an address to the Game Masters."
      },
      "addToPlayerBalance(address,uint256)": {
        "details": "Called by a BitDuel GM after a won / lost game, to add to the balance of a user in the player pool. The gas price is provided by BitDuel."
      },
      "deductFromPlayerBalance(address,uint256)": {
        "details": "Called by a BitDuel GM after a won / lost game, to deduct from the balance of a user in the player pool. The gas price is provided by BitDuel."
      },
      "migratePlayerToAddress(address,address)": {
        "details": "Called by BitDuel to migrate the user onto another address."
      },
      "moduleName()": {
        "details": "Returns the module name."
      },
      "moduleVersion()": {
        "details": "Returns the module version."
      },
      "owner()": {
        "details": "Returns the address of the current owner."
      },
      "ping()": {
        "details": "Occasionally called (only) by the server to make sure that the connection with the module and main contract is granted."
      },
      "previousOwner()": {
        "details": "Returns the address of the previous owner."
      },
      "removeGameMaster(address)": {
        "details": "Called by BitDuel to remove an address from the Game Masters."
      },
      "renounceOwnership()": {
        "details": "Leaves the contract without an owner. It won't be possible to call `onlyOwner` functions anymore. Can only be called by the current owner."
      },
      "transferOwnership(address)": {
        "details": "Transfers ownership of the contract to a new account (`newOwner`). Can only be called by the current owner."
      }
    },
    "version": 1
  },
  "userdoc": {
    "kind": "user",
    "methods": {},
    "version": 1
  }
}