{
  "contractName": "OwnershipModule",
  "abi": [
    {
      "inputs": [
        {
          "internalType": "address",
          "name": "cOwner",
          "type": "address"
        },
        {
          "internalType": "address",
          "name": "baseContract",
          "type": "address"
        },
        {
          "internalType": "address",
          "name": "avaraNftContract",
          "type": "address"
        }
      ],
      "stateMutability": "nonpayable",
      "type": "constructor"
    },
    {
      "anonymous": false,
      "inputs": [
        {
          "indexed": false,
          "internalType": "uint256",
          "name": "nftId",
          "type": "uint256"
        },
        {
          "indexed": false,
          "internalType": "address",
          "name": "buyer",
          "type": "address"
        }
      ],
      "name": "BuyingNft",
      "type": "event"
    },
    {
      "anonymous": false,
      "inputs": [
        {
          "indexed": true,
          "internalType": "address",
          "name": "previousOwner",
          "type": "address"
        },
        {
          "indexed": true,
          "internalType": "address",
          "name": "newOwner",
          "type": "address"
        }
      ],
      "name": "OwnershipTransferred",
      "type": "event"
    },
    {
      "anonymous": false,
      "inputs": [
        {
          "indexed": false,
          "internalType": "uint256",
          "name": "nftId",
          "type": "uint256"
        },
        {
          "indexed": false,
          "internalType": "uint256",
          "name": "price",
          "type": "uint256"
        },
        {
          "indexed": false,
          "internalType": "address",
          "name": "seller",
          "type": "address"
        }
      ],
      "name": "SellingNft",
      "type": "event"
    },
    {
      "inputs": [],
      "name": "Avara",
      "outputs": [
        {
          "internalType": "contract IERC20",
          "name": "",
          "type": "address"
        }
      ],
      "stateMutability": "view",
      "type": "function"
    },
    {
      "inputs": [],
      "name": "AvaraNFT",
      "outputs": [
        {
          "internalType": "contract IAvaraNft",
          "name": "",
          "type": "address"
        }
      ],
      "stateMutability": "view",
      "type": "function"
    },
    {
      "inputs": [],
      "name": "moduleName",
      "outputs": [
        {
          "internalType": "string",
          "name": "",
          "type": "string"
        }
      ],
      "stateMutability": "view",
      "type": "function"
    },
    {
      "inputs": [],
      "name": "moduleVersion",
      "outputs": [
        {
          "internalType": "string",
          "name": "",
          "type": "string"
        }
      ],
      "stateMutability": "view",
      "type": "function"
    },
    {
      "inputs": [],
      "name": "owner",
      "outputs": [
        {
          "internalType": "address",
          "name": "",
          "type": "address"
        }
      ],
      "stateMutability": "view",
      "type": "function"
    },
    {
      "inputs": [],
      "name": "previousOwner",
      "outputs": [
        {
          "internalType": "address",
          "name": "",
          "type": "address"
        }
      ],
      "stateMutability": "view",
      "type": "function"
    },
    {
      "inputs": [],
      "name": "renounceOwnership",
      "outputs": [],
      "stateMutability": "nonpayable",
      "type": "function"
    },
    {
      "inputs": [
        {
          "internalType": "address",
          "name": "newOwner",
          "type": "address"
        }
      ],
      "name": "transferOwnership",
      "outputs": [],
      "stateMutability": "nonpayable",
      "type": "function"
    },
    {
      "inputs": [
        {
          "internalType": "uint256",
          "name": "nftId",
          "type": "uint256"
        },
        {
          "internalType": "uint256",
          "name": "price_",
          "type": "uint256"
        }
      ],
      "name": "selling",
      "outputs": [],
      "stateMutability": "nonpayable",
      "type": "function"
    },
    {
      "inputs": [
        {
          "internalType": "uint256",
          "name": "nftId",
          "type": "uint256"
        }
      ],
      "name": "buying",
      "outputs": [],
      "stateMutability": "nonpayable",
      "type": "function"
    },
    {
      "inputs": [],
      "name": "ping",
      "outputs": [
        {
          "internalType": "string",
          "name": "",
          "type": "string"
        }
      ],
      "stateMutability": "view",
      "type": "function"
    }
  ],
  "bytecode": "0x60806040523480156200001157600080fd5b5060405162002275380380620022758339818101604052810190620000379190620004e1565b82826040518060400160405280600981526020017f4f776e65727368697000000000000000000000000000000000000000000000008152506040518060400160405280600581526020017f302e302e3100000000000000000000000000000000000000000000000000000081525083620000b781620002ce60201b60201c565b5082600260006101000a81548173ffffffffffffffffffffffffffffffffffffffff021916908373ffffffffffffffffffffffffffffffffffffffff1602179055508373ffffffffffffffffffffffffffffffffffffffff16600260009054906101000a900473ffffffffffffffffffffffffffffffffffffffff1673ffffffffffffffffffffffffffffffffffffffff16638da5cb5b6040518163ffffffff1660e01b815260040160206040518083038186803b1580156200017957600080fd5b505afa1580156200018e573d6000803e3d6000fd5b505050506040513d601f19601f82011682018060405250810190620001b49190620004b5565b73ffffffffffffffffffffffffffffffffffffffff16146200020d576040517f08c379a000000000000000000000000000000000000000000000000000000000815260040162000204906200055e565b60405180910390fd5b816003908051906020019062000225929190620003ee565b5080600490805190602001906200023e929190620003ee565b505050505080600560006101000a81548173ffffffffffffffffffffffffffffffffffffffff021916908373ffffffffffffffffffffffffffffffffffffffff16021790555081600660006101000a81548173ffffffffffffffffffffffffffffffffffffffff021916908373ffffffffffffffffffffffffffffffffffffffff16021790555050505062000693565b60008054906101000a900473ffffffffffffffffffffffffffffffffffffffff16600160006101000a81548173ffffffffffffffffffffffffffffffffffffffff021916908373ffffffffffffffffffffffffffffffffffffffff160217905550806000806101000a81548173ffffffffffffffffffffffffffffffffffffffff021916908373ffffffffffffffffffffffffffffffffffffffff1602179055508073ffffffffffffffffffffffffffffffffffffffff16600160009054906101000a900473ffffffffffffffffffffffffffffffffffffffff1673ffffffffffffffffffffffffffffffffffffffff167f8be0079c531659141344cd1fd0a4f28419497f9722a3daafe3b4186f6b6457e060405160405180910390a350565b828054620003fc90620005c5565b90600052602060002090601f0160209004810192826200042057600085556200046c565b82601f106200043b57805160ff19168380011785556200046c565b828001600101855582156200046c579182015b828111156200046b5782518255916020019190600101906200044e565b5b5090506200047b91906200047f565b5090565b5b808211156200049a57600081600090555060010162000480565b5090565b600081519050620004af8162000679565b92915050565b600060208284031215620004c857600080fd5b6000620004d8848285016200049e565b91505092915050565b600080600060608486031215620004f757600080fd5b600062000507868287016200049e565b93505060206200051a868287016200049e565b92505060406200052d868287016200049e565b9150509250925092565b600062000546603b8362000580565b915062000553826200062a565b604082019050919050565b60006020820190508181036000830152620005798162000537565b9050919050565b600082825260208201905092915050565b60006200059e82620005a5565b9050919050565b600073ffffffffffffffffffffffffffffffffffffffff82169050919050565b60006002820490506001821680620005de57607f821691505b60208210811415620005f557620005f4620005fb565b5b50919050565b7f4e487b7100000000000000000000000000000000000000000000000000000000600052602260045260246000fd5b7f546865206d6f64756c65206465706c6f796572206d757374206265207468652060008201527f6f776e6572206f6620746865206261736520636f6e7472616374210000000000602082015250565b620006848162000591565b81146200069057600080fd5b50565b611bd280620006a36000396000f3fe608060405234801561001057600080fd5b50600436106100a95760003560e01c8063726bddfd11610071578063726bddfd146101305780638da5cb5b1461014c57806393f0899a1461016a578063baa3b4d714610188578063c99bf814146101a6578063f2fde38b146101c2576100a9565b80631032dd60146100ae57806313b2a691146100cc5780635c36b186146100ea578063674f220f14610108578063715018a614610126575b600080fd5b6100b66101de565b6040516100c391906114fa565b60405180910390f35b6100d4610204565b6040516100e191906114df565b60405180910390f35b6100f261022a565b6040516100ff9190611515565b60405180910390f35b610110610337565b60405161011d9190611464565b60405180910390f35b61012e610361565b005b61014a6004803603810190610145919061129b565b6103e9565b005b6101546106d1565b6040516101619190611464565b60405180910390f35b6101726106fa565b60405161017f9190611515565b60405180910390f35b61019061078c565b60405161019d9190611515565b60405180910390f35b6101c060048036038101906101bb9190611249565b61081e565b005b6101dc60048036038101906101d7919061118d565b610e72565b005b600660009054906101000a900473ffffffffffffffffffffffffffffffffffffffff1681565b600560009054906101000a900473ffffffffffffffffffffffffffffffffffffffff1681565b6060610234610f6a565b73ffffffffffffffffffffffffffffffffffffffff166102526106d1565b73ffffffffffffffffffffffffffffffffffffffff16146102a8576040517f08c379a000000000000000000000000000000000000000000000000000000000815260040161029f906115d7565b60405180910390fd5b6102b0610f72565b73ffffffffffffffffffffffffffffffffffffffff16635c36b1866040518163ffffffff1660e01b815260040160006040518083038186803b1580156102f557600080fd5b505afa158015610309573d6000803e3d6000fd5b505050506040513d6000823e3d601f19601f820116820180604052508101906103329190611208565b905090565b6000600160009054906101000a900473ffffffffffffffffffffffffffffffffffffffff16905090565b610369610f6a565b73ffffffffffffffffffffffffffffffffffffffff166103876106d1565b73ffffffffffffffffffffffffffffffffffffffff16146103dd576040517f08c379a00000000000000000000000000000000000000000000000000000000081526004016103d4906115d7565b60405180910390fd5b6103e76000610f9c565b565b600560009054906101000a900473ffffffffffffffffffffffffffffffffffffffff1673ffffffffffffffffffffffffffffffffffffffff16634f558e79836040518263ffffffff1660e01b81526004016104449190611637565b60206040518083038186803b15801561045c57600080fd5b505afa158015610470573d6000803e3d6000fd5b505050506040513d601f19601f8201168201806040525081019061049491906111df565b6104d3576040517f08c379a00000000000000000000000000000000000000000000000000000000081526004016104ca906115f7565b60405180910390fd5b6104db610f6a565b73ffffffffffffffffffffffffffffffffffffffff16600560009054906101000a900473ffffffffffffffffffffffffffffffffffffffff1673ffffffffffffffffffffffffffffffffffffffff16636352211e846040518263ffffffff1660e01b815260040161054c9190611637565b60206040518083038186803b15801561056457600080fd5b505afa158015610578573d6000803e3d6000fd5b505050506040513d601f19601f8201168201806040525081019061059c91906111b6565b73ffffffffffffffffffffffffffffffffffffffff16146105f2576040517f08c379a00000000000000000000000000000000000000000000000000000000081526004016105e990611557565b60405180910390fd5b604051806040016040528082815260200161060b610f6a565b73ffffffffffffffffffffffffffffffffffffffff16815250600760008481526020019081526020016000206000820151816000015560208201518160010160006101000a81548173ffffffffffffffffffffffffffffffffffffffff021916908373ffffffffffffffffffffffffffffffffffffffff1602179055509050507f9e57e2406ea0401d6a82255e86afa05bf3c967ea9eff5abc93b28c49cde5385282826106b6610f6a565b6040516106c59392919061167b565b60405180910390a15050565b60008060009054906101000a900473ffffffffffffffffffffffffffffffffffffffff16905090565b606060038054610709906117e7565b80601f0160208091040260200160405190810160405280929190818152602001828054610735906117e7565b80156107825780601f1061075757610100808354040283529160200191610782565b820191906000526020600020905b81548152906001019060200180831161076557829003601f168201915b5050505050905090565b60606004805461079b906117e7565b80601f01602080910402602001604051908101604052809291908181526020018280546107c7906117e7565b80156108145780601f106107e957610100808354040283529160200191610814565b820191906000526020600020905b8154815290600101906020018083116107f757829003601f168201915b5050505050905090565b600560009054906101000a900473ffffffffffffffffffffffffffffffffffffffff1673ffffffffffffffffffffffffffffffffffffffff16634f558e79826040518263ffffffff1660e01b81526004016108799190611637565b60206040518083038186803b15801561089157600080fd5b505afa1580156108a5573d6000803e3d6000fd5b505050506040513d601f19601f820116820180604052508101906108c991906111df565b610908576040517f08c379a00000000000000000000000000000000000000000000000000000000081526004016108ff90611617565b60405180910390fd5b600060076000838152602001908152602001600020600001541415610962576040517f08c379a000000000000000000000000000000000000000000000000000000000815260040161095990611597565b60405180910390fd5b61096a610f6a565b73ffffffffffffffffffffffffffffffffffffffff16600560009054906101000a900473ffffffffffffffffffffffffffffffffffffffff1673ffffffffffffffffffffffffffffffffffffffff16636352211e836040518263ffffffff1660e01b81526004016109db9190611637565b60206040518083038186803b1580156109f357600080fd5b505afa158015610a07573d6000803e3d6000fd5b505050506040513d601f19601f82011682018060405250810190610a2b91906111b6565b73ffffffffffffffffffffffffffffffffffffffff161415610a82576040517f08c379a0000000000000000000000000000000000000000000000000000000008152600401610a7990611537565b60405180910390fd5b60006007600083815260200190815260200160002090508060000154600660009054906101000a900473ffffffffffffffffffffffffffffffffffffffff1673ffffffffffffffffffffffffffffffffffffffff1663dd62ed3e610ae4610f6a565b306040518363ffffffff1660e01b8152600401610b0292919061147f565b60206040518083038186803b158015610b1a57600080fd5b505afa158015610b2e573d6000803e3d6000fd5b505050506040513d601f19601f82011682018060405250810190610b529190611272565b1015610b93576040517f08c379a0000000000000000000000000000000000000000000000000000000008152600401610b8a906115b7565b60405180910390fd5b600660009054906101000a900473ffffffffffffffffffffffffffffffffffffffff1673ffffffffffffffffffffffffffffffffffffffff166323b872dd610bd9610f6a565b8360010160009054906101000a900473ffffffffffffffffffffffffffffffffffffffff1684600001546040518463ffffffff1660e01b8152600401610c21939291906114a8565b602060405180830381600087803b158015610c3b57600080fd5b505af1158015610c4f573d6000803e3d6000fd5b505050506040513d601f19601f82011682018060405250810190610c7391906111df565b50600560009054906101000a900473ffffffffffffffffffffffffffffffffffffffff1673ffffffffffffffffffffffffffffffffffffffff166342842e0e600560009054906101000a900473ffffffffffffffffffffffffffffffffffffffff1673ffffffffffffffffffffffffffffffffffffffff16636352211e856040518263ffffffff1660e01b8152600401610d0d9190611637565b60206040518083038186803b158015610d2557600080fd5b505afa158015610d39573d6000803e3d6000fd5b505050506040513d601f19601f82011682018060405250810190610d5d91906111b6565b610d65610f6a565b856040518463ffffffff1660e01b8152600401610d84939291906114a8565b600060405180830381600087803b158015610d9e57600080fd5b505af1158015610db2573d6000803e3d6000fd5b5050505060006007600084815260200190815260200160002060000181905550610dda610f6a565b6007600084815260200190815260200160002060010160006101000a81548173ffffffffffffffffffffffffffffffffffffffff021916908373ffffffffffffffffffffffffffffffffffffffff1602179055507f96a887bcdadde42932e4d5545e020ad5eff675b467f53684e96a7d0062b4357782610e58610f6a565b604051610e66929190611652565b60405180910390a15050565b610e7a610f6a565b73ffffffffffffffffffffffffffffffffffffffff16610e986106d1565b73ffffffffffffffffffffffffffffffffffffffff1614610eee576040517f08c379a0000000000000000000000000000000000000000000000000000000008152600401610ee5906115d7565b60405180910390fd5b600073ffffffffffffffffffffffffffffffffffffffff168173ffffffffffffffffffffffffffffffffffffffff161415610f5e576040517f08c379a0000000000000000000000000000000000000000000000000000000008152600401610f5590611577565b60405180910390fd5b610f6781610f9c565b50565b600033905090565b6000600260009054906101000a900473ffffffffffffffffffffffffffffffffffffffff16905090565b60008054906101000a900473ffffffffffffffffffffffffffffffffffffffff16600160006101000a81548173ffffffffffffffffffffffffffffffffffffffff021916908373ffffffffffffffffffffffffffffffffffffffff160217905550806000806101000a81548173ffffffffffffffffffffffffffffffffffffffff021916908373ffffffffffffffffffffffffffffffffffffffff1602179055508073ffffffffffffffffffffffffffffffffffffffff16600160009054906101000a900473ffffffffffffffffffffffffffffffffffffffff1673ffffffffffffffffffffffffffffffffffffffff167f8be0079c531659141344cd1fd0a4f28419497f9722a3daafe3b4186f6b6457e060405160405180910390a350565b60006110cf6110ca846116d7565b6116b2565b9050828152602081018484840111156110e757600080fd5b6110f28482856117b4565b509392505050565b60008135905061110981611b57565b92915050565b60008151905061111e81611b57565b92915050565b60008151905061113381611b6e565b92915050565b600082601f83011261114a57600080fd5b815161115a8482602086016110bc565b91505092915050565b60008135905061117281611b85565b92915050565b60008151905061118781611b85565b92915050565b60006020828403121561119f57600080fd5b60006111ad848285016110fa565b91505092915050565b6000602082840312156111c857600080fd5b60006111d68482850161110f565b91505092915050565b6000602082840312156111f157600080fd5b60006111ff84828501611124565b91505092915050565b60006020828403121561121a57600080fd5b600082015167ffffffffffffffff81111561123457600080fd5b61124084828501611139565b91505092915050565b60006020828403121561125b57600080fd5b600061126984828501611163565b91505092915050565b60006020828403121561128457600080fd5b600061129284828501611178565b91505092915050565b600080604083850312156112ae57600080fd5b60006112bc85828601611163565b92505060206112cd85828601611163565b9150509250929050565b6112e081611724565b82525050565b6112ef8161176c565b82525050565b6112fe81611790565b82525050565b600061130f82611708565b6113198185611713565b93506113298185602086016117b4565b611332816118a8565b840191505092915050565b600061134a603d83611713565b9150611355826118b9565b604082019050919050565b600061136d603b83611713565b915061137882611908565b604082019050919050565b6000611390603083611713565b915061139b82611957565b604082019050919050565b60006113b3603283611713565b91506113be826119a6565b604082019050919050565b60006113d6604983611713565b91506113e1826119f5565b606082019050919050565b60006113f9602583611713565b915061140482611a6a565b604082019050919050565b600061141c602c83611713565b915061142782611ab9565b604082019050919050565b600061143f602d83611713565b915061144a82611b08565b604082019050919050565b61145e81611762565b82525050565b600060208201905061147960008301846112d7565b92915050565b600060408201905061149460008301856112d7565b6114a160208301846112d7565b9392505050565b60006060820190506114bd60008301866112d7565b6114ca60208301856112d7565b6114d76040830184611455565b949350505050565b60006020820190506114f460008301846112e6565b92915050565b600060208201905061150f60008301846112f5565b92915050565b6000602082019050818103600083015261152f8184611304565b905092915050565b600060208201905081810360008301526115508161133d565b9050919050565b6000602082019050818103600083015261157081611360565b9050919050565b6000602082019050818103600083015261159081611383565b9050919050565b600060208201905081810360008301526115b0816113a6565b9050919050565b600060208201905081810360008301526115d0816113c9565b9050919050565b600060208201905081810360008301526115f0816113ec565b9050919050565b600060208201905081810360008301526116108161140f565b9050919050565b6000602082019050818103600083015261163081611432565b9050919050565b600060208201905061164c6000830184611455565b92915050565b60006040820190506116676000830185611455565b61167460208301846112d7565b9392505050565b60006060820190506116906000830186611455565b61169d6020830185611455565b6116aa60408301846112d7565b949350505050565b60006116bc6116cd565b90506116c88282611819565b919050565b6000604051905090565b600067ffffffffffffffff8211156116f2576116f1611879565b5b6116fb826118a8565b9050602081019050919050565b600081519050919050565b600082825260208201905092915050565b600061172f82611742565b9050919050565b60008115159050919050565b600073ffffffffffffffffffffffffffffffffffffffff82169050919050565b6000819050919050565b60006117778261177e565b9050919050565b600061178982611742565b9050919050565b600061179b826117a2565b9050919050565b60006117ad82611742565b9050919050565b60005b838110156117d25780820151818401526020810190506117b7565b838111156117e1576000848401525b50505050565b600060028204905060018216806117ff57607f821691505b602082108114156118135761181261184a565b5b50919050565b611822826118a8565b810181811067ffffffffffffffff8211171561184157611840611879565b5b80604052505050565b7f4e487b7100000000000000000000000000000000000000000000000000000000600052602260045260246000fd5b7f4e487b7100000000000000000000000000000000000000000000000000000000600052604160045260246000fd5b6000601f19601f8301169050919050565b7f4f776e6572736869704d6f64756c652e627579696e673a204f776e6572206f6660008201527f206e66742063616e206e6f742062757920686973206f776e206e66742e000000602082015250565b7f4d61726b6574706c6163652e73656c6c696e674e46543a2053656e646572206860008201527f617320746f20626520746865206f776e6572206f6620746f6b656e0000000000602082015250565b7f4f776e61626c653a20546865206e6577206f776e6572206973206e6f772c207460008201527f6865207a65726f20616464726573732100000000000000000000000000000000602082015250565b7f4f776e6572736869704d6f64756c652e627579696e673a20546f6b656e20697360008201527f206e6f7420696e2073616c65206c6973742e0000000000000000000000000000602082015250565b7f4f776e6572736869704d6f64756c652e627579696e673a20455243323020746f60008201527f6b656e20616c6c6f77616e6365206973206c657373207468616e2073656c6c6960208201527f6e672070726963652e0000000000000000000000000000000000000000000000604082015250565b7f4f776e61626c653a205468652063616c6c6572206973206e6f7420746865206f60008201527f776e657221000000000000000000000000000000000000000000000000000000602082015250565b7f4d61726b6574706c6163652e73656c6c696e674e46543a204e6674496420646f60008201527f6573206e6f742065786973740000000000000000000000000000000000000000602082015250565b7f4f776e6572736869704d6f64756c652e627579696e673a204e6674496420646f60008201527f6573206e6f742065786973742e00000000000000000000000000000000000000602082015250565b611b6081611724565b8114611b6b57600080fd5b50565b611b7781611736565b8114611b8257600080fd5b50565b611b8e81611762565b8114611b9957600080fd5b5056fea2646970667358221220c385418435728aa8e1232e84b0f359bd8f224282a89a4c09bf7fa135f26c2cf664736f6c63430008040033",
  "immutableReferences": {},
  "source": "/**\n    ***********************************************************\n    * Copyright (c) Avara Dev. 2021. (Telegram: @avara_cc)  *\n    ***********************************************************\n\n             \n          \n       \n         \n        .       .       - Binance Smart Chain\n\n    Avara - Always Vivid, Always Rising Above\n    https://avara.cc/\n    https://github.com/avara-cc\n    https://github.com/avara-cc/Avara/wiki\n*/\n\n// SPDX-License-Identifier: AGPL-3.0-or-later\n\npragma solidity 0.8.4;\n\nimport \"./abstract/AvaraModule.sol\";\nimport \"./library/SafeMath.sol\";\nimport \"./NFT/IAvaraNft.sol\";\nimport \"@openzeppelin/contracts/token/ERC20/IERC20.sol\";\n\ncontract OwnershipModule is AvaraModule {\n    IAvaraNft public AvaraNFT;\n    IERC20 public Avara;\n    struct SellNft {\n        uint256 price;\n        address seller;\n    }\n    mapping(uint256 => SellNft) sellNftList;\n    event SellingNft(uint256 nftId, uint256 price, address seller);\n    event BuyingNft(uint256 nftId, address buyer);\n\n    constructor(address cOwner, address baseContract, address avaraNftContract) AvaraModule(cOwner, baseContract, \"Ownership\", \"0.0.1\") {\n        AvaraNFT = IAvaraNft(avaraNftContract);\n        Avara = IERC20(baseContract);\n    }\n\n    function selling(uint256 nftId, uint256 price_) public {\n        require(AvaraNFT.exists(nftId), \"Marketplace.sellingNFT: NftId does not exist\");\n        require(AvaraNFT.ownerOf(nftId) == _msgSender(), \"Marketplace.sellingNFT: Sender has to be the owner of token\");\n        sellNftList[nftId] = SellNft({\n            price: price_,\n            seller: _msgSender()\n        });\n\n        emit SellingNft(nftId, price_, _msgSender());\n    }\n    function buying(uint256 nftId) public {\n        require(AvaraNFT.exists(nftId), \"OwnershipModule.buying: NftId does not exist.\");\n        require(sellNftList[nftId].price != 0, \"OwnershipModule.buying: Token is not in sale list.\");\n        require(AvaraNFT.ownerOf(nftId) != _msgSender(), \"OwnershipModule.buying: Owner of nft can not buy his own nft.\");\n        SellNft storage sell = sellNftList[nftId];\n        require(Avara.allowance(_msgSender(), address(this)) >=  sell.price, \"OwnershipModule.buying: ERC20 token allowance is less than selling price.\");\n        Avara.transferFrom(_msgSender(), sell.seller, sell.price);\n\n        AvaraNFT.safeTransferFrom(AvaraNFT.ownerOf(nftId), _msgSender(), nftId);\n        sellNftList[nftId].price = 0;\n        sellNftList[nftId].seller = _msgSender();\n        emit BuyingNft(nftId, _msgSender());\n    }\n    /**\n    * @dev Occasionally called (only) by the server to make sure that the connection with the module and main contract is granted.\n    */\n    function ping() external view onlyOwner returns (string memory) {\n        return getBaseContract().ping();\n    }\n}",
  "sourcePath": "/home/oncemore/Blockchain/avara-test/contract/contracts/OwnershipModule.sol",
  "compiler": {
    "name": "solc",
    "version": "0.8.4+commit.c7e474f2.Emscripten.clang"
  },
  "schemaVersion": "3.3.4",
  "updatedAt": "2022-01-27T15:46:36.903Z",
  "devdoc": {
    "kind": "dev",
    "methods": {
      "moduleName()": {
        "details": "Returns the module name."
      },
      "moduleVersion()": {
        "details": "Returns the module version."
      },
      "owner()": {
        "details": "Returns the address of the current owner."
      },
      "ping()": {
        "details": "Occasionally called (only) by the server to make sure that the connection with the module and main contract is granted."
      },
      "previousOwner()": {
        "details": "Returns the address of the previous owner."
      },
      "renounceOwnership()": {
        "details": "Leaves the contract without an owner. It won't be possible to call `onlyOwner` functions anymore. Can only be called by the current owner."
      },
      "transferOwnership(address)": {
        "details": "Transfers ownership of the contract to a new account (`newOwner`). Can only be called by the current owner."
      }
    },
    "version": 1
  },
  "userdoc": {
    "kind": "user",
    "methods": {},
    "version": 1
  }
}