{
  "contractName": "StakingModule",
  "abi": [
    {
      "inputs": [
        {
          "internalType": "address",
          "name": "cOwner",
          "type": "address"
        },
        {
          "internalType": "address",
          "name": "baseContract",
          "type": "address"
        }
      ],
      "stateMutability": "nonpayable",
      "type": "constructor"
    },
    {
      "anonymous": false,
      "inputs": [
        {
          "indexed": false,
          "internalType": "uint256",
          "name": "value",
          "type": "uint256"
        }
      ],
      "name": "FundsRefilled",
      "type": "event"
    },
    {
      "anonymous": false,
      "inputs": [
        {
          "indexed": false,
          "internalType": "uint256",
          "name": "value",
          "type": "uint256"
        }
      ],
      "name": "FundsUsed",
      "type": "event"
    },
    {
      "anonymous": false,
      "inputs": [
        {
          "indexed": true,
          "internalType": "address",
          "name": "stakeHolder",
          "type": "address"
        },
        {
          "components": [
            {
              "internalType": "bytes32",
              "name": "id",
              "type": "bytes32"
            },
            {
              "internalType": "uint32",
              "name": "startTime",
              "type": "uint32"
            },
            {
              "internalType": "uint256",
              "name": "value",
              "type": "uint256"
            },
            {
              "internalType": "uint256",
              "name": "rewardValue",
              "type": "uint256"
            },
            {
              "internalType": "uint256",
              "name": "startRate",
              "type": "uint256"
            },
            {
              "internalType": "enum StakingModule.StakeType",
              "name": "stakeType",
              "type": "uint8"
            },
            {
              "internalType": "enum StakingModule.TimePeriod",
              "name": "timePeriod",
              "type": "uint8"
            },
            {
              "internalType": "enum StakingModule.MarketCapX",
              "name": "marketCapX",
              "type": "uint8"
            }
          ],
          "indexed": false,
          "internalType": "struct StakingModule.Stake",
          "name": "stake",
          "type": "tuple"
        }
      ],
      "name": "NewStake",
      "type": "event"
    },
    {
      "anonymous": false,
      "inputs": [
        {
          "indexed": true,
          "internalType": "address",
          "name": "stakeHolder",
          "type": "address"
        }
      ],
      "name": "NewStakeHolder",
      "type": "event"
    },
    {
      "anonymous": false,
      "inputs": [
        {
          "indexed": true,
          "internalType": "address",
          "name": "previousOwner",
          "type": "address"
        },
        {
          "indexed": true,
          "internalType": "address",
          "name": "newOwner",
          "type": "address"
        }
      ],
      "name": "OwnershipTransferred",
      "type": "event"
    },
    {
      "anonymous": false,
      "inputs": [
        {
          "indexed": true,
          "internalType": "address",
          "name": "oldAddress",
          "type": "address"
        },
        {
          "indexed": true,
          "internalType": "address",
          "name": "newAddress",
          "type": "address"
        }
      ],
      "name": "PancakePairUpdated",
      "type": "event"
    },
    {
      "anonymous": false,
      "inputs": [
        {
          "indexed": false,
          "internalType": "uint256",
          "name": "rewardValue",
          "type": "uint256"
        },
        {
          "indexed": false,
          "internalType": "uint256",
          "name": "totalStakeAmount",
          "type": "uint256"
        },
        {
          "indexed": false,
          "internalType": "uint256",
          "name": "numberOfStakeHolders",
          "type": "uint256"
        },
        {
          "indexed": false,
          "internalType": "uint256",
          "name": "numberOfStakes",
          "type": "uint256"
        }
      ],
      "name": "RewardDistribution",
      "type": "event"
    },
    {
      "anonymous": false,
      "inputs": [
        {
          "indexed": false,
          "internalType": "bytes32",
          "name": "stakeId",
          "type": "bytes32"
        },
        {
          "indexed": true,
          "internalType": "address",
          "name": "stakeHolder",
          "type": "address"
        }
      ],
      "name": "StakeReverted",
      "type": "event"
    },
    {
      "anonymous": false,
      "inputs": [
        {
          "indexed": true,
          "internalType": "address",
          "name": "stakeHolder",
          "type": "address"
        },
        {
          "indexed": false,
          "internalType": "uint256",
          "name": "value",
          "type": "uint256"
        }
      ],
      "name": "StakeWithdraw",
      "type": "event"
    },
    {
      "inputs": [],
      "name": "_1_MONTH_IN_SEC",
      "outputs": [
        {
          "internalType": "uint32",
          "name": "",
          "type": "uint32"
        }
      ],
      "stateMutability": "view",
      "type": "function"
    },
    {
      "inputs": [],
      "name": "moduleName",
      "outputs": [
        {
          "internalType": "string",
          "name": "",
          "type": "string"
        }
      ],
      "stateMutability": "view",
      "type": "function"
    },
    {
      "inputs": [],
      "name": "moduleVersion",
      "outputs": [
        {
          "internalType": "string",
          "name": "",
          "type": "string"
        }
      ],
      "stateMutability": "view",
      "type": "function"
    },
    {
      "inputs": [],
      "name": "owner",
      "outputs": [
        {
          "internalType": "address",
          "name": "",
          "type": "address"
        }
      ],
      "stateMutability": "view",
      "type": "function"
    },
    {
      "inputs": [],
      "name": "pancakePair",
      "outputs": [
        {
          "internalType": "contract IPancakePair",
          "name": "",
          "type": "address"
        }
      ],
      "stateMutability": "view",
      "type": "function"
    },
    {
      "inputs": [],
      "name": "previousOwner",
      "outputs": [
        {
          "internalType": "address",
          "name": "",
          "type": "address"
        }
      ],
      "stateMutability": "view",
      "type": "function"
    },
    {
      "inputs": [],
      "name": "renounceOwnership",
      "outputs": [],
      "stateMutability": "nonpayable",
      "type": "function"
    },
    {
      "inputs": [],
      "name": "stakeCounter",
      "outputs": [
        {
          "internalType": "uint256",
          "name": "",
          "type": "uint256"
        }
      ],
      "stateMutability": "view",
      "type": "function"
    },
    {
      "inputs": [
        {
          "internalType": "uint256",
          "name": "",
          "type": "uint256"
        }
      ],
      "name": "stakeHolders",
      "outputs": [
        {
          "internalType": "address",
          "name": "",
          "type": "address"
        }
      ],
      "stateMutability": "view",
      "type": "function"
    },
    {
      "inputs": [
        {
          "internalType": "address",
          "name": "newOwner",
          "type": "address"
        }
      ],
      "name": "transferOwnership",
      "outputs": [],
      "stateMutability": "nonpayable",
      "type": "function"
    },
    {
      "inputs": [],
      "name": "updatePancakeSwapPair",
      "outputs": [],
      "stateMutability": "nonpayable",
      "type": "function"
    },
    {
      "inputs": [],
      "name": "getRate",
      "outputs": [
        {
          "internalType": "uint256",
          "name": "rate",
          "type": "uint256"
        },
        {
          "internalType": "uint32",
          "name": "blockTimestampLast",
          "type": "uint32"
        }
      ],
      "stateMutability": "view",
      "type": "function"
    },
    {
      "inputs": [
        {
          "internalType": "address",
          "name": "stakeHolder",
          "type": "address"
        }
      ],
      "name": "getStakes",
      "outputs": [
        {
          "components": [
            {
              "internalType": "bytes32",
              "name": "id",
              "type": "bytes32"
            },
            {
              "internalType": "uint32",
              "name": "startTime",
              "type": "uint32"
            },
            {
              "internalType": "uint256",
              "name": "value",
              "type": "uint256"
            },
            {
              "internalType": "uint256",
              "name": "rewardValue",
              "type": "uint256"
            },
            {
              "internalType": "uint256",
              "name": "startRate",
              "type": "uint256"
            },
            {
              "internalType": "enum StakingModule.StakeType",
              "name": "stakeType",
              "type": "uint8"
            },
            {
              "internalType": "enum StakingModule.TimePeriod",
              "name": "timePeriod",
              "type": "uint8"
            },
            {
              "internalType": "enum StakingModule.MarketCapX",
              "name": "marketCapX",
              "type": "uint8"
            }
          ],
          "internalType": "struct StakingModule.Stake[]",
          "name": "",
          "type": "tuple[]"
        }
      ],
      "stateMutability": "view",
      "type": "function"
    },
    {
      "inputs": [],
      "name": "getStakeSummary",
      "outputs": [
        {
          "internalType": "uint256",
          "name": "totalStakeValue",
          "type": "uint256"
        },
        {
          "internalType": "uint256",
          "name": "totalRewardValue",
          "type": "uint256"
        },
        {
          "internalType": "uint256",
          "name": "stakeHolderCount",
          "type": "uint256"
        },
        {
          "internalType": "uint256",
          "name": "stakeCount",
          "type": "uint256"
        }
      ],
      "stateMutability": "view",
      "type": "function"
    },
    {
      "inputs": [
        {
          "internalType": "bytes32",
          "name": "stakeId",
          "type": "bytes32"
        },
        {
          "internalType": "address",
          "name": "stakeHolder",
          "type": "address"
        }
      ],
      "name": "getStakeById",
      "outputs": [
        {
          "internalType": "bool",
          "name": "",
          "type": "bool"
        },
        {
          "components": [
            {
              "internalType": "bytes32",
              "name": "id",
              "type": "bytes32"
            },
            {
              "internalType": "uint32",
              "name": "startTime",
              "type": "uint32"
            },
            {
              "internalType": "uint256",
              "name": "value",
              "type": "uint256"
            },
            {
              "internalType": "uint256",
              "name": "rewardValue",
              "type": "uint256"
            },
            {
              "internalType": "uint256",
              "name": "startRate",
              "type": "uint256"
            },
            {
              "internalType": "enum StakingModule.StakeType",
              "name": "stakeType",
              "type": "uint8"
            },
            {
              "internalType": "enum StakingModule.TimePeriod",
              "name": "timePeriod",
              "type": "uint8"
            },
            {
              "internalType": "enum StakingModule.MarketCapX",
              "name": "marketCapX",
              "type": "uint8"
            }
          ],
          "internalType": "struct StakingModule.Stake",
          "name": "",
          "type": "tuple"
        },
        {
          "internalType": "uint256",
          "name": "",
          "type": "uint256"
        }
      ],
      "stateMutability": "view",
      "type": "function"
    },
    {
      "inputs": [
        {
          "internalType": "uint256",
          "name": "value",
          "type": "uint256"
        },
        {
          "internalType": "enum StakingModule.TimePeriod",
          "name": "timePeriod",
          "type": "uint8"
        }
      ],
      "name": "addTimeStake",
      "outputs": [],
      "stateMutability": "nonpayable",
      "type": "function"
    },
    {
      "inputs": [
        {
          "internalType": "uint256",
          "name": "value",
          "type": "uint256"
        },
        {
          "internalType": "enum StakingModule.MarketCapX",
          "name": "marketCapX",
          "type": "uint8"
        }
      ],
      "name": "addMultiplierStake",
      "outputs": [],
      "stateMutability": "nonpayable",
      "type": "function"
    },
    {
      "inputs": [
        {
          "internalType": "uint256",
          "name": "value",
          "type": "uint256"
        },
        {
          "internalType": "enum StakingModule.MarketCapX",
          "name": "marketCapX",
          "type": "uint8"
        },
        {
          "internalType": "enum StakingModule.TimePeriod",
          "name": "timePeriod",
          "type": "uint8"
        }
      ],
      "name": "addCombinedStake",
      "outputs": [],
      "stateMutability": "nonpayable",
      "type": "function"
    },
    {
      "inputs": [
        {
          "internalType": "bytes32",
          "name": "stakeId",
          "type": "bytes32"
        }
      ],
      "name": "withdraw",
      "outputs": [],
      "stateMutability": "nonpayable",
      "type": "function"
    },
    {
      "inputs": [
        {
          "internalType": "uint256",
          "name": "amount",
          "type": "uint256"
        }
      ],
      "name": "useFunds",
      "outputs": [],
      "stateMutability": "nonpayable",
      "type": "function"
    },
    {
      "inputs": [
        {
          "internalType": "bytes32",
          "name": "stakeId",
          "type": "bytes32"
        },
        {
          "internalType": "address",
          "name": "stakeHolder",
          "type": "address"
        }
      ],
      "name": "revertStake",
      "outputs": [],
      "stateMutability": "nonpayable",
      "type": "function"
    },
    {
      "inputs": [
        {
          "internalType": "uint256",
          "name": "amount",
          "type": "uint256"
        }
      ],
      "name": "refillFunds",
      "outputs": [],
      "stateMutability": "nonpayable",
      "type": "function"
    },
    {
      "inputs": [
        {
          "internalType": "uint256",
          "name": "amount",
          "type": "uint256"
        }
      ],
      "name": "distributeRewards",
      "outputs": [],
      "stateMutability": "nonpayable",
      "type": "function"
    },
    {
      "inputs": [],
      "name": "ping",
      "outputs": [
        {
          "internalType": "string",
          "name": "",
          "type": "string"
        }
      ],
      "stateMutability": "view",
      "type": "function"
    }
  ],
  "bytecode": "0x60806040523480156200001157600080fd5b506040516200663e3803806200663e833981810160405281019062000037919062000559565b81816040518060400160405280600781526020017f5374616b696e67000000000000000000000000000000000000000000000000008152506040518060400160405280600581526020017f302e302e3100000000000000000000000000000000000000000000000000000081525083620000b7816200031c60201b60201c565b5082600260006101000a81548173ffffffffffffffffffffffffffffffffffffffff021916908373ffffffffffffffffffffffffffffffffffffffff1602179055508373ffffffffffffffffffffffffffffffffffffffff16600260009054906101000a900473ffffffffffffffffffffffffffffffffffffffff1673ffffffffffffffffffffffffffffffffffffffff16638da5cb5b6040518163ffffffff1660e01b815260040160206040518083038186803b1580156200017957600080fd5b505afa1580156200018e573d6000803e3d6000fd5b505050506040513d601f19601f82011682018060405250810190620001b491906200052d565b73ffffffffffffffffffffffffffffffffffffffff16146200020d576040517f08c379a00000000000000000000000000000000000000000000000000000000081526004016200020490620005c1565b60405180910390fd5b81600390805190602001906200022592919062000466565b5080600490805190602001906200023e92919062000466565b5050505050620002536200043c60201b60201c565b73ffffffffffffffffffffffffffffffffffffffff1663fbb4ebde6040518163ffffffff1660e01b815260040160206040518083038186803b1580156200029957600080fd5b505afa158015620002ae573d6000803e3d6000fd5b505050506040513d601f19601f82011682018060405250810190620002d491906200052d565b600660006101000a81548173ffffffffffffffffffffffffffffffffffffffff021916908373ffffffffffffffffffffffffffffffffffffffff1602179055505050620006f6565b60008054906101000a900473ffffffffffffffffffffffffffffffffffffffff16600160006101000a81548173ffffffffffffffffffffffffffffffffffffffff021916908373ffffffffffffffffffffffffffffffffffffffff160217905550806000806101000a81548173ffffffffffffffffffffffffffffffffffffffff021916908373ffffffffffffffffffffffffffffffffffffffff1602179055508073ffffffffffffffffffffffffffffffffffffffff16600160009054906101000a900473ffffffffffffffffffffffffffffffffffffffff1673ffffffffffffffffffffffffffffffffffffffff167f8be0079c531659141344cd1fd0a4f28419497f9722a3daafe3b4186f6b6457e060405160405180910390a350565b6000600260009054906101000a900473ffffffffffffffffffffffffffffffffffffffff16905090565b828054620004749062000628565b90600052602060002090601f016020900481019282620004985760008555620004e4565b82601f10620004b357805160ff1916838001178555620004e4565b82800160010185558215620004e4579182015b82811115620004e3578251825591602001919060010190620004c6565b5b509050620004f39190620004f7565b5090565b5b8082111562000512576000816000905550600101620004f8565b5090565b6000815190506200052781620006dc565b92915050565b6000602082840312156200054057600080fd5b6000620005508482850162000516565b91505092915050565b600080604083850312156200056d57600080fd5b60006200057d8582860162000516565b9250506020620005908582860162000516565b9150509250929050565b6000620005a9603b83620005e3565b9150620005b6826200068d565b604082019050919050565b60006020820190508181036000830152620005dc816200059a565b9050919050565b600082825260208201905092915050565b6000620006018262000608565b9050919050565b600073ffffffffffffffffffffffffffffffffffffffff82169050919050565b600060028204905060018216806200064157607f821691505b602082108114156200065857620006576200065e565b5b50919050565b7f4e487b7100000000000000000000000000000000000000000000000000000000600052602260045260246000fd5b7f546865206d6f64756c65206465706c6f796572206d757374206265207468652060008201527f6f776e6572206f6620746865206261736520636f6e7472616374210000000000602082015250565b620006e781620005f4565b8114620006f357600080fd5b50565b615f3880620007066000396000f3fe608060405234801561001057600080fd5b50600436106101585760003560e01c806387e271d2116100c3578063b8c9d25c1161007c578063b8c9d25c14610381578063baa3b4d71461039f578063df351da8146103bd578063f2fde38b146103d9578063f7b17d10146103f5578063f999f9da1461041357610158565b806387e271d2146102d35780638da5cb5b146102dd5780638e19899e146102fb57806393f0899a14610317578063acad41a414610335578063b5f24e841461036557610158565b8063674f220f11610115578063674f220f1461020e578063679aefce1461022c5780636d89a2be1461024b578063715018a6146102675780637ba6f458146102715780638152d1e3146102a157610158565b8063095ff8e11461015d5780631b085e06146101795780633153b58a146101955780633c7c4fee146101b657806359974e38146101d45780635c36b186146101f0575b600080fd5b61017760048036038101906101729190614d5b565b61042f565b005b610193600480360381019061018e9190614de9565b6106ea565b005b61019d610bc0565b6040516101ad9493929190615551565b60405180910390f35b6101be610f85565b6040516101cb91906155bf565b60405180910390f35b6101ee60048036038101906101e99190614d5b565b610f8c565b005b6101f86114b0565b60405161020591906153b8565b60405180910390f35b6102166115bd565b60405161022391906152ac565b60405180910390f35b6102346115e7565b604051610242929190615596565b60405180910390f35b61026560048036038101906102609190614c8f565b6117e9565b005b61026f611df5565b005b61028b60048036038101906102869190614beb565b611e7d565b6040516102989190615327565b60405180910390f35b6102bb60048036038101906102b69190614c8f565b6120ff565b6040516102ca93929190615349565b60405180910390f35b6102db61249c565b005b6102e5612683565b6040516102f291906152ac565b60405180910390f35b61031560048036038101906103109190614c66565b6126ac565b005b61031f6132f0565b60405161032c91906153b8565b60405180910390f35b61034f600480360381019061034a9190614d5b565b613382565b60405161035c91906152ac565b60405180910390f35b61037f600480360381019061037a9190614e38565b6133c1565b005b610389613768565b604051610396919061539d565b60405180910390f35b6103a761378e565b6040516103b491906153b8565b60405180910390f35b6103d760048036038101906103d29190614dad565b613820565b005b6103f360048036038101906103ee9190614beb565b613bc7565b005b6103fd613cbf565b60405161040a9190615536565b60405180910390f35b61042d60048036038101906104289190614d5b565b613cc5565b005b610437613d9d565b73ffffffffffffffffffffffffffffffffffffffff16610455612683565b73ffffffffffffffffffffffffffffffffffffffff16146104ab576040517f08c379a00000000000000000000000000000000000000000000000000000000081526004016104a29061549a565b60405180910390fd5b806104b4613da5565b73ffffffffffffffffffffffffffffffffffffffff166370a08231306040518263ffffffff1660e01b81526004016104ec91906152ac565b60206040518083038186803b15801561050457600080fd5b505afa158015610518573d6000803e3d6000fd5b505050506040513d601f19601f8201168201806040525081019061053c9190614d84565b101561057d576040517f08c379a00000000000000000000000000000000000000000000000000000000081526004016105749061545a565b60405180910390fd5b610585613da5565b73ffffffffffffffffffffffffffffffffffffffff1663095ea7b330836040518363ffffffff1660e01b81526004016105bf9291906152fe565b602060405180830381600087803b1580156105d957600080fd5b505af11580156105ed573d6000803e3d6000fd5b505050506040513d601f19601f820116820180604052508101906106119190614c3d565b5061061a613da5565b73ffffffffffffffffffffffffffffffffffffffff166323b872dd3061063e612683565b846040518463ffffffff1660e01b815260040161065d939291906152c7565b602060405180830381600087803b15801561067757600080fd5b505af115801561068b573d6000803e3d6000fd5b505050506040513d601f19601f820116820180604052508101906106af9190614c3d565b507f24c7db5f381544ec24b978611a0217207a37598755cb0ab201fd3fcc093c050c816040516106df9190615536565b60405180910390a150565b600480811115610723577f4e487b7100000000000000000000000000000000000000000000000000000000600052602160045260246000fd5b81600481111561075c577f4e487b7100000000000000000000000000000000000000000000000000000000600052602160045260246000fd5b111580156107da57506000600481111561079f577f4e487b7100000000000000000000000000000000000000000000000000000000600052602160045260246000fd5b8160048111156107d8577f4e487b7100000000000000000000000000000000000000000000000000000000600052602160045260246000fd5b115b610819576040517f08c379a00000000000000000000000000000000000000000000000000000000081526004016108109061547a565b60405180910390fd5b600680811115610852577f4e487b7100000000000000000000000000000000000000000000000000000000600052602160045260246000fd5b82600681111561088b577f4e487b7100000000000000000000000000000000000000000000000000000000600052602160045260246000fd5b111580156109095750600060068111156108ce577f4e487b7100000000000000000000000000000000000000000000000000000000600052602160045260246000fd5b826006811115610907577f4e487b7100000000000000000000000000000000000000000000000000000000600052602160045260246000fd5b115b610948576040517f08c379a000000000000000000000000000000000000000000000000000000000815260040161093f906154da565b60405180910390fd5b610950613da5565b73ffffffffffffffffffffffffffffffffffffffff166323b872dd610973613d9d565b30866040518463ffffffff1660e01b8152600401610993939291906152c7565b602060405180830381600087803b1580156109ad57600080fd5b505af11580156109c1573d6000803e3d6000fd5b505050506040513d601f19601f820116820180604052508101906109e59190614c3d565b506000806109f16115e7565b915091506109fd6149bb565b610a05613dcf565b81600001818152505085816040018181525050848160e001906006811115610a56577f4e487b7100000000000000000000000000000000000000000000000000000000600052602160045260246000fd5b90816006811115610a90577f4e487b7100000000000000000000000000000000000000000000000000000000600052602160045260246000fd5b81525050838160c001906004811115610ad2577f4e487b7100000000000000000000000000000000000000000000000000000000600052602160045260246000fd5b90816004811115610b0c577f4e487b7100000000000000000000000000000000000000000000000000000000600052602160045260246000fd5b8152505060028160a001906002811115610b4f577f4e487b7100000000000000000000000000000000000000000000000000000000600052602160045260246000fd5b90816002811115610b89577f4e487b7100000000000000000000000000000000000000000000000000000000600052602160045260246000fd5b8152505081816020019063ffffffff16908163ffffffff168152505082816080018181525050610bb881613e17565b505050505050565b6000806000806000935060009250600091506000905060005b600780549050811015610f7e5760006008600060078481548110610c26577f4e487b7100000000000000000000000000000000000000000000000000000000600052603260045260246000fd5b9060005260206000200160009054906101000a900473ffffffffffffffffffffffffffffffffffffffff1673ffffffffffffffffffffffffffffffffffffffff1673ffffffffffffffffffffffffffffffffffffffff168152602001908152602001600020805490501115610f6b578280610ca0906159b7565b93505060005b6008600060078481548110610ce4577f4e487b7100000000000000000000000000000000000000000000000000000000600052603260045260246000fd5b9060005260206000200160009054906101000a900473ffffffffffffffffffffffffffffffffffffffff1673ffffffffffffffffffffffffffffffffffffffff1673ffffffffffffffffffffffffffffffffffffffff16815260200190815260200160002080549050811015610f69578280610d5f906159b7565b9350506008600060078481548110610da0577f4e487b7100000000000000000000000000000000000000000000000000000000600052603260045260246000fd5b9060005260206000200160009054906101000a900473ffffffffffffffffffffffffffffffffffffffff1673ffffffffffffffffffffffffffffffffffffffff1673ffffffffffffffffffffffffffffffffffffffff1681526020019081526020016000208181548110610e3d577f4e487b7100000000000000000000000000000000000000000000000000000000600052603260045260246000fd5b90600052602060002090600602016002015486610e5a9190615685565b95506008600060078481548110610e9a577f4e487b7100000000000000000000000000000000000000000000000000000000600052603260045260246000fd5b9060005260206000200160009054906101000a900473ffffffffffffffffffffffffffffffffffffffff1673ffffffffffffffffffffffffffffffffffffffff1673ffffffffffffffffffffffffffffffffffffffff1681526020019081526020016000208181548110610f37577f4e487b7100000000000000000000000000000000000000000000000000000000600052603260045260246000fd5b90600052602060002090600602016003015485610f549190615685565b94508080610f61906159b7565b915050610ca6565b505b8080610f76906159b7565b915050610bd9565b5090919293565b6228206f81565b6000806000610f99610bc0565b93509350509250600081118015610fb05750600082115b8015610fbc5750600083115b610ffb576040517f08c379a0000000000000000000000000000000000000000000000000000000008152600401610ff29061541a565b60405180910390fd5b611003613da5565b73ffffffffffffffffffffffffffffffffffffffff166323b872dd611026613d9d565b30876040518463ffffffff1660e01b8152600401611046939291906152c7565b602060405180830381600087803b15801561106057600080fd5b505af1158015611074573d6000803e3d6000fd5b505050506040513d601f19601f820116820180604052508101906110989190614c3d565b5060005b60078054905081101561146c57600060086000600784815481106110e9577f4e487b7100000000000000000000000000000000000000000000000000000000600052603260045260246000fd5b9060005260206000200160009054906101000a900473ffffffffffffffffffffffffffffffffffffffff1673ffffffffffffffffffffffffffffffffffffffff1673ffffffffffffffffffffffffffffffffffffffff1681526020019081526020016000208054905011156114595760005b6008600060078481548110611199577f4e487b7100000000000000000000000000000000000000000000000000000000600052603260045260246000fd5b9060005260206000200160009054906101000a900473ffffffffffffffffffffffffffffffffffffffff1673ffffffffffffffffffffffffffffffffffffffff1673ffffffffffffffffffffffffffffffffffffffff16815260200190815260200160002080549050811015611457576113426103e8611334611325886113176103e86008600060078b8154811061125a577f4e487b7100000000000000000000000000000000000000000000000000000000600052603260045260246000fd5b9060005260206000200160009054906101000a900473ffffffffffffffffffffffffffffffffffffffff1673ffffffffffffffffffffffffffffffffffffffff1673ffffffffffffffffffffffffffffffffffffffff16815260200190815260200160002088815481106112f7577f4e487b7100000000000000000000000000000000000000000000000000000000600052603260045260246000fd5b9060005260206000209060060201600201546140fa90919063ffffffff16565b61411090919063ffffffff16565b896140fa90919063ffffffff16565b61411090919063ffffffff16565b6008600060078581548110611380577f4e487b7100000000000000000000000000000000000000000000000000000000600052603260045260246000fd5b9060005260206000200160009054906101000a900473ffffffffffffffffffffffffffffffffffffffff1673ffffffffffffffffffffffffffffffffffffffff1673ffffffffffffffffffffffffffffffffffffffff168152602001908152602001600020828154811061141d577f4e487b7100000000000000000000000000000000000000000000000000000000600052603260045260246000fd5b9060005260206000209060060201600301600082825461143d9190615685565b92505081905550808061144f906159b7565b91505061115b565b505b8080611464906159b7565b91505061109c565b507f3583f3b2767018b2697c7950fbae12511a04e56086653054e035439b2093247f848484846040516114a29493929190615551565b60405180910390a150505050565b60606114ba613d9d565b73ffffffffffffffffffffffffffffffffffffffff166114d8612683565b73ffffffffffffffffffffffffffffffffffffffff161461152e576040517f08c379a00000000000000000000000000000000000000000000000000000000081526004016115259061549a565b60405180910390fd5b611536613da5565b73ffffffffffffffffffffffffffffffffffffffff16635c36b1866040518163ffffffff1660e01b815260040160006040518083038186803b15801561157b57600080fd5b505afa15801561158f573d6000803e3d6000fd5b505050506040513d6000823e3d601f19601f820116820180604052508101906115b89190614ccb565b905090565b6000600160009054906101000a900473ffffffffffffffffffffffffffffffffffffffff16905090565b6000806000806000600660009054906101000a900473ffffffffffffffffffffffffffffffffffffffff1673ffffffffffffffffffffffffffffffffffffffff16630902f1ac6040518163ffffffff1660e01b815260040160606040518083038186803b15801561165757600080fd5b505afa15801561166b573d6000803e3d6000fd5b505050506040513d601f19601f8201168201806040525081019061168f9190614d0c565b92509250925061169d613da5565b73ffffffffffffffffffffffffffffffffffffffff16600660009054906101000a900473ffffffffffffffffffffffffffffffffffffffff1673ffffffffffffffffffffffffffffffffffffffff16630dfe16816040518163ffffffff1660e01b815260040160206040518083038186803b15801561171b57600080fd5b505afa15801561172f573d6000803e3d6000fd5b505050506040513d601f19601f820116820180604052508101906117539190614c14565b73ffffffffffffffffffffffffffffffffffffffff1614156117a9576117a2836dffffffffffffffffffffffffffff16836dffffffffffffffffffffffffffff1661411090919063ffffffff16565b94506117df565b6117dc826dffffffffffffffffffffffffffff16846dffffffffffffffffffffffffffff1661411090919063ffffffff16565b94505b8093505050509091565b6117f1613d9d565b73ffffffffffffffffffffffffffffffffffffffff1661180f612683565b73ffffffffffffffffffffffffffffffffffffffff1614611865576040517f08c379a000000000000000000000000000000000000000000000000000000000815260040161185c9061549a565b60405180910390fd5b600061187183836120ff565b92505050600860008373ffffffffffffffffffffffffffffffffffffffff1673ffffffffffffffffffffffffffffffffffffffff1681526020019081526020016000206001600860008573ffffffffffffffffffffffffffffffffffffffff1673ffffffffffffffffffffffffffffffffffffffff1681526020019081526020016000208054905061190391906157de565b8154811061193a577f4e487b7100000000000000000000000000000000000000000000000000000000600052603260045260246000fd5b9060005260206000209060060201600860008473ffffffffffffffffffffffffffffffffffffffff1673ffffffffffffffffffffffffffffffffffffffff16815260200190815260200160002082815481106119bf577f4e487b7100000000000000000000000000000000000000000000000000000000600052603260045260246000fd5b9060005260206000209060060201600082015481600001556001820160009054906101000a900463ffffffff168160010160006101000a81548163ffffffff021916908363ffffffff1602179055506002820154816002015560038201548160030155600482015481600401556005820160009054906101000a900460ff168160050160006101000a81548160ff02191690836002811115611a8a577f4e487b7100000000000000000000000000000000000000000000000000000000600052602160045260246000fd5b02179055506005820160019054906101000a900460ff168160050160016101000a81548160ff02191690836004811115611aed577f4e487b7100000000000000000000000000000000000000000000000000000000600052602160045260246000fd5b02179055506005820160029054906101000a900460ff168160050160026101000a81548160ff02191690836006811115611b50577f4e487b7100000000000000000000000000000000000000000000000000000000600052602160045260246000fd5b0217905550905050600860008373ffffffffffffffffffffffffffffffffffffffff1673ffffffffffffffffffffffffffffffffffffffff1681526020019081526020016000206001600860008573ffffffffffffffffffffffffffffffffffffffff1673ffffffffffffffffffffffffffffffffffffffff16815260200190815260200160002080549050611be691906157de565b81548110611c1d577f4e487b7100000000000000000000000000000000000000000000000000000000600052603260045260246000fd5b90600052602060002090600602016000808201600090556001820160006101000a81549063ffffffff02191690556002820160009055600382016000905560048201600090556005820160006101000a81549060ff02191690556005820160016101000a81549060ff02191690556005820160026101000a81549060ff02191690555050600860008373ffffffffffffffffffffffffffffffffffffffff1673ffffffffffffffffffffffffffffffffffffffff168152602001908152602001600020805480611d16577f4e487b7100000000000000000000000000000000000000000000000000000000600052603160045260246000fd5b60019003818190600052602060002090600602016000808201600090556001820160006101000a81549063ffffffff02191690556002820160009055600382016000905560048201600090556005820160006101000a81549060ff02191690556005820160016101000a81549060ff02191690556005820160026101000a81549060ff0219169055505090558173ffffffffffffffffffffffffffffffffffffffff167fc274c296eeba1f93b040c9d3addcedd5e2bf2d05943b7a176e1b9174d0575f6b84604051611de89190615382565b60405180910390a2505050565b611dfd613d9d565b73ffffffffffffffffffffffffffffffffffffffff16611e1b612683565b73ffffffffffffffffffffffffffffffffffffffff1614611e71576040517f08c379a0000000000000000000000000000000000000000000000000000000008152600401611e689061549a565b60405180910390fd5b611e7b6000614126565b565b6060600860008373ffffffffffffffffffffffffffffffffffffffff1673ffffffffffffffffffffffffffffffffffffffff168152602001908152602001600020805480602002602001604051908101604052809291908181526020016000905b828210156120f4578382906000526020600020906006020160405180610100016040529081600082015481526020016001820160009054906101000a900463ffffffff1663ffffffff1663ffffffff1681526020016002820154815260200160038201548152602001600482015481526020016005820160009054906101000a900460ff166002811115611f9b577f4e487b7100000000000000000000000000000000000000000000000000000000600052602160045260246000fd5b6002811115611fd3577f4e487b7100000000000000000000000000000000000000000000000000000000600052602160045260246000fd5b81526020016005820160019054906101000a900460ff166004811115612022577f4e487b7100000000000000000000000000000000000000000000000000000000600052602160045260246000fd5b600481111561205a577f4e487b7100000000000000000000000000000000000000000000000000000000600052602160045260246000fd5b81526020016005820160029054906101000a900460ff1660068111156120a9577f4e487b7100000000000000000000000000000000000000000000000000000000600052602160045260246000fd5b60068111156120e1577f4e487b7100000000000000000000000000000000000000000000000000000000600052602160045260246000fd5b8152505081526020019060010190611ede565b505050509050919050565b60006121096149bb565b60008060006121166149bb565b60005b600860008973ffffffffffffffffffffffffffffffffffffffff1673ffffffffffffffffffffffffffffffffffffffff168152602001908152602001600020805490508110156124885788600860008a73ffffffffffffffffffffffffffffffffffffffff1673ffffffffffffffffffffffffffffffffffffffff16815260200190815260200160002082815481106121db577f4e487b7100000000000000000000000000000000000000000000000000000000600052603260045260246000fd5b90600052602060002090600602016000015414156124755760019350600860008973ffffffffffffffffffffffffffffffffffffffff1673ffffffffffffffffffffffffffffffffffffffff168152602001908152602001600020818154811061226e577f4e487b7100000000000000000000000000000000000000000000000000000000600052603260045260246000fd5b906000526020600020906006020160405180610100016040529081600082015481526020016001820160009054906101000a900463ffffffff1663ffffffff1663ffffffff1681526020016002820154815260200160038201548152602001600482015481526020016005820160009054906101000a900460ff166002811115612321577f4e487b7100000000000000000000000000000000000000000000000000000000600052602160045260246000fd5b6002811115612359577f4e487b7100000000000000000000000000000000000000000000000000000000600052602160045260246000fd5b81526020016005820160019054906101000a900460ff1660048111156123a8577f4e487b7100000000000000000000000000000000000000000000000000000000600052602160045260246000fd5b60048111156123e0577f4e487b7100000000000000000000000000000000000000000000000000000000600052602160045260246000fd5b81526020016005820160029054906101000a900460ff16600681111561242f577f4e487b7100000000000000000000000000000000000000000000000000000000600052602160045260246000fd5b6006811115612467577f4e487b7100000000000000000000000000000000000000000000000000000000600052602160045260246000fd5b815250509150809250612488565b8080612480906159b7565b915050612119565b508281839550955095505050509250925092565b6124a4613d9d565b73ffffffffffffffffffffffffffffffffffffffff166124c2612683565b73ffffffffffffffffffffffffffffffffffffffff1614612518576040517f08c379a000000000000000000000000000000000000000000000000000000000815260040161250f9061549a565b60405180910390fd5b6000600660009054906101000a900473ffffffffffffffffffffffffffffffffffffffff169050612547613da5565b73ffffffffffffffffffffffffffffffffffffffff1663fbb4ebde6040518163ffffffff1660e01b815260040160206040518083038186803b15801561258c57600080fd5b505afa1580156125a0573d6000803e3d6000fd5b505050506040513d601f19601f820116820180604052508101906125c49190614c14565b600660006101000a81548173ffffffffffffffffffffffffffffffffffffffff021916908373ffffffffffffffffffffffffffffffffffffffff160217905550600660009054906101000a900473ffffffffffffffffffffffffffffffffffffffff1673ffffffffffffffffffffffffffffffffffffffff168173ffffffffffffffffffffffffffffffffffffffff167f9b0c3048787c13539ec50c0a007c2ddfc64fbbb685c0b18abb8c250cbfa5440160405160405180910390a350565b60008060009054906101000a900473ffffffffffffffffffffffffffffffffffffffff16905090565b6126b4614246565b156126f4576040517f08c379a00000000000000000000000000000000000000000000000000000000081526004016126eb906153da565b60405180910390fd5b600080600061270a84612705613d9d565b6120ff565b92509250925060005b6008600061271f613d9d565b73ffffffffffffffffffffffffffffffffffffffff1673ffffffffffffffffffffffffffffffffffffffff16815260200190815260200160002080549050811015612a97578460086000612771613d9d565b73ffffffffffffffffffffffffffffffffffffffff1673ffffffffffffffffffffffffffffffffffffffff16815260200190815260200160002082815481106127e3577f4e487b7100000000000000000000000000000000000000000000000000000000600052603260045260246000fd5b9060005260206000209060060201600001541415612a8457600193506008600061280b613d9d565b73ffffffffffffffffffffffffffffffffffffffff1673ffffffffffffffffffffffffffffffffffffffff168152602001908152602001600020818154811061287d577f4e487b7100000000000000000000000000000000000000000000000000000000600052603260045260246000fd5b906000526020600020906006020160405180610100016040529081600082015481526020016001820160009054906101000a900463ffffffff1663ffffffff1663ffffffff1681526020016002820154815260200160038201548152602001600482015481526020016005820160009054906101000a900460ff166002811115612930577f4e487b7100000000000000000000000000000000000000000000000000000000600052602160045260246000fd5b6002811115612968577f4e487b7100000000000000000000000000000000000000000000000000000000600052602160045260246000fd5b81526020016005820160019054906101000a900460ff1660048111156129b7577f4e487b7100000000000000000000000000000000000000000000000000000000600052602160045260246000fd5b60048111156129ef577f4e487b7100000000000000000000000000000000000000000000000000000000600052602160045260246000fd5b81526020016005820160029054906101000a900460ff166006811115612a3e577f4e487b7100000000000000000000000000000000000000000000000000000000600052602160045260246000fd5b6006811115612a76577f4e487b7100000000000000000000000000000000000000000000000000000000600052602160045260246000fd5b815250509250809150612a97565b8080612a8f906159b7565b915050612713565b5082612ad8576040517f08c379a0000000000000000000000000000000000000000000000000000000008152600401612acf906154fa565b60405180910390fd5b612ae182614320565b612b20576040517f08c379a0000000000000000000000000000000000000000000000000000000008152600401612b17906154ba565b60405180910390fd5b600082606001518360400151612b369190615685565b905080612b41613da5565b73ffffffffffffffffffffffffffffffffffffffff166370a08231306040518263ffffffff1660e01b8152600401612b7991906152ac565b60206040518083038186803b158015612b9157600080fd5b505afa158015612ba5573d6000803e3d6000fd5b505050506040513d601f19601f82011682018060405250810190612bc99190614d84565b1015612c0a576040517f08c379a0000000000000000000000000000000000000000000000000000000008152600401612c01906153fa565b60405180910390fd5b612c12613da5565b73ffffffffffffffffffffffffffffffffffffffff1663095ea7b330836040518363ffffffff1660e01b8152600401612c4c9291906152fe565b602060405180830381600087803b158015612c6657600080fd5b505af1158015612c7a573d6000803e3d6000fd5b505050506040513d601f19601f82011682018060405250810190612c9e9190614c3d565b50612ca7613da5565b73ffffffffffffffffffffffffffffffffffffffff166323b872dd30612ccb613d9d565b846040518463ffffffff1660e01b8152600401612cea939291906152c7565b602060405180830381600087803b158015612d0457600080fd5b505af1158015612d18573d6000803e3d6000fd5b505050506040513d601f19601f82011682018060405250810190612d3c9190614c3d565b5060086000612d49613d9d565b73ffffffffffffffffffffffffffffffffffffffff1673ffffffffffffffffffffffffffffffffffffffff168152602001908152602001600020600160086000612d91613d9d565b73ffffffffffffffffffffffffffffffffffffffff1673ffffffffffffffffffffffffffffffffffffffff16815260200190815260200160002080549050612dd991906157de565b81548110612e10577f4e487b7100000000000000000000000000000000000000000000000000000000600052603260045260246000fd5b906000526020600020906006020160086000612e2a613d9d565b73ffffffffffffffffffffffffffffffffffffffff1673ffffffffffffffffffffffffffffffffffffffff1681526020019081526020016000208381548110612e9c577f4e487b7100000000000000000000000000000000000000000000000000000000600052603260045260246000fd5b9060005260206000209060060201600082015481600001556001820160009054906101000a900463ffffffff168160010160006101000a81548163ffffffff021916908363ffffffff1602179055506002820154816002015560038201548160030155600482015481600401556005820160009054906101000a900460ff168160050160006101000a81548160ff02191690836002811115612f67577f4e487b7100000000000000000000000000000000000000000000000000000000600052602160045260246000fd5b02179055506005820160019054906101000a900460ff168160050160016101000a81548160ff02191690836004811115612fca577f4e487b7100000000000000000000000000000000000000000000000000000000600052602160045260246000fd5b02179055506005820160029054906101000a900460ff168160050160026101000a81548160ff0219169083600681111561302d577f4e487b7100000000000000000000000000000000000000000000000000000000600052602160045260246000fd5b021790555090505060086000613041613d9d565b73ffffffffffffffffffffffffffffffffffffffff1673ffffffffffffffffffffffffffffffffffffffff168152602001908152602001600020600160086000613089613d9d565b73ffffffffffffffffffffffffffffffffffffffff1673ffffffffffffffffffffffffffffffffffffffff168152602001908152602001600020805490506130d191906157de565b81548110613108577f4e487b7100000000000000000000000000000000000000000000000000000000600052603260045260246000fd5b90600052602060002090600602016000808201600090556001820160006101000a81549063ffffffff02191690556002820160009055600382016000905560048201600090556005820160006101000a81549060ff02191690556005820160016101000a81549060ff02191690556005820160026101000a81549060ff0219169055505060086000613198613d9d565b73ffffffffffffffffffffffffffffffffffffffff1673ffffffffffffffffffffffffffffffffffffffff168152602001908152602001600020805480613208577f4e487b7100000000000000000000000000000000000000000000000000000000600052603160045260246000fd5b60019003818190600052602060002090600602016000808201600090556001820160006101000a81549063ffffffff02191690556002820160009055600382016000905560048201600090556005820160006101000a81549060ff02191690556005820160016101000a81549060ff02191690556005820160026101000a81549060ff02191690555050905561329c613d9d565b73ffffffffffffffffffffffffffffffffffffffff167f1248d48e2de900a1010c7fce73506969ecec243600bfc08b641b158f26d857cd826040516132e19190615536565b60405180910390a25050505050565b6060600380546132ff90615954565b80601f016020809104026020016040519081016040528092919081815260200182805461332b90615954565b80156133785780601f1061334d57610100808354040283529160200191613378565b820191906000526020600020905b81548152906001019060200180831161335b57829003601f168201915b5050505050905090565b6007818154811061339257600080fd5b906000526020600020016000915054906101000a900473ffffffffffffffffffffffffffffffffffffffff1681565b6004808111156133fa577f4e487b7100000000000000000000000000000000000000000000000000000000600052602160045260246000fd5b816004811115613433577f4e487b7100000000000000000000000000000000000000000000000000000000600052602160045260246000fd5b111580156134b1575060006004811115613476577f4e487b7100000000000000000000000000000000000000000000000000000000600052602160045260246000fd5b8160048111156134af577f4e487b7100000000000000000000000000000000000000000000000000000000600052602160045260246000fd5b115b6134f0576040517f08c379a00000000000000000000000000000000000000000000000000000000081526004016134e79061547a565b60405180910390fd5b6134f8613da5565b73ffffffffffffffffffffffffffffffffffffffff166323b872dd61351b613d9d565b30856040518463ffffffff1660e01b815260040161353b939291906152c7565b602060405180830381600087803b15801561355557600080fd5b505af1158015613569573d6000803e3d6000fd5b505050506040513d601f19601f8201168201806040525081019061358d9190614c3d565b506000806135996115e7565b915091506135a56149bb565b6135ad613dcf565b8160000181815250508481604001818152505060008160e0019060068111156135ff577f4e487b7100000000000000000000000000000000000000000000000000000000600052602160045260246000fd5b90816006811115613639577f4e487b7100000000000000000000000000000000000000000000000000000000600052602160045260246000fd5b81525050838160c00190600481111561367b577f4e487b7100000000000000000000000000000000000000000000000000000000600052602160045260246000fd5b908160048111156136b5577f4e487b7100000000000000000000000000000000000000000000000000000000600052602160045260246000fd5b8152505060008160a0019060028111156136f8577f4e487b7100000000000000000000000000000000000000000000000000000000600052602160045260246000fd5b90816002811115613732577f4e487b7100000000000000000000000000000000000000000000000000000000600052602160045260246000fd5b8152505081816020019063ffffffff16908163ffffffff16815250508281608001818152505061376181613e17565b5050505050565b600660009054906101000a900473ffffffffffffffffffffffffffffffffffffffff1681565b60606004805461379d90615954565b80601f01602080910402602001604051908101604052809291908181526020018280546137c990615954565b80156138165780601f106137eb57610100808354040283529160200191613816565b820191906000526020600020905b8154815290600101906020018083116137f957829003601f168201915b5050505050905090565b600680811115613859577f4e487b7100000000000000000000000000000000000000000000000000000000600052602160045260246000fd5b816006811115613892577f4e487b7100000000000000000000000000000000000000000000000000000000600052602160045260246000fd5b111580156139105750600060068111156138d5577f4e487b7100000000000000000000000000000000000000000000000000000000600052602160045260246000fd5b81600681111561390e577f4e487b7100000000000000000000000000000000000000000000000000000000600052602160045260246000fd5b115b61394f576040517f08c379a0000000000000000000000000000000000000000000000000000000008152600401613946906154da565b60405180910390fd5b613957613da5565b73ffffffffffffffffffffffffffffffffffffffff166323b872dd61397a613d9d565b30856040518463ffffffff1660e01b815260040161399a939291906152c7565b602060405180830381600087803b1580156139b457600080fd5b505af11580156139c8573d6000803e3d6000fd5b505050506040513d601f19601f820116820180604052508101906139ec9190614c3d565b506000806139f86115e7565b91509150613a046149bb565b613a0c613dcf565b81600001818152505084816040018181525050838160e001906006811115613a5d577f4e487b7100000000000000000000000000000000000000000000000000000000600052602160045260246000fd5b90816006811115613a97577f4e487b7100000000000000000000000000000000000000000000000000000000600052602160045260246000fd5b8152505060008160c001906004811115613ada577f4e487b7100000000000000000000000000000000000000000000000000000000600052602160045260246000fd5b90816004811115613b14577f4e487b7100000000000000000000000000000000000000000000000000000000600052602160045260246000fd5b8152505060018160a001906002811115613b57577f4e487b7100000000000000000000000000000000000000000000000000000000600052602160045260246000fd5b90816002811115613b91577f4e487b7100000000000000000000000000000000000000000000000000000000600052602160045260246000fd5b8152505081816020019063ffffffff16908163ffffffff168152505082816080018181525050613bc081613e17565b5050505050565b613bcf613d9d565b73ffffffffffffffffffffffffffffffffffffffff16613bed612683565b73ffffffffffffffffffffffffffffffffffffffff1614613c43576040517f08c379a0000000000000000000000000000000000000000000000000000000008152600401613c3a9061549a565b60405180910390fd5b600073ffffffffffffffffffffffffffffffffffffffff168173ffffffffffffffffffffffffffffffffffffffff161415613cb3576040517f08c379a0000000000000000000000000000000000000000000000000000000008152600401613caa9061543a565b60405180910390fd5b613cbc81614126565b50565b60055481565b613ccd613da5565b73ffffffffffffffffffffffffffffffffffffffff166323b872dd613cf0613d9d565b30846040518463ffffffff1660e01b8152600401613d10939291906152c7565b602060405180830381600087803b158015613d2a57600080fd5b505af1158015613d3e573d6000803e3d6000fd5b505050506040513d601f19601f82011682018060405250810190613d629190614c3d565b507fb74668304b7ea1125ab59ae1423aca2b50ea4a43a350f31b7fa65887b7d3137781604051613d929190615536565b60405180910390a150565b600033905090565b6000600260009054906101000a900473ffffffffffffffffffffffffffffffffffffffff16905090565b600060056000815480929190613de4906159b7565b9190505550600554604051602001613dfc9190615291565b60405160208183030381529060405280519060200120905090565b6000613e21614246565b90508015613ede576007613e33613d9d565b9080600181540180825580915050600190039060005260206000200160009091909190916101000a81548173ffffffffffffffffffffffffffffffffffffffff021916908373ffffffffffffffffffffffffffffffffffffffff160217905550613e9b613d9d565b73ffffffffffffffffffffffffffffffffffffffff167fbf0d83a1aed38e16f3afa9a5fdc87d08590574fe387b21095fb0a7e643f803b160405160405180910390a25b60086000613eea613d9d565b73ffffffffffffffffffffffffffffffffffffffff1673ffffffffffffffffffffffffffffffffffffffff1681526020019081526020016000208290806001815401808255809150506001900390600052602060002090600602016000909190919091506000820151816000015560208201518160010160006101000a81548163ffffffff021916908363ffffffff16021790555060408201518160020155606082015181600301556080820151816004015560a08201518160050160006101000a81548160ff02191690836002811115613fee577f4e487b7100000000000000000000000000000000000000000000000000000000600052602160045260246000fd5b021790555060c08201518160050160016101000a81548160ff02191690836004811115614044577f4e487b7100000000000000000000000000000000000000000000000000000000600052602160045260246000fd5b021790555060e08201518160050160026101000a81548160ff0219169083600681111561409a577f4e487b7100000000000000000000000000000000000000000000000000000000600052602160045260246000fd5b021790555050506140a9613d9d565b73ffffffffffffffffffffffffffffffffffffffff167fd5bec364013c6c09f313170769bde4e7cb77cc8cb27beafa1f61ac2c24ea2cd7836040516140ee919061551a565b60405180910390a25050565b600081836141089190615746565b905092915050565b6000818361411e9190615715565b905092915050565b60008054906101000a900473ffffffffffffffffffffffffffffffffffffffff16600160006101000a81548173ffffffffffffffffffffffffffffffffffffffff021916908373ffffffffffffffffffffffffffffffffffffffff160217905550806000806101000a81548173ffffffffffffffffffffffffffffffffffffffff021916908373ffffffffffffffffffffffffffffffffffffffff1602179055508073ffffffffffffffffffffffffffffffffffffffff16600160009054906101000a900473ffffffffffffffffffffffffffffffffffffffff1673ffffffffffffffffffffffffffffffffffffffff167f8be0079c531659141344cd1fd0a4f28419497f9722a3daafe3b4186f6b6457e060405160405180910390a350565b6000806001905060005b60078054905081101561431857614265613d9d565b73ffffffffffffffffffffffffffffffffffffffff16600782815481106142b5577f4e487b7100000000000000000000000000000000000000000000000000000000600052603260045260246000fd5b9060005260206000200160009054906101000a900473ffffffffffffffffffffffffffffffffffffffff1673ffffffffffffffffffffffffffffffffffffffff1614156143055760009150614318565b8080614310906159b7565b915050614250565b508091505090565b600080600061432d6115e7565b915091506000600281111561436b577f4e487b7100000000000000000000000000000000000000000000000000000000600052602160045260246000fd5b8460a0015160028111156143a8577f4e487b7100000000000000000000000000000000000000000000000000000000600052602160045260246000fd5b14156143d8576143c084602001518560c001516144ba565b63ffffffff168163ffffffff161015925050506144b5565b60016002811115614412577f4e487b7100000000000000000000000000000000000000000000000000000000600052602160045260246000fd5b8460a00151600281111561444f577f4e487b7100000000000000000000000000000000000000000000000000000000600052602160045260246000fd5b1415614473578161446885608001518660e001516146a5565b1115925050506144b5565b61448584602001518560c001516144ba565b63ffffffff168163ffffffff161015806144b05750816144ad85608001518660e001516146a5565b11155b925050505b919050565b6000600160048111156144f6577f4e487b7100000000000000000000000000000000000000000000000000000000600052602160045260246000fd5b82600481111561452f577f4e487b7100000000000000000000000000000000000000000000000000000000600052602160045260246000fd5b141561454b576228206f8361454491906156db565b905061469f565b60026004811115614585577f4e487b7100000000000000000000000000000000000000000000000000000000600052602160045260246000fd5b8260048111156145be577f4e487b7100000000000000000000000000000000000000000000000000000000600052602160045260246000fd5b14156145e65760036228206f6145d491906157a0565b836145df91906156db565b905061469f565b60036004811115614620577f4e487b7100000000000000000000000000000000000000000000000000000000600052602160045260246000fd5b826004811115614659577f4e487b7100000000000000000000000000000000000000000000000000000000600052602160045260246000fd5b14156146815760066228206f61466f91906157a0565b8361467a91906156db565b905061469f565b600c6228206f61469191906157a0565b8361469c91906156db565b90505b92915050565b6000600160068111156146e1577f4e487b7100000000000000000000000000000000000000000000000000000000600052602160045260246000fd5b82600681111561471a577f4e487b7100000000000000000000000000000000000000000000000000000000600052602160045260246000fd5b141561474e57614747600a614739600f866140fa90919063ffffffff16565b61411090919063ffffffff16565b90506149b5565b60026006811115614788577f4e487b7100000000000000000000000000000000000000000000000000000000600052602160045260246000fd5b8260068111156147c1577f4e487b7100000000000000000000000000000000000000000000000000000000600052602160045260246000fd5b14156147e2576147db6002846140fa90919063ffffffff16565b90506149b5565b6003600681111561481c577f4e487b7100000000000000000000000000000000000000000000000000000000600052602160045260246000fd5b826006811115614855577f4e487b7100000000000000000000000000000000000000000000000000000000600052602160045260246000fd5b14156148765761486f6004846140fa90919063ffffffff16565b90506149b5565b600460068111156148b0577f4e487b7100000000000000000000000000000000000000000000000000000000600052602160045260246000fd5b8260068111156148e9577f4e487b7100000000000000000000000000000000000000000000000000000000600052602160045260246000fd5b141561490a57614903600a846140fa90919063ffffffff16565b90506149b5565b60056006811115614944577f4e487b7100000000000000000000000000000000000000000000000000000000600052602160045260246000fd5b82600681111561497d577f4e487b7100000000000000000000000000000000000000000000000000000000600052602160045260246000fd5b141561499e576149976019846140fa90919063ffffffff16565b90506149b5565b6149b26064846140fa90919063ffffffff16565b90505b92915050565b60405180610100016040528060008019168152602001600063ffffffff16815260200160008152602001600081526020016000815260200160006002811115614a2d577f4e487b7100000000000000000000000000000000000000000000000000000000600052602160045260246000fd5b815260200160006004811115614a6c577f4e487b7100000000000000000000000000000000000000000000000000000000600052602160045260246000fd5b815260200160006006811115614aab577f4e487b7100000000000000000000000000000000000000000000000000000000600052602160045260246000fd5b81525090565b6000614ac4614abf846155ff565b6155da565b905082815260208101848484011115614adc57600080fd5b614ae7848285615921565b509392505050565b600081359050614afe81615e58565b92915050565b600081519050614b1381615e58565b92915050565b600081519050614b2881615e6f565b92915050565b600081359050614b3d81615e86565b92915050565b600081359050614b5281615e9d565b92915050565b600081359050614b6781615ead565b92915050565b600082601f830112614b7e57600080fd5b8151614b8e848260208601614ab1565b91505092915050565b600081519050614ba681615ebd565b92915050565b600081359050614bbb81615ed4565b92915050565b600081519050614bd081615ed4565b92915050565b600081519050614be581615eeb565b92915050565b600060208284031215614bfd57600080fd5b6000614c0b84828501614aef565b91505092915050565b600060208284031215614c2657600080fd5b6000614c3484828501614b04565b91505092915050565b600060208284031215614c4f57600080fd5b6000614c5d84828501614b19565b91505092915050565b600060208284031215614c7857600080fd5b6000614c8684828501614b2e565b91505092915050565b60008060408385031215614ca257600080fd5b6000614cb085828601614b2e565b9250506020614cc185828601614aef565b9150509250929050565b600060208284031215614cdd57600080fd5b600082015167ffffffffffffffff811115614cf757600080fd5b614d0384828501614b6d565b91505092915050565b600080600060608486031215614d2157600080fd5b6000614d2f86828701614b97565b9350506020614d4086828701614b97565b9250506040614d5186828701614bd6565b9150509250925092565b600060208284031215614d6d57600080fd5b6000614d7b84828501614bac565b91505092915050565b600060208284031215614d9657600080fd5b6000614da484828501614bc1565b91505092915050565b60008060408385031215614dc057600080fd5b6000614dce85828601614bac565b9250506020614ddf85828601614b43565b9150509250929050565b600080600060608486031215614dfe57600080fd5b6000614e0c86828701614bac565b9350506020614e1d86828701614b43565b9250506040614e2e86828701614b58565b9150509250925092565b60008060408385031215614e4b57600080fd5b6000614e5985828601614bac565b9250506020614e6a85828601614b58565b9150509250929050565b6000614e8083836150fa565b6101008301905092915050565b614e9681615812565b82525050565b6000614ea782615640565b614eb18185615663565b9350614ebc83615630565b8060005b83811015614eed578151614ed48882614e74565b9750614edf83615656565b925050600181019050614ec0565b5085935050505092915050565b614f0381615824565b82525050565b614f1281615830565b82525050565b614f2181615830565b82525050565b614f30816158c7565b82525050565b614f3f816158eb565b82525050565b614f4e816158fd565b82525050565b614f5d8161590f565b82525050565b6000614f6e8261564b565b614f788185615674565b9350614f88818560208601615921565b614f9181615af5565b840191505092915050565b6000614fa9602983615674565b9150614fb482615b06565b604082019050919050565b6000614fcc604983615674565b9150614fd782615b55565b606082019050919050565b6000614fef604283615674565b9150614ffa82615bca565b606082019050919050565b6000615012603083615674565b915061501d82615c3f565b604082019050919050565b6000615035602c83615674565b915061504082615c8e565b604082019050919050565b6000615058601a83615674565b915061506382615cdd565b602082019050919050565b600061507b602583615674565b915061508682615d06565b604082019050919050565b600061509e602b83615674565b91506150a982615d55565b604082019050919050565b60006150c1601b83615674565b91506150cc82615da4565b602082019050919050565b60006150e4603883615674565b91506150ef82615dcd565b604082019050919050565b610100820160008201516151116000850182614f09565b5060208201516151246020850182615273565b506040820151615137604085018261523e565b50606082015161514a606085018261523e565b50608082015161515d608085018261523e565b5060a082015161517060a0850182614f45565b5060c082015161518360c0850182614f54565b5060e082015161519660e0850182614f36565b50505050565b610100820160008201516151b36000850182614f09565b5060208201516151c66020850182615273565b5060408201516151d9604085018261523e565b5060608201516151ec606085018261523e565b5060808201516151ff608085018261523e565b5060a082015161521260a0850182614f45565b5060c082015161522560c0850182614f54565b5060e082015161523860e0850182614f36565b50505050565b615247816158ad565b82525050565b615256816158ad565b82525050565b61526d615268826158ad565b615a00565b82525050565b61527c816158b7565b82525050565b61528b816158b7565b82525050565b600061529d828461525c565b60208201915081905092915050565b60006020820190506152c16000830184614e8d565b92915050565b60006060820190506152dc6000830186614e8d565b6152e96020830185614e8d565b6152f6604083018461524d565b949350505050565b60006040820190506153136000830185614e8d565b615320602083018461524d565b9392505050565b600060208201905081810360008301526153418184614e9c565b905092915050565b60006101408201905061535f6000830186614efa565b61536c602083018561519c565b61537a61012083018461524d565b949350505050565b60006020820190506153976000830184614f18565b92915050565b60006020820190506153b26000830184614f27565b92915050565b600060208201905081810360008301526153d28184614f63565b905092915050565b600060208201905081810360008301526153f381614f9c565b9050919050565b6000602082019050818103600083015261541381614fbf565b9050919050565b6000602082019050818103600083015261543381614fe2565b9050919050565b6000602082019050818103600083015261545381615005565b9050919050565b6000602082019050818103600083015261547381615028565b9050919050565b600060208201905081810360008301526154938161504b565b9050919050565b600060208201905081810360008301526154b38161506e565b9050919050565b600060208201905081810360008301526154d381615091565b9050919050565b600060208201905081810360008301526154f3816150b4565b9050919050565b60006020820190508181036000830152615513816150d7565b9050919050565b600061010082019050615530600083018461519c565b92915050565b600060208201905061554b600083018461524d565b92915050565b6000608082019050615566600083018761524d565b615573602083018661524d565b615580604083018561524d565b61558d606083018461524d565b95945050505050565b60006040820190506155ab600083018561524d565b6155b86020830184615282565b9392505050565b60006020820190506155d46000830184615282565b92915050565b60006155e46155f5565b90506155f08282615986565b919050565b6000604051905090565b600067ffffffffffffffff82111561561a57615619615ac6565b5b61562382615af5565b9050602081019050919050565b6000819050602082019050919050565b600081519050919050565b600081519050919050565b6000602082019050919050565b600082825260208201905092915050565b600082825260208201905092915050565b6000615690826158ad565b915061569b836158ad565b9250827fffffffffffffffffffffffffffffffffffffffffffffffffffffffffffffffff038211156156d0576156cf615a0a565b5b828201905092915050565b60006156e6826158b7565b91506156f1836158b7565b92508263ffffffff0382111561570a57615709615a0a565b5b828201905092915050565b6000615720826158ad565b915061572b836158ad565b92508261573b5761573a615a39565b5b828204905092915050565b6000615751826158ad565b915061575c836158ad565b9250817fffffffffffffffffffffffffffffffffffffffffffffffffffffffffffffffff048311821515161561579557615794615a0a565b5b828202905092915050565b60006157ab826158b7565b91506157b6836158b7565b92508163ffffffff04831182151516156157d3576157d2615a0a565b5b828202905092915050565b60006157e9826158ad565b91506157f4836158ad565b92508282101561580757615806615a0a565b5b828203905092915050565b600061581d8261588d565b9050919050565b60008115159050919050565b6000819050919050565b600081905061584882615e1c565b919050565b600081905061585b82615e30565b919050565b600081905061586e82615e44565b919050565b60006dffffffffffffffffffffffffffff82169050919050565b600073ffffffffffffffffffffffffffffffffffffffff82169050919050565b6000819050919050565b600063ffffffff82169050919050565b60006158d2826158d9565b9050919050565b60006158e48261588d565b9050919050565b60006158f68261583a565b9050919050565b60006159088261584d565b9050919050565b600061591a82615860565b9050919050565b60005b8381101561593f578082015181840152602081019050615924565b8381111561594e576000848401525b50505050565b6000600282049050600182168061596c57607f821691505b602082108114156159805761597f615a97565b5b50919050565b61598f82615af5565b810181811067ffffffffffffffff821117156159ae576159ad615ac6565b5b80604052505050565b60006159c2826158ad565b91507fffffffffffffffffffffffffffffffffffffffffffffffffffffffffffffffff8214156159f5576159f4615a0a565b5b600182019050919050565b6000819050919050565b7f4e487b7100000000000000000000000000000000000000000000000000000000600052601160045260246000fd5b7f4e487b7100000000000000000000000000000000000000000000000000000000600052601260045260246000fd5b7f4e487b7100000000000000000000000000000000000000000000000000000000600052602160045260246000fd5b7f4e487b7100000000000000000000000000000000000000000000000000000000600052602260045260246000fd5b7f4e487b7100000000000000000000000000000000000000000000000000000000600052604160045260246000fd5b6000601f19601f8301169050919050565b7f546865206d6573736167652073656e646572206973206e6f742061205374616b60008201527f6520486f6c646572210000000000000000000000000000000000000000000000602082015250565b7f546865205374616b65204d6f64756c652069732063757272656e746c79206f7560008201527f74206f6620737570706c792120506c6561736520636f6e74616374207468652060208201527f415652207465616d210000000000000000000000000000000000000000000000604082015250565b7f54686520726577617264732063616e6e6f74206265206469737472696275746560008201527f642c206173207468657265206172656e277420616e79205374616b657320796560208201527f7421000000000000000000000000000000000000000000000000000000000000604082015250565b7f4f776e61626c653a20546865206e6577206f776e6572206973206e6f772c207460008201527f6865207a65726f20616464726573732100000000000000000000000000000000602082015250565b7f546865205374616b65204d6f64756c652069732063757272656e746c79206f7560008201527f74206f6620737570706c79210000000000000000000000000000000000000000602082015250565b7f496e76616c69642054696d6520506572696f642056616c756521000000000000600082015250565b7f4f776e61626c653a205468652063616c6c6572206973206e6f7420746865206f60008201527f776e657221000000000000000000000000000000000000000000000000000000602082015250565b7f546865207374616b6520636f6e646974696f6e7320617265206e6f742066756c60008201527f66696c6c65642079657421000000000000000000000000000000000000000000602082015250565b7f496e76616c6964204d61726b65742043617020582056616c7565210000000000600082015250565b7f546865206d6573736167652073656e646572206973206e6f742074686520486f60008201527f6c646572206f662074686520676976656e205374616b65210000000000000000602082015250565b60078110615e2d57615e2c615a68565b5b50565b60038110615e4157615e40615a68565b5b50565b60058110615e5557615e54615a68565b5b50565b615e6181615812565b8114615e6c57600080fd5b50565b615e7881615824565b8114615e8357600080fd5b50565b615e8f81615830565b8114615e9a57600080fd5b50565b60078110615eaa57600080fd5b50565b60058110615eba57600080fd5b50565b615ec681615873565b8114615ed157600080fd5b50565b615edd816158ad565b8114615ee857600080fd5b50565b615ef4816158b7565b8114615eff57600080fd5b5056fea264697066735822122080172555266287e63d00422d78d88574a39cd8f98a07c8014be1a6429201cb2464736f6c63430008040033",
  "immutableReferences": {},
  "source": "/**\n    ***********************************************************\n    * Copyright (c) Avara Dev. 2021. (Telegram: @avara_cc)  *\n    ***********************************************************\n\n             \n          \n       \n         \n        .       .       - Binance Smart Chain\n\n    Avara - Always Vivid, Always Rising Above\n    https://avara.cc/\n    https://github.com/avara-cc\n    https://github.com/avara-cc/Avara/wiki\n*/\n\n// SPDX-License-Identifier: AGPL-3.0-or-later\n\npragma solidity 0.8.4;\n\nimport \"./abstract/AvaraModule.sol\";\nimport \"./library/SafeMath.sol\";\n\ncontract StakingModule is AvaraModule {\n    using SafeMath for uint256;\n\n    uint32 public constant _1_MONTH_IN_SEC = 2629743;\n\n    uint public stakeCounter;\n    IPancakePair public pancakePair;\n\n    /**\n    * @dev The type of the Stake.\n    *\n    * `TIME`       - The Stake Holder cannot withdraw until the chosen time period elapses.\n    * `MARKET_CAP` - The Stake Holder cannot withdraw until the Market Cap is multiplied by the chosen multiplier.\n    * `COMBINED`   - The Stake Holder cannot withdraw until the TIME or MARKET_CAP requirement is fulfilled.\n    */\n    enum StakeType {\n        TIME,\n        MARKET_CAP,\n        COMBINED\n    }\n\n    /**\n    * @dev The choosable time periods for the Stake.\n    */\n    enum TimePeriod {\n        _OFF_,\n        _1_MONTH,\n        _3_MONTHS,\n        _6_MONTHS,\n        _12_MONTHS\n    }\n\n    /**\n    * @dev The choosable multipliers for the Stake.\n    */\n    enum MarketCapX {\n        _OFF_,\n        _1_5_X,\n        _2_X,\n        _4_X,\n        _10_X,\n        _25_X,\n        _100_X\n    }\n\n    /**\n    * @dev The Stake Struct.\n    *\n    * `id`          - A unique identifier for the Stake.\n    * `startTime`   - The timestamp of the block when the stake was made.\n    * `value`       - The value of the stake.\n    * `rewardValue` - The rewards received for the stake.\n    * `startRate`   - The BNB/AVR rate when the stake was made.\n    * `stakeType`   - The type of the stake. @see `StakeType`\n    * `timePeriod`  - The time period of the stake. @see `TimePeriod`\n    * `marketCapX`  - The multiplier of the stake. @see `MarketCapX`\n    */\n    struct Stake {\n        bytes32 id;\n        uint32 startTime;\n        uint256 value;\n        uint256 rewardValue;\n        uint256 startRate;\n        StakeType stakeType;\n        TimePeriod timePeriod;\n        MarketCapX marketCapX;\n    }\n\n    event PancakePairUpdated(address indexed oldAddress, address indexed newAddress);\n    event NewStakeHolder(address indexed stakeHolder);\n    event NewStake(address indexed stakeHolder, Stake stake);\n    event StakeWithdraw(address indexed stakeHolder, uint256 value);\n    event RewardDistribution(uint256 rewardValue, uint256 totalStakeAmount, uint256 numberOfStakeHolders, uint256 numberOfStakes);\n    event FundsRefilled(uint256 value);\n    event FundsUsed(uint256 value);\n    event StakeReverted(bytes32 stakeId, address indexed stakeHolder);\n\n    address[] public stakeHolders;\n\n    mapping(address => Stake[]) private _stakes;\n\n    /**\n    * @dev Sets the AvaraModule standards and the `pancakePair` of the Main contract in the StakingModule.\n    */\n    constructor(address cOwner, address baseContract) AvaraModule(cOwner, baseContract, \"Staking\", \"0.0.1\") {\n        pancakePair = IPancakePair(getBaseContract()._pancakeSwapV2Pair());\n    }\n\n    /**\n    * @dev Updates the `pancakePair` to be the same as in the Main contract.\n    */\n    function updatePancakeSwapPair() external onlyOwner {\n        address oldPair = address(pancakePair);\n        pancakePair = IPancakePair(getBaseContract()._pancakeSwapV2Pair());\n\n        emit PancakePairUpdated(oldPair, address(pancakePair));\n    }\n\n    /**\n    * @dev Creates an unique identifier for a Stake.\n    */\n    function createStakeId() internal returns (bytes32) {\n        stakeCounter++;\n        return keccak256(abi.encodePacked(stakeCounter));\n    }\n\n    /**\n    * @dev Retrieves the BNB/AVR rate with the given decimal points.\n    */\n    function getRate() public view returns (uint256 rate, uint32 blockTimestampLast) {\n        (uint112 tokenA, uint112 tokenB, uint32 blockTs) = pancakePair.getReserves();\n\n        if (pancakePair.token0() == address(getBaseContract())) {\n            rate = uint256(tokenB).div(uint256(tokenA));\n        } else {\n            rate = uint256(tokenA).div(uint256(tokenB));\n        }\n\n        blockTimestampLast = blockTs;\n    }\n\n    /**\n    * @dev Retrieves the Stake structs for the given `stakeHolder`. (if any)\n    */\n    function getStakes(address stakeHolder) external view returns (Stake[] memory) {\n        return _stakes[stakeHolder];\n    }\n\n    /**\n    * @dev Retrieves a summary of the Module.\n    */\n    function getStakeSummary() public view returns (uint256 totalStakeValue, uint256 totalRewardValue, uint256 stakeHolderCount, uint256 stakeCount) {\n        totalStakeValue = uint256(0);\n        totalRewardValue = uint256(0);\n        stakeHolderCount = uint256(0);\n        stakeCount = uint256(0);\n        for (uint256 i = 0; i < stakeHolders.length; i++) {\n            if (_stakes[stakeHolders[i]].length > 0) {\n                stakeHolderCount++;\n                for (uint256 j = 0; j < _stakes[stakeHolders[i]].length; j++) {\n                    stakeCount++;\n                    totalStakeValue += _stakes[stakeHolders[i]][j].value;\n                    totalRewardValue += _stakes[stakeHolders[i]][j].rewardValue;\n                }\n            }\n        }\n    }\n\n    /**\n    * @dev Retrieves a Stake by the given `stakeId` and `stakeHolder` address.\n    */\n    function getStakeById(bytes32 stakeId, address stakeHolder) public view returns (bool, Stake memory, uint256) {\n        bool stakeFound;\n        uint256 index;\n        Stake memory stake;\n\n        for (uint256 i = 0; i < _stakes[stakeHolder].length; i++) {\n            if (_stakes[stakeHolder][i].id == stakeId) {\n                stakeFound = true;\n                stake = _stakes[stakeHolder][i];\n                index = i;\n                break;\n            }\n        }\n\n        return (stakeFound, stake, index);\n    }\n\n    /**\n    * @dev Creates a Time Stake for the `_msgSender` for the given value in the Module.\n    */\n    function addTimeStake(uint256 value, TimePeriod timePeriod) external {\n        require(timePeriod <= TimePeriod._12_MONTHS && timePeriod > TimePeriod._OFF_, \"Invalid Time Period Value!\");\n\n        getBaseContract().transferFrom(_msgSender(), address(this), value);\n\n        (uint256 rate, uint32 timeStamp) = getRate();\n\n        Stake memory stake;\n        stake.id = createStakeId();\n        stake.value = value;\n        stake.marketCapX = MarketCapX._OFF_;\n        stake.timePeriod = timePeriod;\n        stake.stakeType = StakeType.TIME;\n        stake.startTime = timeStamp;\n        stake.startRate = rate;\n\n        addStake(stake);\n    }\n\n    /**\n    * @dev Creates a Multiplier Stake for the `_msgSender` for the given value in the Module.\n    */\n    function addMultiplierStake(uint256 value, MarketCapX marketCapX) external {\n        require(marketCapX <= MarketCapX._100_X && marketCapX > MarketCapX._OFF_, \"Invalid Market Cap X Value!\");\n\n        getBaseContract().transferFrom(_msgSender(), address(this), value);\n\n        (uint256 rate, uint32 timeStamp) = getRate();\n\n        Stake memory stake;\n        stake.id = createStakeId();\n        stake.value = value;\n        stake.marketCapX = marketCapX;\n        stake.timePeriod = TimePeriod._OFF_;\n        stake.stakeType = StakeType.MARKET_CAP;\n        stake.startTime = timeStamp;\n        stake.startRate = rate;\n\n        addStake(stake);\n    }\n\n    /**\n    * @dev Creates a Combined Stake for the `_msgSender` for the given value in the Module.\n    */\n    function addCombinedStake(uint256 value, MarketCapX marketCapX, TimePeriod timePeriod) external {\n        require(timePeriod <= TimePeriod._12_MONTHS && timePeriod > TimePeriod._OFF_, \"Invalid Time Period Value!\");\n        require(marketCapX <= MarketCapX._100_X && marketCapX > MarketCapX._OFF_, \"Invalid Market Cap X Value!\");\n\n        getBaseContract().transferFrom(_msgSender(), address(this), value);\n\n        (uint256 rate, uint32 timeStamp) = getRate();\n\n        Stake memory stake;\n        stake.id = createStakeId();\n        stake.value = value;\n        stake.marketCapX = marketCapX;\n        stake.timePeriod = timePeriod;\n        stake.stakeType = StakeType.COMBINED;\n        stake.startTime = timeStamp;\n        stake.startRate = rate;\n\n        addStake(stake);\n    }\n\n    /**\n    * @dev Adds a new Stake to the `_stakes` mapping.\n    *\n    * Adds the address of the `stakeHolder` to the `stakeHolders` array if it's not already in it.\n    */\n    function addStake(Stake memory stake) internal {\n        bool newStakeHolder = isNewStakeHolder();\n\n        if (newStakeHolder) {\n            stakeHolders.push(_msgSender());\n            emit NewStakeHolder(_msgSender());\n        }\n\n        _stakes[_msgSender()].push(stake);\n        emit NewStake(_msgSender(), stake);\n    }\n\n    /**\n    * @dev Withdraws a Stake by the given Id if the\n    * - `_msgSender` is a `stakeHolder`.\n    * - The `stakeId` belongs to the `_msgSender`.\n    * - The stake conditions are fulfilled.\n    * - The Module is supplied with the required amount of tokens to withdraw.\n    */\n    function withdraw(bytes32 stakeId) external {\n        require(!isNewStakeHolder(), \"The message sender is not a Stake Holder!\");\n\n        (bool stakeFound, Stake memory stake, uint256 index) = getStakeById(stakeId, _msgSender());\n\n        for (uint256 i = 0; i < _stakes[_msgSender()].length; i++) {\n            if (_stakes[_msgSender()][i].id == stakeId) {\n                stakeFound = true;\n                stake = _stakes[_msgSender()][i];\n                index = i;\n                break;\n            }\n        }\n\n        require(stakeFound, \"The message sender is not the Holder of the given Stake!\");\n        require(getStakeCondition(stake), \"The stake conditions are not fulfilled yet!\");\n\n        uint256 withdrawAmount = stake.value + stake.rewardValue;\n        require(getBaseContract().balanceOf(address(this)) >= withdrawAmount, \"The Stake Module is currently out of supply! Please contact the AVR team!\");\n\n        getBaseContract().approve(address(this), withdrawAmount);\n        getBaseContract().transferFrom(address(this), _msgSender(), withdrawAmount);\n\n        _stakes[_msgSender()][index] = _stakes[_msgSender()][_stakes[_msgSender()].length - 1];\n        delete _stakes[_msgSender()][_stakes[_msgSender()].length - 1];\n        _stakes[_msgSender()].pop();\n\n        emit StakeWithdraw(_msgSender(), withdrawAmount);\n    }\n\n    /**\n    * @dev Returns `true` if the stake conditions are fulfilled, otherwise `false`.\n    */\n    function getStakeCondition(Stake memory stake) internal view returns (bool) {\n        (uint256 rate, uint32 timeStamp) = getRate();\n\n        if (stake.stakeType == StakeType.TIME) {\n            return timeStamp >= getFutureTime(stake.startTime, stake.timePeriod);\n        } else if (stake.stakeType == StakeType.MARKET_CAP) {\n            return getExpectedMarketCap(stake.startRate, stake.marketCapX) <= rate;\n        }\n        return timeStamp >= getFutureTime(stake.startTime, stake.timePeriod) || getExpectedMarketCap(stake.startRate, stake.marketCapX) <= rate;\n    }\n\n    /**\n    * @dev Calculates the `endTime` of the stake.\n    */\n    function getFutureTime(uint32 startTime, TimePeriod timePeriod) internal pure returns (uint32) {\n        if (timePeriod == TimePeriod._1_MONTH) {\n            return startTime + _1_MONTH_IN_SEC;\n        } else if (timePeriod == TimePeriod._3_MONTHS) {\n            return startTime + (_1_MONTH_IN_SEC * 3);\n        } else if (timePeriod == TimePeriod._6_MONTHS) {\n            return startTime + (_1_MONTH_IN_SEC * 6);\n        } else {\n            return startTime + (_1_MONTH_IN_SEC * 12);\n        }\n    }\n\n    /**\n    * @dev Calculates the expected market cap according to the stake multiplier.\n    */\n    function getExpectedMarketCap(uint256 startRate, MarketCapX marketCapX) internal pure returns (uint256) {\n        if (marketCapX == MarketCapX._1_5_X) {\n            return startRate.mul(15).div(10);\n        } else if (marketCapX == MarketCapX._2_X) {\n            return startRate.mul(2);\n        } else if (marketCapX == MarketCapX._4_X) {\n            return startRate.mul(4);\n        } else if (marketCapX == MarketCapX._10_X) {\n            return startRate.mul(10);\n        } else if (marketCapX == MarketCapX._25_X) {\n            return startRate.mul(25);\n        } else {\n            return startRate.mul(100);\n        }\n    }\n\n    /**\n    * @dev Returns true if the `_msgSender` is not included in the `stakeHolders` array.\n    */\n    function isNewStakeHolder() internal view returns (bool) {\n        bool newStakeHolder = true;\n        for (uint256 i = 0; i < stakeHolders.length; i++) {\n            if (stakeHolders[i] == _msgSender()) {\n                newStakeHolder = false;\n                break;\n            }\n        }\n        return newStakeHolder;\n    }\n\n    /**\n    * @dev Transfers the given amount of tokens from the Module to the owner.\n    */\n    function useFunds(uint256 amount) external onlyOwner {\n        require(getBaseContract().balanceOf(address(this)) >= amount, \"The Stake Module is currently out of supply!\");\n        getBaseContract().approve(address(this), amount);\n        getBaseContract().transferFrom(address(this), owner(), amount);\n        emit FundsUsed(amount);\n    }\n\n    /**\n    * @dev Reverts a stake by the given `stakeId` and `stakeHolder` address.\n    */\n    function revertStake(bytes32 stakeId, address stakeHolder) external onlyOwner {\n        (, , uint256 index) = getStakeById(stakeId, stakeHolder);\n\n        _stakes[stakeHolder][index] = _stakes[stakeHolder][_stakes[stakeHolder].length - 1];\n        delete _stakes[stakeHolder][_stakes[stakeHolder].length - 1];\n        _stakes[stakeHolder].pop();\n\n        emit StakeReverted(stakeId, stakeHolder);\n    }\n\n    /**\n    * @dev Transfers the given amount of tokens from the `_msgSender` to the Module.\n    */\n    function refillFunds(uint256 amount) external {\n        getBaseContract().transferFrom(_msgSender(), address(this), amount);\n        emit FundsRefilled(amount);\n    }\n\n    /**\n    * @dev Transfer the given `amount` of tokens to the Module and distribute it between the `stakeHolders` as rewards for their Stakes.\n    */\n    function distributeRewards(uint256 amount) external {\n        (uint256 totalStakeValue, /*uint256 totalRewardValue*/, uint256 stakeHolderCount, uint256 stakeCount) = getStakeSummary();\n\n        require(stakeCount > 0 && stakeHolderCount > 0 && totalStakeValue > 0, \"The rewards cannot be distributed, as there aren't any Stakes yet!\");\n        getBaseContract().transferFrom(_msgSender(), address(this), amount);\n\n        for (uint256 i = 0; i < stakeHolders.length; i++) {\n            if (_stakes[stakeHolders[i]].length > 0) {\n                for (uint256 j = 0; j < _stakes[stakeHolders[i]].length; j++) {\n                    _stakes[stakeHolders[i]][j].rewardValue += amount.mul(_stakes[stakeHolders[i]][j].value.mul(1000).div(totalStakeValue)).div(1000);\n                }\n            }\n        }\n\n        emit RewardDistribution(amount, totalStakeValue, stakeHolderCount, stakeCount);\n    }\n\n    /**\n    * @dev Occasionally called (only) by the server to make sure that the connection with the module and main contract is granted.\n    */\n    function ping() external view onlyOwner returns (string memory) {\n        return getBaseContract().ping();\n    }\n}",
  "sourcePath": "/home/oncemore/Blockchain/avara-test/contract/contracts/StakingModule.sol",
  "compiler": {
    "name": "solc",
    "version": "0.8.4+commit.c7e474f2.Emscripten.clang"
  },
  "schemaVersion": "3.3.4",
  "updatedAt": "2022-01-27T08:30:01.584Z",
  "devdoc": {
    "kind": "dev",
    "methods": {
      "addCombinedStake(uint256,uint8,uint8)": {
        "details": "Creates a Combined Stake for the `_msgSender` for the given value in the Module."
      },
      "addMultiplierStake(uint256,uint8)": {
        "details": "Creates a Multiplier Stake for the `_msgSender` for the given value in the Module."
      },
      "addTimeStake(uint256,uint8)": {
        "details": "Creates a Time Stake for the `_msgSender` for the given value in the Module."
      },
      "constructor": {
        "details": "Sets the AvaraModule standards and the `pancakePair` of the Main contract in the StakingModule."
      },
      "distributeRewards(uint256)": {
        "details": "Transfer the given `amount` of tokens to the Module and distribute it between the `stakeHolders` as rewards for their Stakes."
      },
      "getRate()": {
        "details": "Retrieves the BNB/AVR rate with the given decimal points."
      },
      "getStakeById(bytes32,address)": {
        "details": "Retrieves a Stake by the given `stakeId` and `stakeHolder` address."
      },
      "getStakeSummary()": {
        "details": "Retrieves a summary of the Module."
      },
      "getStakes(address)": {
        "details": "Retrieves the Stake structs for the given `stakeHolder`. (if any)"
      },
      "moduleName()": {
        "details": "Returns the module name."
      },
      "moduleVersion()": {
        "details": "Returns the module version."
      },
      "owner()": {
        "details": "Returns the address of the current owner."
      },
      "ping()": {
        "details": "Occasionally called (only) by the server to make sure that the connection with the module and main contract is granted."
      },
      "previousOwner()": {
        "details": "Returns the address of the previous owner."
      },
      "refillFunds(uint256)": {
        "details": "Transfers the given amount of tokens from the `_msgSender` to the Module."
      },
      "renounceOwnership()": {
        "details": "Leaves the contract without an owner. It won't be possible to call `onlyOwner` functions anymore. Can only be called by the current owner."
      },
      "revertStake(bytes32,address)": {
        "details": "Reverts a stake by the given `stakeId` and `stakeHolder` address."
      },
      "transferOwnership(address)": {
        "details": "Transfers ownership of the contract to a new account (`newOwner`). Can only be called by the current owner."
      },
      "updatePancakeSwapPair()": {
        "details": "Updates the `pancakePair` to be the same as in the Main contract."
      },
      "useFunds(uint256)": {
        "details": "Transfers the given amount of tokens from the Module to the owner."
      },
      "withdraw(bytes32)": {
        "details": "Withdraws a Stake by the given Id if the - `_msgSender` is a `stakeHolder`. - The `stakeId` belongs to the `_msgSender`. - The stake conditions are fulfilled. - The Module is supplied with the required amount of tokens to withdraw."
      }
    },
    "version": 1
  },
  "userdoc": {
    "kind": "user",
    "methods": {},
    "version": 1
  }
}